:020000040800F2
:105000002824002025530008C9D6000887B20008CC
:10501000DDBB00081D73000899F7000800000000C0
:1050200000000000000000000000000089DF000810
:10503000A17F000800000000D9DB00085DE7000840
:105040003F5300083F5300083F5300083F530008F8
:105050003F5300083F5300083F5300083F530008E8
:105060003F5300083F530008B17F000891740008C7
:10507000E17400083F530008257500082D750008ED
:105080003F5300083F5300083F5300083F530008B8
:105090003F5300083F5300083F530008BB7F000800
:1050A0003F530008E1E800083F5300083F53000861
:1050B0003F5300083F5300083F5300083F53000888
:1050C0003F5300083F5300083F5300083F53000878
:1050D0003F530008A1F600083F53000885F7000879
:1050E0003F5300083F5300083F5300083F53000858
:1050F0003F5300083F5300083F5300083F53000848
:10510000000000003F530008000000003F5300086B
:105110003F5300083F530008F1E800083F530008E0
:105120003F5300083F5300083F5300083F53000817
:105130003F53000800000000000000003F5300083B
:105140003F5300083F53000800000000000000002B
:10515000000000000000000000000000000000004F
:105160000000000000000000000000003F530008A5
:105170003F5300083F5300083F5300083F530008C7
:105180003F5300083F5300080000000000000000EB
:1051900000000000000000003F5300083F530008DB
:1051A00000000000000000003F5300083F530008CB
:1051B0003F5300083F5300083F5300083F53000887
:1051C0003F5300083F5300083F5300083F53000877
:1051D0003F5300083F53000800F002F800F092F837
:1051E0000AA090E8000C82448344AAF10107DA4542
:1051F00001D100F087F8AFF2090EBAE80F0013F002
:10520000010F18BFFB1A43F0010318478CAD0000D3
:10521000ACAD0000103A24BF78C878C1FAD8520764
:1052200024BF30C830C144BF04680C607047000020
:105230000023002400250026103A28BF78C1FBD89F
:10524000520728BF30C148BF0B6070476E2900F07D
:105250009384702900F0C38166290AF0C685652908
:105260000AF0C38567290AF0C08561290AF0BF8565
:1052700003681B0A28BF41F08001692900F04084BF
:10528000642900F03D84752900F03A846F2900F00C
:105290008085782900F08F81E92900F01B85E429B9
:1052A00000F01885F52900F01585EF2900F07D85BF
:1052B000F82900F08E810368DB0928BF41F08001E6
:1052C000632900F09C84732900F0A184E32901F094
:1052D000C981F32901F0CE81002070471FB50AF083
:1052E0007FFD01F05FFA0400002000210AF04CFD70
:1052F000401C6060002000210AF05CFDE0601FBDE2
:1053000010B510BD01F029FA1146FFF7E7FF0AF0CA
:10531000DFFC01F00BFB03B4FFF7F2FF03BC01F06D
:105320000FFB00000948804709480047FEE7FEE7F9
:10533000FEE7FEE7FEE7FEE7FEE7FEE7FEE7FEE745
:1053400004480549054A064B70470000CDE70008B0
:10535000D9510008281E00202824002028200020E1
:105360002820002053EA020C00F069802DE9F04B60
:105370004FF00006002B1FBFB3FA83F503FA05F4C4
:1053800024FA05F65E4012BF1643B2FA82F502FA1D
:1053900005F4C5F120051EBF22FA05FC44EA0C0401
:1053A000203556EA044C4FEA144418BF641C4FF0F1
:1053B00000084FF00009904271EB030C39D300292B
:1053C00019BFB1FA81F701FA07F6B0FA80F700FACF
:1053D00007F6C7F120071EBF20FA07FC46EA0C06B5
:1053E0002037B6FBF4FCA7EB0507103F07F01F0BB7
:1053F000CBF120060CFA0BFB2CFA06F644BFB346A1
:105400000026202FA4BF5E464FF0000B5BEA060C7F
:1054100008BF4FF0010B19EB0B09ABFB027C48EB0B
:105420000608C01B06FB02CC0BFB03CC71EB0C0186
:10543000C1E70B46024641464846BDE8F08B13B52E
:105440004FF000004FF00001AFF30080BDE81C40BA
:10545000704700007CB51D4616460C00009001D038
:105460002044401E074B7B442A4669460190304643
:1054700000F09BFB05461CB10020694600F0A8FB2C
:1054800028467CBD710700000FB47CB50C0009AA4A
:10549000009001D02044401E084B7B446946019097
:1054A000089800F082FB05461CB10020694600F018
:1054B0008FFB28467CBC5DF814FB00003D07000014
:1054C00070B5044685690068C10601D5302600E044
:1054D0002026C00707D070BDD4E90121304690478F
:1054E000206A401C20626D1EF6D570BD70B5044662
:1054F00085690078C00707D170BDD4E9012120205B
:105500009047206A401C20626D1EF6D570BD70B5B4
:105510000C460546012A05D02878800600D5EA69A0
:10552000002302E0012305E05B1C934202D2E05C11
:105530000028F9D1A869E618C01AA861286A184499
:1055400028622846FFF7BCFF04E0D5E9012114F8E2
:10555000010B9047B442F8D32846FFF7C7FF70BD50
:10556000F0B40D460188090502D5214C7C4402E0C7
:105570001F4C7C440E34002100F1240608E002F0A8
:105580000F071209E75D42EA03721B097754491CB1
:1055900052EA0307F3D102780023120704D5702DD5
:1055A00006D009B1022311342246F0BC00F04EBAF5
:1055B00001231034F8E770B504460D462146106803
:1055C00000F03BFA024629462046BDE87040002321
:1055D000C6E7D21D22F00703D3E90023C0E7036822
:1055E000126843F0200303600823C3610023B7E778
:1055F00028A900002DE9F05F894604464FF0000A13
:10560000DFF874B1FB44C0F820A02046E168884769
:10561000002874D0252806D0D4E901219047206ABB
:10562000401C2062F1E700265F462046E16888477B
:105630002028054607DB312D05D2781910F8200CFB
:1056400008B10643F1E7B00701D526F00406C4F817
:105650001CA00027C4F818A02A2D09D028460AF05B
:1056600009FB38B304EB8708303DC8F8185019E03F
:1056700059F8041B204604EB87029161E1688847D2
:10568000012F054618D1E069002820DA26F020060F
:105690001DE0D8F8180000EB800005EB4000303822
:1056A000C8F818002046E168884705460AF0E2FA83
:1056B0000028EED1012F0AD02E2D08D12046E16816
:1056C00088477F1C0546022F46F02006C4DBA069F0
:1056D000002803DA404246F00106A061F00701D03D
:1056E00026F010066C2D0BD0682D09D04C2D39D02A
:1056F0006A2D35D0742D35D07A2D33D016E038E0B0
:10570000E1682F4620468847B842054609D16C2FEC
:1057100026D04FF48060E16806432046884705465E
:1057200004E06C2F1AD04FF4807006430DB3A5F13E
:105730004100192802D8203546F400664A46294619
:10574000204626604E46FFF781FD80B101280BD030
:10575000F61D26F0070000F1080956E74020E4E7AF
:105760008020D8E70020D6E706F104094DE7284657
:1057700052E7206ABDE8F09FB8A8000070B5064661
:1057800000F04EF90468054630460A22002100F078
:1057900017FB2C6070BD10B5431C02E010F8011B14
:1057A00071B18107FAD14FF0013202C88C1A8C43D3
:1057B00014EAC211F9D0C01A0A0603D0C01E10BDE7
:1057C000C01A10BD0A0401D0801E10BD0902FCD011
:1057D000401E10BD40EA010370B59B072ED14FF06B
:1057E0000136042A2AD308C810C99D1B9D43121FE5
:1057F00015EAC61517D0D8B2E1B2401A50EA0561D1
:1058000010D198B2A1B2401A50EA05410AD123F052
:105810007F4024F07F41401A50EA052102D1180E42
:10582000A0EB146070BDA342DBD018BA21BA884245
:1058300001D9012070BD4FF0FF3070BD0AB90020C2
:1058400070BD10F8013B11F8014B63B1A3420AD1BE
:10585000521E08D010F8013B11F8014B1BB1A342B6
:1058600001D1521EEDD1181B70BD032A40F23080C9
:1058700010F0030C00F0158011F8013BBCF1020F91
:10588000624498BF11F801CB00F8013B38BF11F812
:10589000013BA2F1040298BF00F801CB38BF00F829
:1058A000013B11F0030300F0C382083AC0F0088006
:1058B00051F8043B083A51F804CBA0E80810F5E78A
:1058C000121D5CBF51F8043B40F8043BAFF300806D
:1058D000D20724BF11F8013B11F801CB48BF11F8E2
:1058E000012B24BF00F8013B00F801CB48BF00F8B2
:1058F000012B704702F0FF0343EA032242EA02420F
:1059000000F002B84FF000020429C0F0128010F03D
:10591000030C00F01B80CCF1040CBCF1020F18BF8B
:1059200000F8012BA8BF20F8022BA1EB0C0100F01E
:105930000DB85FEAC17C24BF00F8012B00F8012BF1
:1059400048BF00F8012B70474FF0000200B5134626
:1059500094469646203922BFA0E80C50A0E80C508F
:10596000B1F12001BFF4F7AF090728BFA0E80C5040
:1059700048BF0CC05DF804EB890028BF40F8042B39
:1059800008BF704748BF20F8022B11F0804F18BFA6
:1059900000F8012B704700004FF0013C50F8042B39
:1059A00051F8043B9A4221D1A2EB0C03934313EA32
:1059B000CC1317D150F8042B51F8043B9A4215D15F
:1059C000A2EB0C03934313EACC130BD150F8042B36
:1059D00051F8043B9A4209D1A2EB0C03934313EA1A
:1059E000CC13DBD04FF00000704700BFD01A01BAD3
:1059F000B1FA81F101F0180122FA01F0CB40C1F1B6
:105A00002001DBB2C0B2C01A2CFA01F3D11A9143C3
:105A100011EAC311E6D17047704770477047000024
:105A200000487047C41D002009684A0501D540B2EE
:105A30007047C905FCD500B2704709684A0501D511
:105A4000C0B27047C905FCD580B270472DE9F04758
:105A50000D4699469246044600F1240801688806DE
:105A600004D5E06921F01001216000E00120A84286
:105A700001DD471B00E00027A1697A1902EB09004C
:105A8000081AA0612078C00602D42046FFF718FD4E
:105A9000002608E0D4E901211AF806009047206AA0
:105AA000401C761C20624E45F4DB2078C0060AD5E7
:105AB0002046FFF705FD06E0D4E90121302090479C
:105AC000206A401C2062381EA7F10107F4DC07E0C1
:105AD000D4E9012118F805009047206A401C206293
:105AE000281EA5F10105F3DC2046FFF7FFFC207816
:105AF000000602D50220BDE8F0870120FBE7000088
:105B00002DE9F0410646002410687529314616A596
:105B100010D0FFF789FF002802DA404213A507E002
:105B200031688A0701D512A502E0490704D511A5FD
:105B3000012401E0FFF781FF00210A2206F124077A
:105B400009E0B0FBF2FCB0FBF2F302FB1C003030CA
:105B500078541846491C0028F3D123462A4630467B
:105B6000BDE8F041FFF772BF000000002D0000000B
:105B70002B0000002000000011680268006A530535
:105B800001D508700AE0D30501D5088006E01306A8
:105B900003D5C217C1E9000200E008600120704788
:105BA00001694A1C02610878704700B58FB0CDE9E1
:105BB00001310021059105497944CDE903101146D1
:105BC0006846FFF717FD0FB000BD0000E5FFFFFFBF
:105BD0000A6802F8010B0A607047D1E900239A4273
:105BE00002D2531C0B601070704710B5436913B19B
:105BF000AFF3008001E0FFF78AFC012010BD1278AE
:105C000000F124010A7000224A700122EDE71168B8
:105C10004FF0FF32E9E700002DE9FF5F15468A46A5
:105C20000446DFF8AC80F8440027D8E900103E466F
:105C3000CDE9001010E03AF816106A4602A800F00C
:105C40006CFD411C07D02178890603D5E26939181B
:105C500091420DD80744761C2078800602D5E06971
:105C6000B84205DDAE42E6DB3AF816000028E2D184
:105C7000A069C01BA0612046FFF722FCD8E90010F4
:105C8000CDE90010002017E03AF818106A4602A883
:105C900000F043FDB0F1FF3F81460BD000250DF130
:105CA000080B05E0D4E901211BF8050090476D1CA5
:105CB0004D45F7D308F10100B0428046E4DB206A8D
:105CC000384420622046FFF711FCBDE8FF9F00002A
:105CD000AAA200002DE9F0418046D21D22F0070261
:105CE0000025D2E90002F52915A614D0011E72F193
:105CF000000106DA0023D0EB030063EB020211A6D9
:105D000008E0D8F800108B0701D50FA602E049077C
:105D100001D50EA601251146002408F1240704E050
:105D200000F0C4F830323A55641C50EA0102F7D151
:105D30002B46324621464046BDE8F041FFF786BE7D
:105D4000000000002D0000002B00000020000000DB
:105D500030B4002100F1240408E002F00705D20865
:105D6000303542EA4372DB086554491C52EA0305A8
:105D7000F3D10468002310A2250707D5A40600D498
:105D800021B1C46901230DA2641EC46130BCFFF7B8
:105D90005DBE10B5044621461068FFF74EFE024670
:105DA0002046BDE810400023D2E7D21D22F00701B3
:105DB000D1E90023CCE70000000000003000000023
:105DC0002DE9F04791460F4680460446002614F818
:105DD000015B2DB100F062F80068405DC007F6D1AC
:105DE0002B2D02D02D2D18D0641E4A463946204650
:105DF00000F044FC27B13968A14201D1C7F8008006
:105E00004FF0020471050BD54042002803DDFFF777
:105E100007FE0460A007BDE8F08746F48066E4E76B
:105E20000028F8DAFFF7FCFD04606FF00040F2E7AD
:105E300010B5203AC0F00B80B1E81850203AA0E825
:105E40001850B1E81850A0E81850BFF4F5AF5FEA59
:105E5000027C24BFB1E81850A0E8185044BF18C90C
:105E600018C0BDE810405FEA827C24BF51F8043BB3
:105E700040F8043B08BF7047D20728BF31F8023B07
:105E800048BF11F8012B28BF20F8023B48BF00F89B
:105E9000012B704700487047C41D002010B500F06A
:105EA00081FC001D10BD00BFE19E000030B5B0F1C7
:105EB0000A024FEA900E71F100034EEA817EB0EBC8
:105EC0000E0061EB91014FEA101E4EEA017E10EBCD
:105ED0000E0041EB11114FEA102E4EEA016E10EB4D
:105EE0000E0041EB11214FEA104E4EEA014E10EB2D
:105EF0000E0041EB1141401841F100014FEAD00082
:105F000040EA41704FEAD10110EB80054FEA81046D
:105F100044EA907444EB01046D1944EB0404521BF1
:105F2000A3414FF0000348BF0A3200D530BD401CEA
:105F300041F1000130BD70472DE9FF4F0C461E4670
:105F40004FF0FF378BB0D2E90001DDF860800A9096
:105F50008A46C1F30A5505B93D46002108464FF06F
:105F60000000BAF1000F00F4400005DA00EB8000F9
:105F70004FF4400101EA50004FEA9059B9F1010F86
:105F800000DDB9460A9850EA4A000ED044F6105097
:105F9000A5F2FF3545432F14B8F1000F1ED075420E
:105FA000291E1EDDC9F100021CE0B8F1010F4FF0FF
:105FB000000001D0302103E0F24305E02154401CF1
:105FC000B042FBDB30460022002121540B99C1F87E
:105FD0000880C1E900200FB0BDE8F08FBD1B6D1C2B
:105FE000DEE74A4600DA694206A800F02DFC06AB5F
:105FF00093E8070003AB83E8070050460A9900F0D6
:10600000A6FC8DE80700A0F500501F38009003980B
:10601000002D0ADD42F21F014A460844002303A96D
:106020000390684600F00FFF09E0A0F500504A46D3
:106030001F38002303A90390684600F019FF8DE87C
:1060400007000004000C03D04FF0FF30410800E0CF
:106050001046B8F1000F03D00022009215461EE052
:10606000751E05D4FFF722FF303262556D1EF9D53B
:10607000B3460122084302D000227F1C04E02078AE
:10608000302801D100227F1E002A099784D01DE00C
:10609000112D07DAFFF70AFF303262556D1C50EA06
:1060A0000102F5D1084302D00098C8B10EE00021EA
:1060B000681E05E0235C625C63542254401E491C48
:1060C0008142F7DBAB46A81B401E0990002004F874
:1060D0000B000B98099AC0F80880C0E9002B7AE7FA
:1060E00011264FF0000857E72DE9F04F8846044687
:1060F000D21D22F0070191B0D1E90001CDE90A01DA
:1061000009F084FD02460B98C00F01D02D2007E056
:106110002068810701D52B2002E0202101EAC00080
:10612000032A099001D0072A05DB03464146204691
:1061300000F03CFB0BE12078800601D5E06900E02F
:106140000620B8F1650F814606D0B8F1660F18D069
:10615000B8F1670F70D131E00020B9F1110F009054
:1061600001DB112301E009F101030AAA01A90CA82E
:10617000FFF7E2FEDDE90C70002609F10105834618
:1061800047E001204B4600904FF000470AAA01A9C2
:106190000CA8FFF7D1FEDDE90DB00C995D46002695
:1061A00010B909F101000D18B9EB050003D4C0F1D5
:1061B000FF3609F10105A5EB09002BE0B9F1010F4C
:1061C00001DA4FF001090020B9F1110F00904846A3
:1061D00001DD112300E003460AAA01A90CA8FFF77C
:1061E000ABFEDDE90C704D460026834620780007A3
:1061F0000AD4AB4500DA5D4601A8012D04DD411942
:1062000011F8011C302907D04F4502DA17F1040FAD
:1062100004DA012082460FE06D1EEEE7002F02DC5B
:10622000ED1B3E4403E0781CA84200DD7D1CB81B3A
:1062300000F1010A4FF000472078000703D4AA4577
:1062400001DB4FF0FF3A0021B7F1004F0DF1430899
:106250008DF8431024D002202B23002F01DA7F4237
:106260002D230A21021EA0F1010000DC5FB197FB83
:10627000F1FC97FBF1F201FB1C7C17460CF1300C92
:1062800008F801CDEEE7A8F10100037021880905A7
:1062900001D5452100E06521A0F1010800F8011CAD
:1062A00009980FA9A1EB0807FF1D00B101204119B2
:1062B00001EBEA70A1693844081A401EA0612078F9
:1062C000C00602D42046FFF7FBF8099828B1D4E9AC
:1062D00001219047206A401C20622078C00622D508
:1062E0002046FFF7EDF81EE0002E04DBB34502DD8B
:1062F00001A8805D00E03020D4E901219047206AA8
:10630000401C2062761CAAF101005FEA000A0AD153
:1063100000F048FAC0680168405CD4E90121904768
:10632000206A401C2062281EA5F10105DCDC07E084
:10633000D4E9012118F8010B9047206A401C206223
:10634000381EA7F10107F3DC2046FFF7CFF8032042
:1063500011B041E62DE9F04F04460D46D21D22F062
:10636000070089B0D0E900974846394609F04EFC4D
:106370000246F80F01D02D2307E02068810701D5E0
:106380002B2302E0202101EAC0038DF820300BB15D
:10639000012000E00020032A824601D0072A04DB06
:1063A0002946204600F002FA3FE12078800601D419
:1063B0000D2500E0E569C7F30A560D2D49DA0021E5
:1063C0004FEA175B08464FF00000002F00F4400032
:1063D00007DA00EB80004FF4400100EBD07001EAD7
:1063E00060008115012901DD4FF0FF3100224FEAE5
:1063F000850CBCF1180F06D31346ACF118004FF012
:106400008052C24003E04FF4801323FA0CF30CF1E6
:106410000C0CBCF1200F04D3ACF1200C09FA0CF0E9
:1064200001E007FA0CF000294FF0004801DD18B92F
:106430000FE00ED140450CD319EB02095F4121B9A1
:10644000404502D19F4329EA0209BBEB175F00D008
:10645000761C2088000502D57B48784402E07A4803
:106460007844193808AA302302F80A30037C0AF16C
:106470000101002E0AF1020A53546A4602DC4FF071
:10648000300101E04FF031014FF001088DF80010AC
:1064900002D0A6F2FF3603E059EA470100D06B4E66
:1064A000002D02DC2178090704D54FF002082E21C7
:1064B0008DF80110C44600210BE0C7F303433F01F0
:1064C000C35C491C6D1E02F80830052908F101085B
:1064D00001DA002DF1DC00210CE000EB1973491CFE
:1064E0001B786D1E082902F808304FEA091908F1D7
:1064F000010801DA002DF0DC21688B0602D516E0D8
:10650000A8F10108E04505DD02EB080313F8013CA2
:10651000302BF5D0B8F1000F09DD02EB080313F8BA
:10652000013C2E2B03D1090701D4A8F10108002D4D
:1065300005DD3E2102F808106D1E08F10108407CBF
:10654000002E02F8080008F1010804DA2D20764236
:1065500002F8080002E02B2002F808000A214FF49C
:106560007A70864208F101080BDB96FBF0F33033BA
:1065700002F8083096FBF0F308F1010800FB1366FF
:1065800001E0642E0CDB642096FBF0F3303302F85C
:10659000083096FBF0F308F1010800FB136601E0F8
:1065A0000A2E06DB96FBF1F0303002F8080008F105
:1065B000010896FBF1F001FB1060303002F8080092
:1065C000A16908F1010808EB050202EB0A00081AAC
:1065D000A0612078C00602D42046FEF771FF216A30
:1065E00008AE01EB0A00206204E0D4E9012116F8AC
:1065F000010B9047BAF1010AF7D22078C00602D504
:106600002046FEF75DFF6E4609E016F8010B3E28B6
:106610000FD0D4E901219047206A401C2062B8F1D4
:106620000108F2D22046FEF761FF09B00320BDE861
:10663000F08F206A2844206203E0D4E90121302051
:1066400090476D1EEBD3F8E7919A000002FCFFFF24
:1066500010B5436913B1AFF3008001E0FFF7DCFA36
:10666000012010BD128800F1240182840022C2841E
:106670000122EDE711684FF0FF32E9E72DE9F05F05
:10668000824615468B4600270AF10104B946007878
:10669000302801D09DB113E014F8010B01277828B0
:1066A00003D0582801D045B10AE00DB1102D07D113
:1066B000002714F8010B102502E0082500E00A2548
:1066C0000026B0460EE005FB080005FB06F1012799
:1066D0001FFA80F801EB1046B6F5803F00D3B946AB
:1066E00014F8010B294600F0A1F80028EBDABBF101
:1066F000000F05D00FB1641E00E05446CBF80040F7
:10670000B9F1000F06D0FFF78BF902210160C81E16
:10671000BDE8F09F48EA0640FAE770B516460C4619
:106720000546FFF7BBFB036893F80101012806D07B
:10673000FF2C0FD8185D68B101202C7070BDD3F804
:1067400007013246214603F2071303442846BDE8F9
:10675000704018474FF0FF3070BD7546FFF79AFB49
:10676000AE4605006946534620F00700854618B03E
:1067700020B5FEF7E5FDBDE820404FF000064FF0E4
:1067800000074FF000084FF0000B21F00701AC4666
:10679000ACE8C009ACE8C009ACE8C009ACE8C00985
:1067A0008D46704700487047E41D00202DE9F041F8
:1067B0001F46044603260168072A01F4006004DB33
:1067C00008B116A505E016A503E008B115A500E07F
:1067D00015A521F010002060A069C01EA0610FB1B6
:1067E000401EA0612046FEF76BFE4FB1D4E90121A7
:1067F00038469047206A401C2062C01C206206E098
:10680000206AFAE7D4E9012115F8010B9047761EBA
:10681000F8D22046FEF76AFEBDE8F0814E414E00F8
:106820006E616E00494E4600696E66003A2800D2DD
:10683000303820F02002412A01D3A2F137008842EB
:1068400001D34FF0FF3070472DE9F04781461646DF
:106850008AB0354878440DC88DE80D003248784438
:10686000801C03AC0DC884E80D0041F69B30084441
:10687000372190FBF1F290FBF1F5A5F1800501FBCA
:1068800012041B3C02D56442012000E00020DFF826
:1068900098A080460027FA44AAF1BE0A0EE0E0075D
:1068A0000AD03246684607EB470101230AEB810113
:1068B00000F0DEFA8DE8070064107F1C002CEED19A
:1068C000194F7F44AE3F19E0E80715D007EB0410DD
:1068D0000DF1180A90E80E008AE80E00C068F04238
:1068E00001D1981908903246012306A903A800F0A7
:1068F000BFFA03AB83E807006D10641C002DE3D1E1
:106900004FF0010332466946B8F1000F03A802D0E8
:1069100000F099FA01E000F0ABFAC9E90001C9F80A
:1069200008200AB0BDE8F0872897000010B504469B
:10693000AFF300802046BDE81040FEF7ECBC00003D
:1069400001491820ABBEFEE72600020070475FEA4F
:10695000400C08BF91F0000F4FEA8C234FEAC12290
:1069600043EA51514FEA1C5018BF00F5F0404FEA7E
:10697000300018BF41F000415FEA6C5C00F02980F4
:10698000BCF1FF3F08BF40F080407047130C06BFCA
:1069900012044FF0100C4FF0000C130E04BF120243
:1069A0000CF1080C130F04BF12010CF1040C930F2F
:1069B00004BF92000CF1020CD30F04BF52000CF183
:1069C000010C11464FF00002A0F11F00A0EB0C00DB
:1069D000704711F0004F08BF704731F000413FF49D
:1069E000D5AF0B0C06BF09044FF0100C4FF0000C94
:1069F0000B0E04BF09020CF1080C0B0F04BF0901B8
:106A00000CF1040C8B0F04BF89000CF1020CCB0FAE
:106A100004BF49000CF1010CCCF12003A0EB0C00E9
:106A200022FA03F302FA0CF241EA030100F1010039
:106A3000704720F07F4C80EA030023F07F47ACEBE7
:106A4000070303F57C5300F0004003F1FF032DE939
:106A500080494FEA154B09B44FEA144325EA0B4E1F
:106A600024EA03480FF2042606EB132749083E7870
:106A70005FEA320203FB0667C7F5000707FB06F66D
:106A80004FEA54374FEAD64606F1020607FB066C7A
:106A9000CCF1005C4FEA1C472CEA074C07FB06F4DC
:106AA0000CFB06F504EB15464FEA961634BF0020A2
:106AB0004FF000404FEAD13706FB07FC4FEA1C4C71
:106AC0000CFB0BF7D21B03FB0CF761EB07010CFB74
:106AD0000EF7B0EB074072EB17420CFB08F734BF20
:106AE000A2EB0742B2EB074261EB17414FEA0C44BD
:106AF0004FEA910706FB07FC4FEA1C4C0CFB0BF717
:106B0000B0EBC74072EB573203FB0CF734BFA2EB7C
:106B1000C742B2EBC74261EB57310CFB0EF7B0EB4B
:106B2000C70072EB57720CFB08F734BFA2EBC70229
:106B3000B2EBC70261EB5771039F4FEA816141EAF3
:106B4000921104EBCC044FEAD1374FEA826206FB84
:106B500007FC42EA90124FEA80604FEA1C4C0CFBA3
:106B60000BF7D21B03FB0CF761EB07010CFB0EF7D5
:106B7000B0EB074072EB17420CFB08F734BFA2EBF7
:106B80000742B2EB074261EB17414FEA8C554FEADF
:106B9000910704EB9C2406FB07FC4FEA1C4C0CFB02
:106BA0000BF7B0EBC74072EB573203FB0CF734BF67
:106BB000A2EBC742B2EBC74261EB57310CFB0EF7B9
:106BC000B0EBC70072EB57720CFB08F734BFA2EBB7
:106BD000C702B2EBC70261EB577115EB4C254FEAC8
:106BE000816141EA92114FEA82624FEAD13742EA6B
:106BF000901206FB07FC44F100044FEA80604FEA64
:106C00001C4C0CFB0BF7D21B03FB0CF761EB0701D1
:106C10000CFB0EF7B0EB074072EB17420CFB08F7CA
:106C200034BFA2EB0742B2EB074261EB174115EB11
:106C30001C154FEA813141EA92414FEA823242EA21
:106C400090424FEA80304FEA0C7644F1000448EA63
:106C500003434EEA0B484FF0000EB2EB080C71EB09
:106C6000030724BF624639464EEB0E0E4FF0000B71
:106C70000018524149414BEB0B0BB2EB080C71EB86
:106C800003077BF1000B24BF624639464EEB0E0E24
:106C90004FF0000B0018524149414BEB0B0BB2EB8C
:106CA000080C71EB03077BF1000B24BF62463946E9
:106CB0004EEB0E0E51EA020718BF46F0010616EB26
:106CC0000E7655F1000254F1000103D5BDE88901AB
:106CD000BDE80088BDE88901BDE80048B619524109
:106CE00041EB0101A3F10103704780807F7E7D7C31
:106CF0007B7A7978777676757473727171706F6E4E
:106D00006E6D6C6C6B6A6A696868676666656464F8
:106D1000636362616160605F5F5E5E5D5D5C5C5B82
:106D20005B5A5A59595858575756565555555454F1
:106D3000535352525251515050504F4F4F4E4E4D4F
:106D40004D4D4C4C4C4B4B4B4A4A4A49494948489B
:106D500048474747474646464545454444444443DB
:106D600043434342424242414141002B9C4630D47E
:106D700077002BD01CB54FEA370703B44FF0100053
:106D80004FF01001BAF1000F06D0BCF1000FDCBFCC
:106D900040F0080040F008014FF000000FBCBDE8D3
:106DA00010400BF1010BBBF1010F08BF5FEA1707A1
:106DB00022BF12F1010211F101014FF0004143F134
:106DC000000300F0004043EA00007047F9D3570881
:106DD000D0E746EA064613F1400F4FEA16461FDD9C
:106DE00013F1200FDFBF16430A46002120335B4218
:106DF000BED0C3F1200746EA064602FA07F74FEA7B
:106E0000164646EA0706C3F1200722FA03F201FA02
:106E100007F721FA03F14FF0000342EA0702A7E760
:106E200046EA020646EA06464FEA164646EA0106E2
:106E3000BCBF46EA0646360C4FF000034FF0000296
:106E40004FF0000194E72DE9804C9A46934670B4C8
:106E500091E8380007C831EA400C48BF34EA430CD7
:106E600003D5FFF7E6FDFFF780FFF0BCBDE8008C1F
:106E70002DE9804C9A46934670B491E8380007C8D3
:106E800010F0804F08BF13F0804F03D100F005F8D9
:106E9000FFF76BFFF0BCBDE8008C20F07F4780EA75
:106EA000030023F07F4C07EB0C03A3F57C5300F0A9
:106EB0000040A3F1FE0392F0000F00F0B38095F0C4
:106EC000000F00F077802DE901494FEA11404FEAA9
:106ED000144621EA004800FB06FC24EA064708FBAA
:106EE00006F607FB08F800FB07F718EB06484CEB23
:106EF000164C4FEA124B18EB07484FEA15464CEB7D
:106F0000174022EA0B4E0BFB06FC25EA06470EFB58
:106F100006F607FB0EFE0BFB07F71EEB064E4CEBCF
:106F2000164C4FF000061EEB074E4CEB174B18EBC0
:106F30000B0840F1000018EB0E0B58EB000840F175
:106F400000008F1A4FF000013CBFC943661B14BFFD
:106F5000B5EB040C00213CBFC943F61B4FEA1744B4
:106F60004EEA8E0E27EA04454FEA1C4704FB0762EF
:106F70002CEA074C05FB07F70CFB05F604FB0CFCA1
:106F800016EB074642EB174216EB0C4642EB1C424F
:106F90001BEB060658EB0202414146EA9E0601D56C
:106FA000BDE80189B619524141EB0101A3F101038A
:106FB000BDE801894FEA14454FEA114724EA054626
:106FC00021EA074C05FB07F406FB07F70CFB06F16B
:106FD00005FB0CFC11EB074144EB17444FEA124749
:106FE00011EB0C4144EB1C4422EA074C05FB07F271
:106FF00006FB07F70CFB06F605FB0CFC16EB074639
:1070000042EB174216EB0C4642EB1C456A1854F152
:10701000000148BF7047B619524141EB0101A3F18D
:107020000103704795F0000F37D04FEA11424FEA45
:10703000144721EA024624EA074C02FB07F106FB4B
:1070400007F70CFB06F402FB0CFC14EB074441EBC6
:1070500017414FEA154714EB0C4441EB1C4125EA5C
:10706000074C02FB07F506FB07F70CFB06F602FBD5
:107070000CFC16EB074645EB174516EB0C4645EBAB
:107080001C42121951F1000148BF7047B619524114
:1070900041EB0101A3F1010370474FEA14454FEAA8
:1070A000114724EA054621EA074C05FB07F106FBD8
:1070B00007F70CFB06F24FF0000605FB0CFC12EB89
:1070C000074241EB174112EB0C4251EB1C4148BF08
:1070D0007047921841EB0101A3F1010370470000D2
:1070E00009480A49086000BF00BF00BFBFF34F8FC7
:1070F00000BF00BF00BF00BF00BF00BFBFF36F8F66
:1071000000BF00BF00BF70470050000808ED00E05E
:1071100010B50446052C18D2DFE804F00305070A71
:107120000E000A2010BD0A20FCE705F02FF9F9E750
:107130000748408980B2F5E7064890ED020ABCEEA8
:10714000C00A10EE100A80B2ECE74FF6FF70E9E7D4
:10715000E01000204400002070B505460C460C2DC0
:1071600077D2DFE805F0060E161C3594969A9EA29B
:10717000BDC3012C01D0022C01D107F09FFB0020E0
:1071800070BD012C01D0032C01D107F07BFB002046
:10719000F6E7012C01D107F091FB0020F0E700EEAB
:1071A000104AB8EE400A554880ED020AD0ED020AB6
:1071B000B0EE600A07F014FB5048D0ED020AB0EEC2
:1071C000600A4F4807F03EFA07F05CFB0020D7E763
:1071D000002C5ADD072C58DA48490C701126072C70
:1071E00043D2DFE804F042040E18222C3700454851
:1071F000424948609FED440A084680ED020A112684
:1072000034E040483D4948609FED400A084680ED23
:10721000020A17262AE03B48384948609FED3C0A9D
:10722000084680ED020A112620E0364833494860BE
:107230009FED370A084680ED020A112616E0314814
:107240002E4948609FED320A084680ED020A112659
:107250000CE051E04FF4E130284948609FED2D0AE1
:10726000084680ED020A002600E000BF00BF01F0E2
:107270000DF8002E08DD2148D0ED020AB0EE600ABC
:1072800031461F4807F070F900BF002078E7002062
:1072900076E72149CC70002072E71F490C7100206D
:1072A0006EE71D494C7100206AE71B498C71134839
:1072B0000078012804D0022806D003280CD107E06A
:1072C0000C201549087008E00F201349087004E0ED
:1072D0000B201149087000E000BF00BF00204FE7FD
:1072E0000D498C700D200870002049E70A494C7048
:1072F0000A200870002043E7012041E744000020F5
:10730000641D0020A025260000007A4400409C4512
:107310000000FA420000FA43E010002000BFFEE740
:1073200010B5032012490870124890F876011249EE
:107330000870104890F8770140F0800048700C48C1
:10734000007840F05000887003210B4804F0D4FF0F
:1073500004460949CC70200A08710846C1F80402A5
:10736000052180F8081200F5017008F017FA10BD29
:107370005B000020100800200404002010B5082045
:1073800012490870124890F87601124908701048A6
:1073900090F8770140F0800048700C48007840F089
:1073A0005000887003210B4804F0A6FF04460949E9
:1073B000CC70200A08710846C1F80402052180F843
:1073C000081200F5017008F0E9F910BD5B0000201B
:1073D000100800200404002010B50720124908708E
:1073E000124890F8760112490870104890F8770119
:1073F00040F0800048700C48007840F050008870E1
:1074000003210B4804F078FF04460949CC70200A98
:1074100008710846C1F80402052180F8081200F539
:10742000017008F0BBF910BD5B00002010080020BF
:107430000404002010B5092012490870124890F881
:10744000760112490870104890F8770140F08000EA
:1074500048700C48007840F05000887003210B48B9
:1074600004F04AFF04460949CC70200A0871084616
:10747000C1F80402052180F8081200F5017008F037
:107480008DF910BD5B0000201008002004040020CE
:1074900010B50F48006800F00200A0B102200C49AE
:1074A000486000BF0B48006800F4C0500028F9D1C4
:1074B00000BF0848006800F080000028F9D14FF4B0
:1074C000805005490860054801F079FB10BD0000B7
:1074D000000002400838004018040048C4000020A2
:1074E00010B50D48006800F0200080B10A484068DF
:1074F00040F02000084948600846C06920F00100BB
:10750000C8610648006840F040000449086004482B
:1075100001F055FB10BD00000000024000380140A2
:10752000E402002010B500F05BFD10BD10B500F0C6
:107530006DFD10BD30B50E4D0468AC4201D20D4951
:1075400001E00C4920310B460478083C1425B4FBBB
:10755000F5F2446CA40803EB84048464054C803485
:10756000C46402F01F050124AC40046530BD000076
:10757000080402400008024001794A1E064B03EB52
:1075800082024265044A403282654A1E02F01F03AD
:1075900001229A40C2657047000902402DE9FE4F62
:1075A00080465548007A012825D10121002304E0B6
:1075B00001EB810461005C1CE3B24F4C247C9C42D3
:1075C000F6DC4D4B5B790BB93C2300E03C231A46BB
:1075D000494BD888B8F1000F01D0084400E0401AA8
:1075E00000E0801A9042FCDA00E010440028FCDB46
:1075F000414CE0807BE040484079012801D1BDE862
:10760000FE8F3D48C2884179684606F095FA01260A
:1076100000279DF8010000BB3749087C9DF8021047
:10762000012909D13449497A012900D1001D324983
:10763000497A022900D1083000210BE00A234FF0DB
:10764000000AB446ACFB032B07FB03B306FB0A3767
:107650001646491C8142F1DB2CE09DF8010001280F
:1076600012D100200BE010224FF000093346A3FB9B
:10767000021A07FB02A206FB09270E46401C1E4900
:10768000097C8142EFDC15E09DF80100022811D150
:1076900000200BE002234FF00009B446ACFB031AB4
:1076A00007FB03A206FB09270E46401C1249097C72
:1076B0008142EFDC1048C468E517B8F1000F02D032
:1076C000A4197D4102E0A41B65EB07050298C117D0
:1076D000001BA94101DA029C06E00198C117201A9B
:1076E00075EB010000DA019C0348C46000BF00F0A4
:1076F00053FB00BF83E70000FC0A002008B51E4AC8
:10770000117050704FF480521C4B1A601C4A9268E2
:1077100022F001021A4B9A600F225A600222DA60AC
:107720001A46926842F001029A6000BF144A126839
:1077300002F00202002AF9D000BF124A126802F4D5
:10774000C052002AF9D100BF0E4A126802F080022E
:10775000002AF9D1009204E09DF80020521CD2B218
:1077600000929DF800200F2AF6DB4FF48052034B65
:10777000103B1A6008BD00003800002028040048B3
:10778000000002400838004010B52848807F0028DB
:107790004AD12648008C401C244908840846008CA5
:1077A000962842DB00200884084690F82400401CFC
:1077B00081F82400112205211C48FEF79BF81B4884
:1077C00090F82400012802DB152018490871174899
:1077D00090F82400022802DB18201449C8701348CE
:1077E00090F82400032802DB1520104988700F4808
:1077F00090F82400042802DB19200C4948700B483B
:1078000090F82400052802DB182008490870074872
:1078100090F82400052808DB01200449887700201F
:1078200081F82400088400E000BF10BDFC0A00209D
:1078300010B528210F48FEF787F80F48006841F27D
:10784000020108430C4908600B4808300B490861E5
:107850000B4848610848001F006840F04000064996
:10786000091F0860002003490872887781F8240006
:10787000088410BDFC0A00200438004000000240CB
:10788000380000202DE9FE43B6480568012020EAB3
:10789000151620EA551720EA951820EAD519EFB1F8
:1078A000B8F1000F1AD0B048007A032814D1AE48BE
:1078B000808A401CAC4988820846808A32280BDBCB
:1078C0000846C07E40B90120C8760872002088832F
:1078D000A649087000F060FABDE8FE83A248007A6D
:1078E00070B9A148807F01280AD146B102209E4983
:1078F0008877012008728876C87600F04DFAEBE7A9
:1079000000240EB101240BE00FB1022408E0B8F10D
:10791000000F01D0032403E0B9F1000F00D00424CC
:10792000002C7CD09048807EA04209D000208E4957
:107930008882C876084684760020C882FA200883A8
:107940008948808A401C88498882042C49D108468D
:10795000808AB0F57A7F44DB0846C07EF0BB012008
:10796000C8760846007A012819D102200872084614
:10797000407928B90846C0887D4951F8200004E0C4
:107980007948C0887B4951F820007749C8600020B9
:1079900048720846007C8883002008741DE0724805
:1079A000007A022819D17048407938B96E48C06809
:1079B0006D49C9886E4A42F8210006E06A48C068ED
:1079C0006949C9886B4A42F8210000F0D5F8664839
:1079D000007F654908740020888300E001E000F022
:1079E000DBF96148007A032827D05F48808AB0F528
:1079F0007A7F22DB022C01D0032C1ED15A48C08A88
:107A0000401C5949C8820846C08A098B8842F0DB6D
:107A100000205549C882022C02D1012101E00DE06D
:107A200000210846FFF7BAFD4F48008B1E2804DDF1
:107A30004D48008B0F384C49088391E04A48807EBE
:107A40000028FAD04848C07E002875D14648808A70
:107A5000142871DB4448007A03287DD04248807E98
:107A6000012806D002281ED0032820D0042872D175
:107A700021E03D48007A022808D101203A490872E5
:107A80000846007F08740020888309E03648407962
:107A900008B9012000E00020334948710020C88067
:107AA00000F07AF957E00120FFF778FD53E000205D
:107AB000FFF774FD4FE02C48007A01280AD12A48CC
:107AC000007C401CC0B228490874022842DD002016
:107AD00008743FE02448007A02283BD12248C2883B
:107AE0004179684606F028F81F484079012811D1ED
:107AF0009DF80100F8B99DF80200012827D11A4825
:107B0000407A401CC0B21849487202281FDD00208C
:107B100048721CE09DF8010078B99DF80200012828
:107B20000BD11148407A401CC0B20F49487202285C
:107B30000DDD002048720AE00EE00B48007C401C7E
:107B4000C0B209490874032801DD0020087400F060
:107B500023F900BF00BF00BF002003498876888258
:107B600000BFB9E610040048FC0A00205B000020BA
:107B7000240B0020140C002008B504200D490872C5
:107B8000002048844FF480500B4908600BA0006827
:107B900000900A2302226946094802F09FFB4FF435
:107BA0008050054910390860052001F0EFF806F013
:107BB0000BF808BDFC0A00202804004800FF000064
:107BC000600000203EB5684800786849097888421E
:107BD0001AD06548007840B10320654908726248B0
:107BE0000078888300F0D8F80AE06148007A03281A
:107BF00006D101205E4908720020888300F0CCF88D
:107C000059480078594908705748007858B1584881
:107C1000007A032807D0032055490872524800789B
:107C2000888300F0B9F85248007A40B9FFF7ACFDFC
:107C30004F48807F012804D1FFF724FE01E0FFF7C1
:107C400021FE4B484B490978405CFE2801D1FE24B7
:107C500005E0474847490978405C47490C5C44487F
:107C6000007A032805D143480078022801D104F0A6
:107C70007F043F48408A401C3D4948820846408A6C
:107C8000B0F5C87F01DB002048823948007A04281B
:107C90001DD13748408C401C354948840846408CEB
:107CA000B0F5966F05DB002048840120087200F0D3
:107CB00073F82F49498C4FF4967291FBF2F000EB68
:107CC000D0714910A0EB410109B92B48447C2848E8
:107CD000007AB8B32648007A032806D12448408A9F
:107CE000C8282FDB2448447C2CE0FF252048007A5C
:107CF000012802D11E48057C19E01D48007A02289F
:107D000015D11B484079012801D1FF250FE0184803
:107D1000C2884179684605F00FFF9DF8010018B947
:107D20009DF80200012801D01148057C00BF1148D0
:107D30000078A84205D10E48408AC82801DA04F02C
:107D40007F0400BF0D480B4A1278815C2046FFF784
:107D5000D5FC08480078401CC0B2064908700528C8
:107D600001DB002008703EBD5B0000203B000020CE
:107D7000FC0A00203A00002064FE000880FE000893
:107D800010B504460348848303200249087200F0BA
:107D900003F810BDFC0A00203EB57F48007A00B908
:107DA0003EBD112205217C48FDF7A4FD7A48007AEA
:107DB00003281AD11520784908711720C8708870D7
:107DC0000846808B0A2190FBF1F090FBF1F201FB59
:107DD0001200714948700846808B0A2190FBF1F22D
:107DE00001FB12006C490870DAE76B48007A012841
:107DF00030D16948407908B9142000E00D20664967
:107E000008710846407908B90A2000E01420624948
:107E1000C8700846C088642190FBF1F00A2190FBED
:107E2000F1F201FB12005C4988700846C0880A2103
:107E300090FBF1F090FBF1F201FB12005649487003
:107E40000846C0880A2190FBF1F201FB120052495A
:107E50000870A5E75048C2884179684605F06CFE75
:107E60004D48C4689DF8010001280FD112204A49ED
:107E70000871002007E0810044FA01F101F00F01D0
:107E8000454A1154401C0428F5DB82E09DF80100AE
:107E900002280ED10B2040490871002006E044FA68
:107EA00000F101F001013C4A1154401C0428F6DBAA
:107EB0006FE0002C01DA614200E0214608469DF89F
:107EC0000210B1B9002C01DA102100E01121324A70
:107ED000117100210AE00A22B0FBF2F302FB130247
:107EE0002D4B5A540A22B0FBF2F0491C0429F2DB54
:107EF0004EE02949497A91B91621274A117100218A
:107F00000AE00A22B0FBF2F302FB1302224B5A549E
:107F10000A22B0FBF2F0491C0429F2DB38E01E49CA
:107F2000497A012916D110211B4A117142F21071B0
:107F3000B0FBF1F000210AE00A22B0FBF2F302FBF1
:107F40001302154B5A540A22B0FBF2F0491C0429C3
:107F5000F2DB1DE0FE21104A11711049B0FBF1F077
:107F600098B10A21B0FBF1F201FB12010A4A11702B
:107F70000A280DD30A21B0FBF1F10A22B1FBF2F37A
:107F800002FB1311044A517002E00021024A1170F1
:107F900000BF00BF04E70000FC0A002000E1F50577
:107FA00070470168096821F0040102681160704798
:107FB00010B5102001F002F810BD10B5202000F01F
:107FC000FDFF402000F0FAFF802000F0F7FF10BD19
:107FD0000168096841F004010268116070470000FF
:107FE00010B50848006800F4005048B105484068E2
:107FF00040F40050034948600348008800F018F836
:1080000010BD0000000002404000002000B50748FD
:10801000006800F4003038B10448406840F4003093
:108020000249486000F0D6F800BD000000000240A0
:1080300010B504460A48406C20F003000849486423
:108040000848006820F0400006490860064804809F
:108050000320064908702146054800F0F9F910BDD3
:1080600000000240084800403E0000203C00002084
:10807000240D002070B505460C46164610480078C1
:10808000012803D00E480078022800D170BD202CB2
:1080900000DD2024224629460A48FDF7E6FB0A486F
:1080A0000680002009490880012005490870082041
:1080B000074908602146034800F05AF800BFE5E789
:1080C0003C000020040D0020400000203E00002065
:1080D0001804004870B5044601F0FCFC05460A4847
:1080E000006820F001000849086005EB5400B0FB6F
:1080F000F4F005490C3108600348006840F00100C5
:108100000149086070BD000000480040164A526CEA
:1081100022F00102144B5A649A145A600E22134B37
:108120001A601A1D104BDA641A46106591640F4AE2
:10813000183A126842F040020C4B183B1A600B4A86
:10814000203A126842F00402084B203B1A60064AAB
:10815000526C22F00C02044B5A641A46526C42F0E4
:1081600003025A64704700000000024020480040AB
:10817000164A926D22F00102144B9A654FF4803238
:108180005A60134A1A661A465066D1654022104B4F
:10819000083B1A600E4A203A126842F080020C4BEB
:1081A000203B1A600A4A283A126842F00802084B3B
:1081B000283B1A60054A926D22F00C02034B9A6527
:1081C0001A46926D42F003029A6570470000024021
:1081D000284800400C48806D20F003000A4988655B
:1081E0000A48006820F080000849086040200749DC
:1081F0001831086005480838006840F0400003491D
:10820000083908607047000000000240084800403C
:1082100010B51248006800F04000F0B140200F494E
:10822000091D08600D481C38006820F040000B490B
:108230001C39086008200A4908600A48008800289C
:1082400008DD022008490870064801880748FFF742
:108250005DFF02E003200449087010BD1C48004087
:1082600028040048400000203C000020240D00208D
:1082700010B50246002002E012F8013B58400B1EE8
:10828000A1F10104E1B2F7D110BD000010B506491B
:108290004868FFF71FFF0448D0ED020AB0EE600AFD
:1082A00006F09EFA10BD0000440000200146FF29A0
:1082B00001DC01207047B1F5007F04DBB1F5006FF0
:1082C00001DA0120F6E70020F4E710B50446FF2CA0
:1082D00003DC2046FEF71CFF10BDB4F5007F06DB73
:1082E000B4F5407F03DA204604F08CF8F4E7B4F5E7
:1082F000407F06DBB4F5806F03DA204604F05CFFB4
:10830000EAE7B4F5806F06DBB4F5A06F03DA204628
:1083100003F002F8E0E7B4F5A06F06DBB4F5C06F38
:1083200003DA204605F0D2F9D6E7B4F5C06F06DBD4
:10833000B4F5E06F03DA204606F09AFBCCE7B4F51B
:10834000E06F06DBB4F5006F03DA204605F02CFE83
:10835000C2E74FF6FF70BFE770B504460D46FF2C2D
:1083600004DC29462046FEF7F7FE70BDB4F5007F19
:1083700007DBB4F5407F04DA2946204604F0BAF85A
:10838000F3E7B4F5407F07DBB4F5806F04DA2946E4
:10839000204604F095FFE8E7B4F5806F07DBB4F5FD
:1083A000A06F04DA2946204602F0E6FFDDE7B4F5C7
:1083B000A06F07DBB4F5C06F04DA2946204605F04C
:1083C000ADF9D2E7B4F5C06F07DBB4F5E06F04DABE
:1083D0002946204606F08CFBC7E7B4F5E06F07DBC3
:1083E000B4F5006F04DA2946204605F00DFEBCE71F
:1083F0000120BAE710B5022012490870124890F81F
:10840000760112490870104890F8770140F080001A
:1084100048700C48007840F05000887003210B48E9
:1084200003F06AFF04460949CC70200A0871084627
:10843000C1F80402052180F8081200F5017007F068
:10844000ADF910BD5B0000201008002004040020DE
:1084500070B505460C462A48007807284DD2DFE85B
:1084600000F04C04101C28344000224629462548C0
:10847000FDF7FBF92349103981F8504004F064F905
:108480003CE0224629462048FDF7EFF91E491639FF
:1084900081F82A4004F064FF30E0224629461B4858
:1084A000FDF7E3F91949163981F8264002F0B4FFC7
:1084B00024E0224629461648FDF7D7F91449123917
:1084C00081F8224005F05CF918E02246294611485F
:1084D000FDF7CBF90F49123981F8224006F098FBDD
:1084E0000CE0224629460C48FDF7BFF90A498039BD
:1084F00081F8804105F0FCFD00E000BF00BF70BDC9
:1085000044000020740D002062130020221100207E
:10851000C6150020F21900206818002010B5184870
:108520000078072828D2DFE800F02704090E131886
:108530001D001449087804F099FC1EE011490878E0
:1085400005F056F819E00F49087803F0D7F814E061
:108550000C49087805F092FA0FE00A49087806F00D
:10856000D1FC0AE0084890F8830120B1064991F84F
:10857000860105F0C3FE00E000BF00BF10BD000093
:1085800044000020E0100020E81700200D4800788B
:10859000062814D2DFE800F01303070A0D100A487A
:1085A00090F85A0070470948C078FBE70848C0783F
:1085B000F8E70848C078F5E70748C078F2E70020F8
:1085C000F0E7000044000020640D00204C13002060
:1085D0000C110020B4150020E01900200C48007890
:1085E000062813D2DFE800F0120306090C0F094831
:1085F000406D704708488068FBE708488068F8E7E6
:1086000007488068F5E707488068F2E70020F0E750
:1086100044000020640D00204C1300200C110020A9
:10862000B4150020E019002010B50120124908708F
:10863000124890F8760112490870104890F87701B6
:1086400040F0800048700C48007840F0500088707E
:1086500003210B4803F050FE04460949CC70200A60
:1086600008710846C1F80402052180F8081200F5D7
:10867000017007F093F810BD5B0000201008002087
:108680000404002072B600BFFEE700001B49087F0B
:10869000012801D0032816D11949096821F4007175
:1086A000174A116000BF1146096841F4006111606A
:1086B0001146096821F40061116000BF1146096884
:1086C00041F400711160022801D0032811D100BFCC
:1086D0000B49096841F48051094A11601146096843
:1086E00021F48051116000BF1146096841F4806196
:1086F00011600021014A117770470000140000202A
:108700000020024000F0010129B10649496941F009
:108710000401044A51610349496941F48031014A25
:108720005161704700200240084A526960F3CA0252
:10873000064B5A611A46526942F002025A611A46C1
:10874000526942F480325A617047000000200240B2
:1087500010B50849496941F00101064C61610260A8
:1087600000BF00BF00BFBFF36F8F00BF00BF00BFDF
:10877000436010BD00200240F0B50246402314467D
:108780000D460C4E766946F480260A4F7E6100BF86
:10879000EFF31086304672B600BF2E682660241DA7
:1087A0002D1D5E1EF3B2002BF7D100BF80F31088A1
:1087B00000BFF0BD0020024070B5054600F000FD8E
:1087C000064606E000F0FCFC801BA84201D903200D
:1087D00070BD1A48006900F48030B0F5803FF1D0D8
:1087E000164800694CF2FA3100EA0104CCB1144891
:1087F000406820431249486000BF04F0404030B157
:108800000E48806904F0404108430C49886124F017
:10881000404018B124F040400849086100BF0120E1
:10882000D6E70648006900F0010020B100BF012032
:108830000249086100BF0020CAE700000020024092
:108840001400002010B586B0044600F09DFB002007
:10885000029001200390A4F10060C00A049001205E
:10886000059001A902A800F09DFA00F01DFB06B0DA
:1088700010BD00002DE9F04F87B006460F462B498A
:1088800003C9CDE90501002004900390804600252E
:1088900034E005A850F825404FF0000929E0D4F84D
:1088A00000A0D4F804B00AF1010000B924E0BAF144
:1088B000A53F1AD104F1080002903946029805F04C
:1088C00035FE0190D4F8F8000090DDE900108842F0
:1088D0000AD1B8F1000F02D00498834504D9CDF82D
:1088E00010B003944FF0010800BF04F5807409F143
:1088F0000109B9F1080FD2D300BF6D1C022DC8DBEE
:10890000B8F1000F0FD0039800F10801002004E037
:1089100051F8202046F82020401CB842F8DB002007
:1089200007B0BDE8F08F0120FAE7000088FE0008DC
:108930002DE9FC5F07468846374903C9CDE90001A8
:1089400000256C1E002600202AE05DF82010002281
:1089500022E00B68D1F804C0B3F1A53F04D1AC45C7
:1089600017D36546044614E003F1010ABAF1000F7B
:108970000FD1844204D004F1010ABAF1000F07D1EB
:108980000E4604F1010ABAF1000F00D104460AE0D4
:1089900004E001F58071521C082ADAD300BF401CA4
:1089A0000228D2DB00BF601C80B90024009E009822
:1089B000FFF748FF0198FFF745FF002543463A4679
:1089C0000121304600F02AF8BDE8FC9F5DF8240044
:1089D00000F500691EB106F58070484514D90CB940
:1089E000012000E0002083465DF82BA05046FFF7F1
:1089F00029FF43463A46691C504600F00FF85DF8DF
:108A00002400FFF71FFFDFE743463A46691C304664
:108A100000F004F800BFD7E790FE00082DE9F04F02
:108A200087B007460C469046994600F0ADFA002004
:108A30004FF0A532014610432143CDE904013946E8
:108A40000020DDE9042300F03FFA0837002519E093
:108A500058F825B0681C484502DA58F8200001E0B3
:108A60004FF0FF3006460020014640EA0B0031433C
:108A7000CDE9000139460020DDE9002300F024FAA9
:108A80000837AD1C4D45E3DB4946404605F04EFD39
:108A9000824600234AEA03005B1ECDE90203394601
:108AA0000020DDE9022300F00FFA00F0FDF907B025
:108AB000BDE8F08F0146002091F82520022A03D05E
:108AC0000422CA63012027E00A68126822F00E021D
:108AD0000B681A608A6C126822F480728B6C1A60C0
:108AE0000A68126822F001020B681A6091F84420AB
:108AF00002F01F0301229A400B6C5A60D1E9133235
:108B00005A604A6D42B14A6D126822F480724B6D10
:108B10001A60D1E916325A60012281F8252000BF7F
:108B2000002281F8242000BF704770B5044600255C
:108B300094F8250002280BD00420E063012084F87B
:108B4000250000BF002084F8240000BF012534E088
:108B50002068006820F00E00216808602068006826
:108B600020F0010021680860A06C006820F480708B
:108B7000A16C086094F8440000F01F0101208840B7
:108B8000216C4860D4E913104860606D40B1606D9D
:108B9000006820F48070616D0860D4E916104860A8
:108BA000012084F8250000BF002084F8240000BFC5
:108BB000A06B10B12046A16B8847284670BD70B5E8
:108BC0000446206C05682068066894F8440000F0AC
:108BD0001F01042088402840E0B106F00400C8B11D
:108BE0002068006800F0200028B92068006820F0A4
:108BF00004002168086094F8440000F01F0104207C
:108C00008840216C4860206B002856D02046216B9C
:108C1000884752E094F8440000F01F010220884089
:108C2000284018B306F0020000B32068006800F086
:108C3000200040B92068006820F00A002168086020
:108C4000012084F8250094F8440000F01F01022060
:108C50008840216C486000BF002084F8240000BFD9
:108C6000E06A50B32046E16A884726E094F8440061
:108C700000F01F01082088402840F0B106F00800ED
:108C8000D8B12068006820F00E002168086094F8D0
:108C9000440000F01F0101208840216C4860012041
:108CA000E06384F8250000BF002084F8240000BFA2
:108CB000606B10B12046616B884770BD70B504468B
:108CC0000CB9012070BD2F49206888420BD22E4973
:108CD0002068401A1421B0FBF1F0800060642A483B
:108CE000083820640AE027492068401A1421B0FBA4
:108CF000F1F080006064234808382064022084F882
:108D000025002068056847F6F0708543D4E9020124
:108D100008432169084361690843A1690843E1697F
:108D20000843216A08430543206805602046FEF792
:108D300001FCA068B0F5804F01D10020606020796F
:108D4000A16C0860D4E913104860606860B1606885
:108D5000042809D82046FEF70FFC0020616D08604A
:108D6000D4E91610486003E000206065A065E06566
:108D70000020E063012084F82500002084F824000E
:108D800000BF9FE7080402400800024010B50446F7
:108D900003E04FF47A7006F075FF201EA4F1010481
:108DA000F7D110BD2DE9F04104460F4600BF3C4805
:108DB0000078012802D10220BDE8F0810120384965
:108DC000087000BF4FF47A70FFF7F6FC0646002EDD
:108DD0005ED1334948603348006800F4007090B1B8
:108DE0003048006800F4806048B12E48006820F4E4
:108DF00080602C49086003202949087715E001208C
:108E00002749087711E02748006800F4806048B1DE
:108E10002448006820F4806022490860022020492C
:108E2000087702E000201E490877206801280ED14B
:108E30006068FFF767FC4FF47A70FFF7BDFC0646E9
:108E40001848406920F00400164948611EE04FF0C0
:108E5000FF303860A56813E028466168FFF764FCBE
:108E60004FF47A70FFF7A8FC06460E48406940F2BE
:108E7000FA7188430B4948610EB13D6005E06D1CF5
:108E8000D4E902010844A842E6D800BFFFF7FEFB80
:108E900000BF00200249087000BF30468CE7000088
:108EA000140000200020024001200649496941F0D9
:108EB0000041044A51611146496901F0004101B184
:108EC00000207047002002402DE9F0470446884604
:108ED00015461E464FF0000900BF294800780128BA
:108EE00002D10220BDE8F08701202549087000BFAB
:108EF0004FF47A70FFF760FC0746002F38D1204905
:108F000048602048006800F4806048B11D4800684F
:108F100020F480601B49086002201949087702E0AC
:108F20000020174908773CB92A4633464046FFF7E8
:108F30000FFC4FF001090BE0012C01D0022C07D1EE
:108F400029464046FFF718FC022C01D14FF4802936
:108F50004FF47A70FFF730FC0746B9F1000F05D0E7
:108F60000848406920EA090006494861FFF78EFB7E
:108F700000BF00200249087000BF3846B2E7000079
:108F8000140000200020024000200849496901F037
:108F9000004151B10649054A916006499160114668
:108FA000496901F0004101B10120704700200240F1
:108FB00023016745AB89EFCD7047000010B504462B
:108FC00004480068204020B1024804602046FFF7B2
:108FD000F3FF10BD1404014078B502460B46002192
:108FE000CAE001268E401D6805EA0604002C73D0F5
:108FF0001D7905F00305012D04D01D7905F0030549
:10900000022D13D190684E000325B540A8434E00B1
:10901000DD68B54028439060506801258D40A84325
:109020001D79C5F300158D40284350601D7905F06A
:109030000305032D09D0D0684E000325B540A84391
:109040004E009D68B5402843D0601D7905F00305AA
:10905000022D13D1CE0802F1200555F826004D0748
:10906000EE0E0F25B540A8434E07F60E1D69B5401C
:109070002843CE0802F1200545F8260010684E006E
:109080000325B540A8431D7905F003054E00B54002
:10909000284310605D6805F44035002D6BD000BF9B
:1090A000384D2D6E45F00105364E356635462D6E30
:1090B00005F00105009500BF00BF4FEAB6358E08E8
:1090C00055F826008D072E0F0F25B540A843B2F1A5
:1090D000904F02D100251AE04DE02B4DAA4201D15C
:1090E000012514E0294DAA4201D102250FE0284DA7
:1090F000AA4201D103250AE0264DAA4201D1042546
:1091000005E0254DAA4201D1052500E006258E0780
:10911000360FB5402843214D8E0845F82600204DD6
:109120002868A0435D6805F4801505B120431C4DF7
:1091300028602D1D2868A0435D6805F4001505B161
:109140002043174D2D1D2860154D2D1F2868A04365
:109150005D6805F4003505B12043114D2D1F2860D1
:109160002D1F2868A0435D6805F4803505B12043B4
:109170000B4D083D2860491C1D68CD40002D7FF433
:1091800030AF78BD001002400004004800080048DD
:10919000000C00480010004800140048080001407E
:1091A00008040140024613690B400BB1012000E0A6
:1091B000002070470AB1816100E0816270470000C1
:1091C000014800687047000008000020034800685C
:1091D00003490968084401490860704708000020F5
:1091E0001000002010B50024032000F0ABF80F2081
:1091F00000F008F808B1012401E000F02FF8204643
:1092000010BD000070B50446002511480068D8B1B3
:109210000F4800684FF47A71B1FBF0F00D4909680E
:10922000B1FBF0F6304601F055F958B9102C07D2D1
:1092300000222146501E00F047F80748046004E071
:10924000012502E0012500E00125284670BD00004F
:1092500010000020340000200C00002008B500BFE2
:109260000E48006E40F001000C4908660846006E8A
:1092700000F00100009000BF00BF00BF0846806DF5
:1092800040F0805088650846806D00F08050009066
:1092900000BF00BF00F0F6F808BD0000001002405B
:1092A0000146084600280DDB00BF00BF00F01F0389
:1092B00001229A4043099B0003F1E023C3F80021F7
:1092C00000BF00BF00BF70472DE9F05F80460D462C
:1092D000164606F0B3FC074639462A46334601F0E7
:1092E0000700C0F1070ABAF1040F02D94FF0040ACF
:1092F00001E0C0F1070AD14600F1040ABAF1070FF4
:1093000002D24FF0000A01E0A0F1030AD4464FF068
:10931000010A0AFA09FAAAF1010A0AEA020A0AFA91
:109320000CFA4FF0010B0BFA0CFBABF1010B0BEA43
:10933000030B4AEA0B042146404606F087FCBDE8D1
:10934000F09F000000BF00F00702064B19684FF6BF
:10935000FF031940044B0B4343EA0221014B196000
:1093600000BF70470CED00E00000FA0502468ABB22
:109370004148006800F4C060B0F5806F2BD13E48D2
:109380008030006820F480703B4BC3F880001846A2
:10939000006820F4C06040F400701860374800682E
:1093A00032235843364BB0FBF3F0411C00E0491E1A
:1093B0003148406900F48060B0F5806F01D1002928
:1093C000F5D12D48406900F48060B0F5806F51D12F
:1093D0000320704708E028488030006820F480703F
:1093E000254BC3F8800045E0B2F5007F3AD1224812
:1093F000006800F4C060B0F5806F2AD11E4880304C
:10940000006840F480701C4BC3F880001846006868
:1094100020F4C06040F400701860184800683223DF
:109420005843174BB0FBF3F0411C00E0491E1248B3
:10943000406900F48060B0F5806F01D10029F5D15A
:109440000D48406900F48060B0F5806F12D10320B0
:10945000BFE709488030006840F48070064BC3F8CD
:10946000800007E00448006820F4C06040F4806099
:10947000014B18600020ACE7007000403400002071
:1094800040420F000348806840F4804001498860F2
:1094900070470000007000400348006840F480708E
:1094A0000149086070470000007000402DE9F84352
:1094B00004460026B046206800F40020B0F5002FD6
:1094C00073D1B146F548806D00F0805078B900BF87
:1094D000F248806D40F08050F04988650846806D04
:1094E00000F08050009000BF00BF4FF00109EC4831
:1094F000006840F48070EA490860FFF761FE0746A3
:1095000006E0FFF75DFEC01B022801D9032605E037
:10951000E348006800F480700028F2D000BF002EFD
:1095200046D1DE489030006800F44075CDB1E06C63
:10953000A84216D0D9489030006820F44075D7482A
:10954000D0F8900040F48030D449C1F8900008462B
:10955000D0F8900020F48030C1F890000846C0F8A0
:10956000905005F00100A0B1FFF72AFE074608E081
:10957000FFF726FEC01B41F28831884201D903263D
:1095800006E0C6489030006800F002000028EFD0E6
:1095900000BF5EB9C1489030006820F44070E16CB3
:1095A0000843BE49C1F8900003E00CE0B04600E07B
:1095B000B046B9F1010F05D1B848806D20F0805058
:1095C000B649886500BF207800F0010048B1B34873
:1095D0008830006820F0030061680843AF49C1F893
:1095E0008800207800F00200022809D1AB488830BA
:1095F000006820F00C00A1680843A849C1F8880061
:10960000207800F00400042809D1A44888300068BC
:1096100020F03000E1680843A049C1F888002078B4
:1096200000F00800082809D19C488830006820F024
:10963000C000216908439949C1F88800207800F0EA
:109640001000102809D195488830006820F4407037
:10965000616908439149C1F88800207800F0200032
:10966000202809D18D488830006820F44060A16925
:1096700008438A49C1F88800207800F0400040285B
:1096800009D186488830006820F44050E1690843D9
:109690008249C1F88800207800F08000802809D134
:1096A0007E488830006820F44040216A08437B49A6
:1096B000C1F88800208800F48070B0F5807F09D15F
:1096C00076488830006820F44030616A0843734966
:1096D000C1F88800208800F40070B0F5007F09D13F
:1096E0006E488830006820F44020A16A08436B4926
:1096F000C1F88800208800F48060B0F5806F13D135
:1097000066488830006820F44010E16A08436349E5
:1097100088310860E06AB0F5801F05D15F48C068F5
:1097200040F480105D49C860208800F40060B0F506
:10973000006F13D159488830006820F44000216B35
:109740000843564988310860206BB0F5800F05D179
:109750005248C06840F480105049C860208800F426
:109760008050B0F5805F13D14C488830006820F0FD
:109770004070616B0843494988310860606BB0F103
:10978000807F05D14548C06840F480104349C860D7
:10979000208800F40050B0F5005F13D13F488830B6
:1097A000006820F04060A16B08433C4988310860A4
:1097B000A06BB0F1006F05D13848C06840F480104C
:1097C0003649C860208800F48040B0F5804F13D13E
:1097D00032488830006820F04060E16B08432F4930
:1097E00088310860E06BB0F1006F05D12B48C0688C
:1097F00040F480102949C860208800F40040B0F58A
:10980000004F13D125488830006820F04050216C6B
:109810000843224988310860206CB0F1805F05D18F
:109820001E48C06840F480301C49C860206800F4BD
:109830008030B0F5803F13D118488830006820F0A0
:109840004040616C0843154988310860606CB0F194
:10985000804F05D11148C06840F480300F49C8607E
:10986000206800F48020B0F5802F13D10B489C3085
:10987000006820F44010A16C084308499C3108603E
:10988000A06CB0F5001F05D10448C06840F48010FA
:109890000249C8604046BDE8F8830000001002405D
:1098A000007000402DE9F04104460D464FF00008DD
:1098B00014B90120BDE8F0817D48006800F00F0078
:1098C000A8420ED27A48006820F00F002843784959
:1098D00008600846006800F00F00A84201D001208F
:1098E000E8E7207800F00100002864D060680328D1
:1098F00023D17048006800F0007008B90120D9E752
:1099000004F06CF906466C48864237D9694880688D
:1099100000F0F00030B1207800F0020002282DD1D4
:10992000A06858BB6348806820F0F00040F08000D9
:10993000604988604FF0800820E06068022806D106
:109940005C48006800F4003040B90120B2E7594893
:10995000006800F4806008B90120ABE700F0DEF891
:1099600006465548864209D95248806820F0F000E2
:1099700040F080004F4988604FF080084D48806873
:1099800020F00300616808434A498860FFF718FC2B
:10999000074608E0FFF714FCC01B41F288318842FB
:1099A00001D9032086E74348806800F00C00616815
:1099B000B0EB810FEED1207800F00200022820D118
:1099C000207800F00400042805D13A48806840F46B
:1099D000E06038498860207800F00800082807D146
:1099E0003448806820F4605040F4E0603149886079
:1099F0003048806820F0F000A16808432D49886055
:109A000008E0B8F1800F05D12A48806820F0F00006
:109A1000284988602648006800F00F00A84219D93C
:109A20002348006820F00F00284321490860FFF711
:109A3000C7FB074608E0FFF7C3FBC01B41F28831B4
:109A4000884201D9032035E71948006800F00F006B
:109A5000A842F0D1207800F00400042807D115486E
:109A6000806820F4E060E16808431249886020784B
:109A700000F00800082808D10E48806820F46050E3
:109A8000216940EAC1000B49886000F047F80949A4
:109A90008968C1F30311094A515C01F01F01C840F4
:109AA0000749086007480068FFF7ACFB02E70000C1
:109AB000002002400010024000B4C4041AFE000856
:109AC000340000200C0000200148006870470000AE
:109AD0003400002000B5FFF7F7FF05498968C1F39E
:109AE0000221044A515C01F01F01C84000BD000082
:109AF000001002402AFE000800B5FFF7E5FF054907
:109B00008968C1F3C221044A515C01F01F01C840B9
:109B100000BD0000001002402AFE000870B5224D72
:109B2000AD6805F00C05042D01D120483AE01E4D2A
:109B3000AD6805F00C05082D01D11C4832E01A4D26
:109B4000AD6805F00C050C2D2BD1174DED6805F017
:109B50000304154DED68C5F303156A1C022C0CD0E7
:109B6000032C09D1114DB5FBF2F50F4EF668C6F383
:109B7000062605FB06F10AE000BF0C4DB5FBF2F529
:109B8000094EF668C6F3062605FB06F100BF00BFC6
:109B9000054DED68C5F341656D1C6B00B1FBF3F03D
:109BA00000E0002070BD0000001002400024F4001E
:109BB0002DE9F843044614B90120BDE8F883207864
:109BC00000F00100002865D0FC48806800F00C0718
:109BD000FA48C06800F003060C2F01D1032E01D013
:109BE000082F0AD1F548006800F40030002851D051
:109BF000606800284ED10120DFE700BF6068B0F543
:109C0000803F06D1ED48006840F48030EB490860A1
:109C10001AE06068B0F5A02F0BD1E848006840F466
:109C20008020E64908600846006840F480300860FB
:109C30000AE0E248006820F48030E0490860084605
:109C4000006820F48020086000BF606888B1FFF7DA
:109C5000B7FA054606E0FFF7B3FA401B642801D9BE
:109C60000320AAE7D548006800F400300028F2D0AD
:109C700010E0FFF7A5FA054606E0FFF7A1FA401B42
:109C8000642801D9032098E7CC48006800F400302C
:109C90000028F2D1207800F00200022860D1C748E5
:109CA000806800F00C07C548C06800F003060C2F60
:109CB00001D1022E01D0042F18D1C048006800F451
:109CC000806018B1E06808B9012076E7BB484068B9
:109CD00020F0FE40217C40EA0160B8494860B84865
:109CE0000068FFF78FFA18B3012066E7E06800B359
:109CF000B248006840F48070B0490860FFF760FA2D
:109D0000054606E0FFF75CFA401B022801D9032054
:109D100053E7AA48006800F480600028F2D0A74802
:109D2000406820F0FE40217C40EA0160A349486081
:109D300016E0A248006820F48070A0490860FFF790
:109D40003FFA054606E0FFF73BFA401B022801D91F
:109D5000032032E79948006800F480600028F2D1BF
:109D6000207800F00800082836D16069D0B1934807
:109D70009430006840F001009049C1F89400FFF76A
:109D80001FFA054606E0FFF71BFA401B022801D91F
:109D9000032012E789489430006800F00200002890
:109DA000F1D019E085489430006820F00100834923
:109DB000C1F89400FFF704FA054606E0FFF700FA41
:109DC000401B022801D90320F7E67C489430006844
:109DD00000F002000028F1D1207800F004000428EF
:109DE00072D14FF000087548806D012121EA107092
:109DF00078B100BF7148806D40F080506F49886530
:109E00000846806D00F08050009000BF00BF4FF00A
:109E100001086C48006800F48070B0B969480068B7
:109E200040F4807067490860FFF7CAF9054606E00C
:109E3000FFF7C6F9401B022801D90320BDE661489F
:109E4000006800F480700028F2D000BFA0680128EC
:109E500008D15A489030006840F001005749C1F8D5
:109E6000900021E0A06805280FD154489030006888
:109E700040F004005149C1F890000846D0F8900025
:109E800040F00100C1F890000EE04C4890300068AE
:109E900020F001004949C1F890000846D0F8900030
:109EA00020F00400C1F8900000BFA068A8B1FFF73F
:109EB00087F9054609E0FFF783F9401B41F2883135
:109EC000884202D9032078E625E03C4890300068BB
:109ED00000F002000028EED013E0FFF771F905460C
:109EE00008E0FFF76DF9401B41F28831884201D943
:109EF000032062E631489030006800F0020000283C
:109F0000EFD1B8F1010F05D12C48806D20F08050C1
:109F10002A49886500BF207800F02000202836D12B
:109F2000A069D0B125489830006840F0010023496D
:109F3000C1F89800FFF744F9054606E0FFF740F93D
:109F4000401B022801D9032037E61C4898300068DE
:109F500000F002000028F1D019E01848983000689D
:109F600020F001001549C1F89800FFF729F90546CE
:109F700006E0FFF725F9401B022801D903201CE663
:109F80000E489830006800F002000028F1D1E06926
:109F9000002860D00948806800F00C000C287AD0B6
:109FA000E069022858D10548006820F08070034914
:109FB0000860FFF705F905460DE0000000100240BB
:109FC0000C00002000700040FFF7FAF8401B022848
:109FD00001D90320F1E54A48006800F0007000282C
:109FE000F2D1D4E90810401E41EA0011A06A41EA0A
:109FF0000021208E0122C2EB500041EA4051342062
:10A00000005DC2EB500041EA40612C20005D41EA56
:10A01000C0603B49C9683B4A114008433849C860A1
:10A020000846006840F0807008600846C06840F04C
:10A030008070C860FFF7C4F8054606E0FFF7C0F877
:10A04000401B022801D90320B7E52D48006800F025
:10A0500000700028F2D051E02948006820F080709C
:10A0600027490860FFF7ACF8054606E0FFF7A8F8B7
:10A07000401B022801D903209FE52148006800F019
:10A0800000700028F2D11E48C0681F4908401C49D2
:10A09000C86033E0FFE7E069012800D18DE518488A
:10A0A000C66806F00301206A814225D106F0F0015E
:10A0B000606A401EB1EB001F1ED106F4FE41A06A8B
:10A0C000B1EB002F18D106F078412C20005DB1EBE8
:10A0D000C06F11D106F4C001208E0122C2EB5000E6
:10A0E000B1EB405F08D106F0C0613420005DC2EBE7
:10A0F0005000B1EB406F01D001205EE500205CE52F
:10A10000001002400C809F01FCFFEEFE70B504467B
:10A110000CB9012070BD606A38B96068B0F5827F03
:10A1200000D105E00021E16102E0002121616161CF
:10A130000021A16294F85D0028B9002084F85C0039
:10A14000204600F061F8022084F85D002068006875
:10A1500020F0400021680860E068B0F5E06F01D9A8
:10A16000002501E04FF48055E068B0F5706F05D030
:10A17000E068B0F5E06F01D00021A162A08800F492
:10A180008270218901F404410843217C01F002011D
:10A190000843217D01F001010843218B01F4007186
:10A1A0000843217F01F0380108432021095D01F0B7
:10A1B00080010843218D01F40051084321680860A3
:10A1C0000421A06901EA104094F8241001F0100164
:10A1D000084394F8341001F008010843A18901F400
:10A1E0007061084305F48051084321684860206885
:10A1F000C06920F400602168C86100202066012049
:10A2000084F85D00002085E710B586B0044614216F
:10A2100001A8FBF799FB2C492068884252D100BF66
:10A220002A48806D40F48040284988650846806D42
:10A2300000F48040009000BF00BF00BF0846C06C23
:10A2400040F00200C8640846C06C00F002000090B4
:10A2500000BF00BF4FF42040019002200290002078
:10A260000390032004900520059001A91848FEF7EB
:10A27000B3FE4FF480400190022002900020039032
:10A2800004900520059001A91148FEF7A5FE11488C
:10A29000114908600D20486010210F48816000219D
:10A2A000C16080210161002141618161C161016260
:10A2B000FEF704FD08B1FEF7E5F900BF064860654A
:10A2C000846200BF06B010BD00380040001002409C
:10A2D0000004004808000240C40000202DE9F84FA7
:10A2E0000446884616461D464FF0000A00BF94F803
:10A2F0005C00012802D10220BDE8F88F012084F81B
:10A300005C0000BFFEF75CFF0746B14694F85D00B5
:10A31000012802D04FF0020AD5E0B8F1000F00D0BA
:10A3200016B94FF0010ACEE0032084F85D0000204A
:10A330002066C4F83880A687E6872064A4F8440025
:10A34000A4F846002065E064A068B0F5004F0BD18A
:10A350002068006820F040002168086020680068DC
:10A3600040F48040216808602068006800F04000E8
:10A37000402805D02068006840F04000216808604F
:10A38000E068B0F5E06F32D9606810B1B9F1010F43
:10A3900009D1A06B00882168C860A06B801CA063F5
:10A3A000E08F401EE0871EE02068806800F0020019
:10A3B00002280AD1A06B00882168C860A06B801CAD
:10A3C000A063E08F401EE0870DE0FEF7F9FEC01BA2
:10A3D000A84201D3681C00B92DB94FF0030A01202F
:10A3E00084F85D006FE0E08F0028DDD14DE060680B
:10A3F00010B1B9F1010F17D1E08F01280AD9A06B74
:10A4000000882168C860A06B801CA063E08F801E5C
:10A41000E08709E0A06B007821680873A06B401CFE
:10A42000A063E08F401EE0872CE02068806800F089
:10A430000200022818D1E08F01280AD9A06B0088F9
:10A440002168C860A06B801CA063E08F801EE0873D
:10A4500018E0A06B007821680873A06B401CA06313
:10A46000E08F401EE0870DE0FEF7AAFEC01BA84269
:10A4700001D3681C00B92DB94FF0030A012084F8FC
:10A480005D0020E0E08F0028CFD13A4629462046E3
:10A4900003F060FC08B120202066A06850B900BF1E
:10A4A000002000902068C0680090206880680090BC
:10A4B00000BF00BF206E10B14FF0010A02E0012082
:10A4C00084F85D0000BF00BF002084F85C0000BF7E
:10A4D000504611E770B504462546681EB0F1807FEE
:10A4E00001D301200FE0681E4FF0E02148610F21E9
:10A4F0004FF0FF3005F0AAFB00204FF0E02188610B
:10A5000007200861002070BD704770477047704792
:10A510007047704730B502460B4600BF92F83C00CA
:10A52000012801D1022030BD012082F83C0000BF8B
:10A53000022082F83D001068416810688468214D4F
:10A540001068A84207D0204D1068A84203D01F4DC4
:10A550001068A84203D121F47001586801431C48D7
:10A5600001401868014310684160164D1068A84208
:10A5700017D01068B0F1804F13D0164D1068A84264
:10A580000FD0154D1068A8420BD00F4D1068A8428F
:10A5900007D0124D1068A84203D00C4D1068A84295
:10A5A00005D124F080049868044310688460012079
:10A5B00082F83D0000BF002082F83C0000BF00BFD1
:10A5C000B1E70000002C0140003401400050014080
:10A5D0008FFFFFFD000400400008004000400140E4
:10A5E000704710B504460CB9012010BD94F83D0029
:10A5F00028B9002084F83C00204600F029F8022009
:10A6000084F83D00211D206804F07CF9012084F8C5
:10A61000480000BF84F83E0001213F200155402042
:10A62000015541200155422001554320015500BFED
:10A6300000BF012084F84400452001554620015503
:10A640004720015500BF012084F83D000020CCE7E1
:10A6500038B504461A492068884216D100BF194807
:10A66000006E40F40060174908660846006E00F46A
:10A670000060009000BF00BF002202211920FEF7F9
:10A6800023FE1920FEF70CFE19E00F4920688842CE
:10A6900015D100BF0B48806D40F010000949886556
:10A6A0000846806D00F01000009000BF00BF00223F
:10A6B00003213620FEF708FE3620FEF7F1FD38BDF7
:10A6C000002C01400010024000100040014691F8AB
:10A6D0003D00012801D001207047022081F83D0093
:10A6E0000868C06840F001000B68D8601A4B086821
:10A6F000984217D00868B0F1804F13D0174B086804
:10A7000098420FD0164B086898420BD0154B08683A
:10A71000984207D0144B0868984203D0134B08683E
:10A72000984210D108688068114B00EA0302062A9B
:10A730000FD0B2F5803F0CD00868006840F00100EF
:10A740000B68186005E00868006840F001000B68BD
:10A7500018600020C0E70000002C01400004004009
:10A76000000800400034014000400140005001401A
:10A77000070001002DE9F04104460D46002700BF07
:10A7800094F83C00012802D10220BDE8F0810120AC
:10A7900084F83C0000BF022084F83D0020688668F1
:10A7A0004148064026F47F46206886602868B0F558
:10A7B000805F25D00CDC00F00F01002967D100116B
:10A7C000082864D2DFE800F0555657584B37411D32
:10A7D000364A811A904252D00BDCB0F5005F1DD092
:10A7E000B0F1101F49D0A0F58010203800284ED1BC
:10A7F00044E0102944D0202943D0402947D141E0EA
:10A8000047E0D5E902136A68206804F0EBF8206895
:10A81000866846F07706206886603AE0D5E902133C
:10A820006A68206804F0DEF82068806840F48040A0
:10A83000216888602DE0EA686968206804F0EAF819
:10A840005021206804F0DAF823E0EA68696820689B
:10A8500004F0F3F86021206804F0D0F819E0EA6809
:10A860006968206804F0D6F84021206804F0C6F832
:10A870000FE000BF00BF00BF00BF00BF00BF00BFB0
:10A8800000BF00BF2968206804F0B8F801E0012784
:10A8900000BF00BF012084F83D0000BF002084F805
:10A8A0003C0000BF384670E788FFCEFF3000100044
:10A8B000704770B504462068C6682068056905F0D1
:10A8C0000200022819D106F00200022815D1401F0B
:10A8D00021680861012020772068806900F003006A
:10A8E00018B12046FFF7E4FF05E0204600F0F1F83C
:10A8F000204600F0EFF80020207705F0040004283F
:10A9000019D106F00400042815D1C043216808615C
:10A91000022020772068806900F4407018B120463A
:10A92000FFF7C6FF05E0204600F0D3F8204600F010
:10A93000D1F80020207705F00800082819D106F08A
:10A940000800082815D1C043216808610420207739
:10A950002068C06900F0030018B12046FFF7A8FF87
:10A9600005E0204600F0B5F8204600F0B3F80020DE
:10A97000207705F01000102819D106F010001028DB
:10A9800015D1C04321680861082020772068C0697C
:10A9900000F4407018B12046FFF78AFF05E020461A
:10A9A00000F097F8204600F095F80020207705F099
:10A9B000010048B106F0010030B16FF001002168DC
:10A9C0000861204600F088F805F08000802804D057
:10A9D00005F40050B0F5005F0AD106F08000802831
:10A9E00006D16FF40250216808612046FFF78DFD03
:10A9F00005F48070B0F5807F0AD106F080008028D1
:10AA000006D16FF48070216808612046FFF77CFD55
:10AA100005F04000402809D106F04000402805D14B
:10AA2000C04321680861204600F088F805F0200046
:10AA3000202809D106F02000202805D1C043216834
:10AA400008612046FFF762FD05F48010B0F5801F15
:10AA50000BD106F48010B0F5801F06D16FF4801082
:10AA6000216808612046FFF753FD05F40010B0F59A
:10AA7000001F0BD106F40010B0F5001F06D16FF4D3
:10AA80000010216808612046FFF741FD05F48000B1
:10AA9000B0F5800F0BD106F48000B0F5800F06D121
:10AAA0006FF48000216808612046FFF732FD05F44D
:10AAB0000000B0F5000F0BD106F40000B0F5000F58
:10AAC00006D16FF40000216808612046FFF788FD79
:10AAD00070BD70477047000070B50546134928687F
