:020000040800F2
:10500000C812002025530008579C0008039200088E
:10501000A9950008F16D0008FDA40008000000003B
:10502000000000000000000000000000059D0008D6
:105030009575000800000000599C0008079D0008B5
:105040003F5300083F5300083F5300083F530008F8
:105050003F5300083F5300083F5300083F530008E8
:105060003F5300083F530008A3750008F56D000882
:10507000316E00083F530008656E0008716E00082D
:105080003F5300083F5300083F5300083F530008B8
:105090003F5300083F5300083F530008A97500081C
:1050A0003F530008819D00083F5300083F5300080C
:1050B0003F5300083F5300083F5300083F53000888
:1050C0003F5300083F5300083F5300083F53000878
:1050D0003F53000831A400083F530008F1A4000822
:1050E0003F5300083F5300083F5300083F53000858
:1050F0003F5300083F5300083F5300083F53000848
:10510000000000003F530008000000003F5300086B
:105110003F5300083F5300088D9D00083F5300088F
:105120003F5300083F5300083F5300083F53000817
:105130003F53000800000000000000003F5300083B
:105140003F5300083F53000800000000000000002B
:10515000000000000000000000000000000000004F
:105160000000000000000000000000003F530008A5
:105170003F5300083F5300083F5300083F530008C7
:105180003F5300083F5300080000000000000000EB
:1051900000000000000000003F5300083F530008DB
:1051A00000000000000000003F5300083F530008CB
:1051B0003F5300083F5300083F5300083F53000887
:1051C0003F5300083F5300083F5300083F53000877
:1051D0003F5300083F53000800F002F800F092F837
:1051E0000AA090E8000C82448344AAF10107DA4542
:1051F00001D100F087F8AFF2090EBAE80F0013F002
:10520000010F18BFFB1A43F001031847D4580000E0
:10521000F4580000103A24BF78C878C1FAD8520771
:1052200024BF30C830C144BF04680C607047000020
:105230000023002400250026103A28BF78C1FBD89F
:10524000520728BF30C148BF0B6070476E2900F07D
:105250004B82702900F09583662905F076836529D5
:1052600005F07383672905F07083612905F06F836A
:1052700003681B0A28BF41F08001692900F0F8810A
:10528000642900F0F581752900F0F2816F2900F0A2
:105290002283782900F06183E92900F0BD82E429A6
:1052A00000F0BA82F52900F0B782EF2900F01F83E1
:1052B000F82900F060830368DB0928BF41F0800112
:1052C000632901F08580732901F08A80E32901F0C8
:1052D0009580F32901F09A80002070471FB505F0F2
:1052E0002FFB01F0E5F804000020002105F012FB7F
:1052F000401C60600020002105F0F6FAE0601FBD50
:1053000010B510BD01F0A6F81146FFF7E7FF05F054
:105310009BFA01F083F903B4FFF7F2FF03BC01F03D
:105320008BF900000948804709480047FEE7FEE77F
:10533000FEE7FEE7FEE7FEE7FEE7FEE7FEE7FEE745
:1053400004480549054A064B70470000719D000856
:10535000D9510008C80C0020C8120020C80E002037
:10536000C80E002053EA020C00F069802DE9F04BD2
:105370004FF00006002B1FBFB3FA83F503FA05F4C4
:1053800024FA05F65E4012BF1643B2FA82F502FA1D
:1053900005F4C5F120051EBF22FA05FC44EA0C0401
:1053A000203556EA044C4FEA144418BF641C4FF0F1
:1053B00000084FF00009904271EB030C39D300292B
:1053C00019BFB1FA81F701FA07F6B0FA80F700FACF
:1053D00007F6C7F120071EBF20FA07FC46EA0C06B5
:1053E0002037B6FBF4FCA7EB0507103F07F01F0BB7
:1053F000CBF120060CFA0BFB2CFA06F644BFB346A1
:105400000026202FA4BF5E464FF0000B5BEA060C7F
:1054100008BF4FF0010B19EB0B09ABFB027C48EB0B
:105420000608C01B06FB02CC0BFB03CC71EB0C0186
:10543000C1E70B46024641464846BDE8F08B13B52E
:105440004FF000004FF00001AFF30080BDE81C40BA
:10545000704700007CB51D4616460C00009001D038
:105460002044401E074B7B442A4669460190304643
:1054700000F053F905461CB10020694600F060F9C0
:1054800028467CBDE102000010B5431C02E010F884
:10549000011B71B18107FAD14FF0013202C88C1A99
:1054A0008C4314EAC211F9D0C01A0A0603D0C01EF8
:1054B00010BDC01A10BD0A0401D0801E10BD090223
:1054C000FCD0401E10BD02F0FF0343EA032242EA73
:1054D000024200F027BB4FF0000200B5134694468D
:1054E0009646203922BFA0E80C50A0E80C50B1F13C
:1054F0002001BFF4F7AF090728BFA0E80C5048BF50
:105500000CC05DF804EB890028BF40F8042B08BFED
:10551000704748BF20F8022B11F0804F18BF00F8E9
:10552000012B70474FF0013C50F8042B51F8043B1D
:105530009A4221D1A2EB0C03934313EACC1317D167
:1055400050F8042B51F8043B9A4215D1A2EB0C03FE
:10555000934313EACC130BD150F8042B51F8043BBE
:105560009A4209D1A2EB0C03934313EACC13DBD08C
:105570004FF00000704700BFD01A01BAB1FA81F1B4
:1055800001F0180122FA01F0CB40C1F12001DBB299
:10559000C0B2C01A2CFA01F3D11A914311EAC31117
:1055A000E6D1704770477047704770B5044685690B
:1055B0000068C10601D5302600E02026C00707D0CC
:1055C00070BDD4E9012130469047206A401C20621A
:1055D0006D1EF6D570BD70B5044685690078C007AC
:1055E00007D170BDD4E9012120209047206A401CDA
:1055F00020626D1EF6D570BD09684A0501D540B21E
:105600007047C905FCD500B2704709684A0501D545
:10561000C0B27047C905FCD580B2704770B50C4662
:105620000546012A05D02878800600D5EA690023BE
:1056300002E0012305E05B1C934202D2E05C0028FB
:10564000F9D1A869E618C01AA861286A1844286226
:105650002846FFF7AAFF04E0D5E9012114F8010B61
:105660009047B442F8D32846FFF7B5FF70BD00005D
:105670002DE9F0410646002410687529314616A52B
:1056800010D0FFF7B9FF002802DA404213A507E067
:1056900031688A0701D512A502E0490704D511A592
:1056A000012401E0FFF7B1FF00210A2206F12407DF
:1056B00009E0B0FBF2FCB0FBF2F302FB1C0030305F
:1056C00078541846491C0028F3D123462A46304610
:1056D000BDE8F04100F08BBA000000002D00000092
:1056E0002B0000002000000011680268006A5305CA
:1056F00001D508700AE0D30501D5088006E013063D
:1057000003D5C217C1E9000200E00860012070471C
:1057100001694A1C02610878704700B58FB0CDE975
:1057200001310021059105497944CDE90310114665
:10573000684600F031F90FB000BD0000E5FFFFFF43
:105740000A6802F8010B0A607047D1E900239A4207
:1057500002D2531C0B601070704700002DE9FF5FF0
:1057600015468A460446DFF8AC80F8440027D8E99D
:1057700000103E46CDE9001010E03AF816106A46D7
:1057800002A800F047FE411C07D02178890603D506
:10579000E269391891420DD80744761C20788006BA
:1057A00002D5E069B84205DDAE42E6DB3AF8160004
:1057B0000028E2D1A069C01BA0612046FFF7F5FEDA
:1057C000D8E90010CDE90010002017E03AF81810D1
:1057D0006A4602A800F01EFEB0F1FF3F81460BD0E2
:1057E00000250DF1080B05E0D4E901211BF80500A7
:1057F00090476D1C4D45F7D308F10100B04280463B
:10580000E4DB206A384420622046FFF7E4FEBDE86E
:10581000FF9F0000765200002DE9F0418046D21D26
:1058200022F007020025D2E90002F52915A614D0BE
:10583000011E72F1000106DA0023D0EB030063EBD6
:10584000020211A608E0D8F800108B0701D50FA6B8
:1058500002E0490701D50EA601251146002408F1F2
:10586000240704E000F07EF930323A55641C50EA17
:105870000102F7D12B46324621464046BDE8F041B1
:1058800000F0B5B9000000002D0000002B00000062
:105890002000000030B4002100F1240408E002F0F0
:1058A0000705D208303542EA4372DB086554491CCB
:1058B00052EA0305F3D10468002310A2250707D597
:1058C000A40600D421B1C46901230DA2641EC461E1
:1058D00030BC00F08CB910B5044621461068FFF7C3
:1058E00094FE02462046BDE810400023D2E7D21DB8
:1058F00022F00701D1E90023CCE7000000000000FE
:1059000030000000F0B40D460188090502D5214C95
:105910007C4402E01F4C7C440E34002100F124063C
:1059200008E002F00F071209E75D42EA03721B0963
:105930007754491C52EA0307F3D102780023120777
:1059400004D5702D06D009B1022311342246F0BCD3
:1059500000F04DB901231034F8E770B504460D4648
:1059600021461068FFF751FE024629462046BDE851
:1059700070400023C6E7D21D22F00703D3E90023BD
:10598000C0E70368126843F0200303600823C36183
:105990000023B7E7D85000002DE9F05F89460446A0
:1059A0004FF0000ADFF874B1FB44C0F820A0204695
:1059B000E1688847002874D0252806D0D4E9012161
:1059C0009047206A401C2062F1E700265F4620468F
:1059D000E16888472028054607DB312D05D2781974
:1059E00010F8200C08B10643F1E7B00701D526F006
:1059F0000406C4F81CA00027C4F818A02A2D09D05A
:105A0000284604F019FF38B304EB8708303DC8F886
:105A1000185019E059F8041B204604EB87029161E5
:105A2000E1688847012F054618D1E069002820DA8F
:105A300026F020061DE0D8F8180000EB800005EBEA
:105A400040003038C8F818002046E168884705460D
:105A500004F0F2FE0028EED1012F0AD02E2D08D13D
:105A60002046E16888477F1C0546022F46F0200645
:105A7000C4DBA069002803DA404246F00106A061B9
:105A8000F00701D026F010066C2D0BD0682D09D040
:105A90004C2D39D06A2D35D0742D35D07A2D33D098
:105AA00016E038E0E1682F4620468847B8420546B0
:105AB00009D16C2F26D04FF48060E1680643204660
:105AC0008847054604E06C2F1AD04FF480700643D7
:105AD0000DB3A5F14100192802D8203546F400661F
:105AE0004A462946204626604E46FFF7AFFB80B166
:105AF00001280BD0F61D26F0070000F1080956E733
:105B00004020E4E78020D8E70020D6E706F104092A
:105B10004DE7284652E7206ABDE8F09F6850000034
:105B20004FF000020429C0F0128010F0030C3FF483
:105B3000D4ACCCF1040CBCF1020F18BF00F8012B5F
:105B4000A8BF20F8022BA1EB0C01FFF7C6BC5FEA4F
:105B5000C17C24BF00F8012B00F8012B48BF00F8DE
:105B6000012B704730B5B0F10A024FEA900E71F187
:105B700000034EEA817EB0EB0E0061EB91014FEA2B
:105B8000101E4EEA017E10EB0E0041EB11114FEAA0
:105B9000102E4EEA016E10EB0E0041EB11214FEA80
:105BA000104E4EEA014E10EB0E0041EB1141401831
:105BB00041F100014FEAD00040EA41704FEAD101C3
:105BC00010EB80054FEA810444EA907444EB010431
:105BD0006D1944EB0404521BA3414FF0000348BF6E
:105BE0000A3200D530BD401C41F1000130BD2DE925
:105BF000F0470D4699469246044600F12408016894
:105C0000880604D5E06921F01001216000E0012040
:105C1000A84201DD471B00E00027A1697A1902EBC9
:105C20000900081AA0612078C00602D42046FFF7B8
:105C3000BCFC002608E0D4E901211AF806009047D0
:105C4000206A401C761C20624E45F4DB2078C0069A
:105C50000AD52046FFF7A9FC06E0D4E9012130204F
:105C60009047206A401C2062381EA7F10107F4DC2F
:105C700007E0D4E9012118F805009047206A401C8C
:105C80002062281EA5F10105F3DC2046FFF7A3FCE6
:105C90002078000602D50220BDE8F0870120FBE74E
:105CA00070472DE9FF4F0C461E464FF0FF378BB073
:105CB000D2E90001DDF860800A908A46C1F30A55F6
:105CC00005B93D46002108464FF00000BAF1000F2B
:105CD00000F4400005DA00EB80004FF4400101EAD7
:105CE00050004FEA9059B9F1010F00DDB9460A980A
:105CF00050EA4A000ED044F61050A5F2FF35454355
:105D00002F14B8F1000F1ED07542291E1EDDC9F1F7
:105D100000021CE0B8F1010F4FF0000001D030216B
:105D200003E0F24305E02154401CB042FBDB304667
:105D30000022002121540B99C1F80880C1E90020FC
:105D40000FB0BDE8F08FBD1B6D1CDEE74A4600DAE0
:105D5000694206A800F0F0FB06AB93E8070003AB2E
:105D600083E8070050460A9900F06DFC8DE80700B3
:105D7000A0F500501F3800900398002D0ADD42F274
:105D80001F014A460844002303A90390684600F017
:105D9000D6FE09E0A0F500504A461F38002303A9AB
:105DA0000390684600F0E0FE8DE807000004000C58
:105DB00003D04FF0FF30410800E01046B8F1000F6B
:105DC00003D00022009215461EE0751E05D4FFF791
:105DD000C9FE303262556D1EF9D5B3460122084323
:105DE00002D000227F1C04E02078302801D100225C
:105DF0007F1E002A099784D01DE0112D07DAFFF7D6
:105E0000B1FE303262556D1C50EA0102F5D10843F3
:105E100002D00098C8B10EE00021681E05E0235CA6
:105E2000625C63542254401E491C8142F7DBAB463E
:105E3000A81B401E0990002004F80B000B98099A3B
:105E4000C0F80880C0E9002B7AE711264FF000085F
:105E500057E72DE9F04F88460446D21D22F007018E
:105E600091B0D1E90001CDE90A0104F0BDFC024680
:105E70000B98C00F01D02D2007E02068810701D5C5
:105E80002B2002E0202101EAC000032A099001D062
:105E9000072A05DB03464146204600F00DFB0BE1D7
:105EA0002078800601D5E06900E00620B8F1650F92
:105EB000814606D0B8F1660F18D0B8F1670F70D1DF
:105EC00031E00020B9F1110F009001DB112301E056
:105ED00009F101030AAA01A90CA8FFF7E2FEDDE916
:105EE0000C70002609F10105834647E001204B466E
:105EF00000904FF000470AAA01A90CA8FFF7D1FEB5
:105F0000DDE90DB00C995D46002610B909F10100DC
:105F10000D18B9EB050003D4C0F1FF3609F10105F6
:105F2000A5EB09002BE0B9F1010F01DA4FF00109EF
:105F30000020B9F1110F0090484601DD112300E067
:105F400003460AAA01A90CA8FFF7ABFEDDE90C7015
:105F50004D4600268346207800070AD4AB4500DA78
:105F60005D4601A8012D04DD411911F8011C3029FD
:105F700007D04F4502DA17F1040F04DA01208246F8
:105F80000FE06D1EEEE7002F02DCED1B3E4403E048
:105F9000781CA84200DD7D1CB81B00F1010A4FF0FF
:105FA00000472078000703D4AA4501DB4FF0FF3AF1
:105FB0000021B7F1004F0DF143088DF8431024D0B4
:105FC00002202B23002F01DA7F422D230A21021EFB
:105FD000A0F1010000DC5FB197FBF1FC97FBF1F24F
:105FE00001FB1C7C17460CF1300C08F801CDEEE7E4
:105FF000A8F1010003702188090501D5452100E0C1
:106000006521A0F1010800F8011C09980FA9A1EB76
:106010000807FF1D00B10120411901EBEA70A169D9
:106020003844081A401EA0612078C00602D42046D9
:10603000FFF7BBFA099828B1D4E901219047206AFB
:10604000401C20622078C00622D52046FFF7ADFA1A
:106050001EE0002E04DBB34502DD01A8805D00E0F8
:106060003020D4E901219047206A401C2062761C30
:10607000AAF101005FEA000A0AD100F019FAC0682B
:106080000168405CD4E901219047206A401C2062ED
:10609000281EA5F10105DCDC07E0D4E9012118F890
:1060A000010B9047206A401C2062381EA7F10107AF
:1060B000F3DC2046FFF78FFA032011B041E6000021
:1060C0002DE9F04F04460D46D21D22F0070089B09D
:1060D000D0E900974846394604F086FB0246F80F9F
:1060E00001D02D2307E02068810701D52B2302E092
:1060F000202101EAC0038DF820300BB1012000E01F
:106100000020032A824601D0072A04DB29462046C4
:1061100000F0D2F93FE12078800601D40D2500E09F
:10612000E569C7F30A560D2D49DA00214FEA175BDE
:1061300008464FF00000002F00F4400007DA00EBA3
:1061400080004FF4400100EBD07001EA600081153F
:10615000012901DD4FF0FF3100224FEA850CBCF12F
:10616000180F06D31346ACF118004FF08052C2400E
:1061700003E04FF4801323FA0CF30CF10C0CBCF188
:10618000200F04D3ACF1200C09FA0CF001E007FA5F
:106190000CF000294FF0004801DD18B90FE00ED1D6
:1061A00040450CD319EB02095F4121B9404502D1AA
:1061B0009F4329EA0209BBEB175F00D0761C2088B9
:1061C000000502D57B48784402E07A4878441938C3
:1061D00008AA302302F80A30037C0AF10101002EDC
:1061E0000AF1020A53546A4602DC4FF0300101E022
:1061F0004FF031014FF001088DF8001002D0A6F2E7
:10620000FF3603E059EA470100D06B4E002D02DC57
:106210002178090704D54FF002082E218DF80110CE
:10622000C44600210BE0C7F303433F01C35C491C94
:106230006D1E02F80830052908F1010801DA002D69
:10624000F1DC00210CE000EB1973491C1B786D1E7A
:10625000082902F808304FEA091908F1010801DAA3
:10626000002DF0DC21688B0602D516E0A8F10108AC
:10627000E04505DD02EB080313F8013C302BF5D0B7
:10628000B8F1000F09DD02EB080313F8013C2E2BD7
:1062900003D1090701D4A8F10108002D05DD3E2135
:1062A00002F808106D1E08F10108407C002E02F86B
:1062B000080008F1010804DA2D20764202F80800EF
:1062C00002E02B2002F808000A214FF47A7086427F
:1062D00008F101080BDB96FBF0F3303302F80830CD
:1062E00096FBF0F308F1010800FB136601E0642E51
:1062F0000CDB642096FBF0F3303302F8083096FB99
:10630000F0F308F1010800FB136601E00A2E06DB3A
:1063100096FBF1F0303002F8080008F1010896FB16
:10632000F1F001FB1060303002F80800A16908F1BB
:10633000010808EB050202EB0A00081AA0612078A8
:10634000C00602D42046FFF730F9216A08AE01EBFF
:106350000A00206204E0D4E9012116F8010B9047FD
:10636000BAF1010AF7D22078C00602D52046FFF71D
:106370001CF96E4609E016F8010B3E280FD0D4E94F
:1063800001219047206A401C2062B8F10108F2D236
:106390002046FFF720F909B00320BDE8F08F206AFE
:1063A0002844206203E0D4E90121302090476D1E8B
:1063B000EBD3F8E76E48000002FCFFFF10B543691D
:1063C00013B1AFF3008001E0FFF728F9012010BD01
:1063D000127800F124010A7000224A700122EDE7D0
:1063E00011684FF0FF32E9E710B5436913B1AFF31D
:1063F000008001E0FFF7B2F9012010BD128800F122
:10640000240182840022C2840122EDE711684FF04A
:10641000FF32E9E770B516460C46054600F040F835
:10642000036893F80101012806D0FF2C0FD8185DEE
:1064300068B101202C7070BDD3F8070132462146A7
:1064400003F2071303442846BDE8704018474FF095
:10645000FF3070BD754600F0EBF8AE4605006946AA
:10646000534620F00700854618B020B5FEF768FFB8
:10647000BDE820404FF000064FF000074FF0000845
:106480004FF0000B21F00701AC46ACE8C009ACE8C6
:10649000C009ACE8C009ACE8C0098D4670470000EF
:1064A00010B500F005F8001D10BD00BF69440000E4
:1064B00000487047840C00202DE9F0411F46044637
:1064C00003260168072A01F4006004DB08B116A561
:1064D00005E016A503E008B115A500E015A521F01B
:1064E00010002060A069C01EA0610FB1401EA06115
:1064F0002046FFF75AF84FB1D4E9012138469047BA
:10650000206A401C2062C01C206206E0206AFAE774
:10651000D4E9012115F8010B9047761EF8D22046E8
:10652000FFF759F8BDE8F0814E414E006E616E00F4
:10653000494E4600696E66002DE9F04781461646D1
:106540008AB0354878440DC88DE80D00324878444B
:10655000801C03AC0DC884E80D0041F69B30084454
:10656000372190FBF1F290FBF1F5A5F1800501FBDD
:1065700012041B3C02D56442012000E00020DFF839
:1065800098A080460027FA44AAF1BE0A0EE0E00770
:106590000AD03246684607EB470101230AEB810126
:1065A00000F0E2FA8DE8070064107F1C002CEED1A9
:1065B000194F7F44AE3F19E0E80715D007EB0410F0
:1065C0000DF1180A90E80E008AE80E00C068F0424B
:1065D00001D1981908903246012306A903A800F0BA
:1065E000C3FA03AB83E807006D10641C002DE3D1F0
:1065F0004FF0010332466946B8F1000F03A802D0FC
:1066000000F09DFA01E000F0AFFAC9E90001C9F815
:1066100008200AB0BDE8F0878045000010B50446A8
:10662000AFF300802046BDE81040FEF774BE0000C6
:1066300000487047640C002001491820ABBEFEE7FB
:106640002600020070475FEA400C08BF91F0000F7F
:106650004FEA8C234FEAC12243EA51514FEA1C50C2
:1066600018BF00F5F0404FEA300018BF41F000417C
:106670005FEA6C5C00F02980BCF1FF3F08BF40F08E
:1066800080407047130C06BF12044FF0100C4FF0FF
:10669000000C130E04BF12020CF1080C130F04BF00
:1066A00012010CF1040C930F04BF92000CF1020CC8
:1066B000D30F04BF52000CF1010C11464FF0000241
:1066C000A0F11F00A0EB0C00704711F0004F08BFB5
:1066D000704731F000413FF4D5AF0B0C06BF090401
:1066E0004FF0100C4FF0000C0B0E04BF09020CF120
:1066F000080C0B0F04BF09010CF1040C8B0F04BF35
:1067000089000CF1020CCB0F04BF49000CF1010C05
:10671000CCF12003A0EB0C0022FA03F302FA0CF2F6
:1067200041EA030100F10100704720F07F4C80EA4C
:10673000030023F07F47ACEB070303F57C5300F025
:10674000004003F1FF032DE980494FEA154B09B4DE
:106750004FEA144325EA0B4E24EA03480FF20426BD
:1067600006EB132749083E785FEA320203FB06670F
:10677000C7F5000707FB06F64FEA54374FEAD6463F
:1067800006F1020607FB066CCCF1005C4FEA1C47E1
:106790002CEA074C07FB06F40CFB06F504EB154648
:1067A0004FEA961634BF00204FF000404FEAD13731
:1067B00006FB07FC4FEA1C4C0CFB0BF7D21B03FB40
:1067C0000CF761EB07010CFB0EF7B0EB074072EB27
:1067D00017420CFB08F734BFA2EB0742B2EB0742AB
:1067E00061EB17414FEA0C444FEA910706FB07FCA7
:1067F0004FEA1C4C0CFB0BF7B0EBC74072EB573267
:1068000003FB0CF734BFA2EBC742B2EBC74261EB0C
:1068100057310CFB0EF7B0EBC70072EB57720CFB55
:1068200008F734BFA2EBC702B2EBC70261EB5771A6
:10683000039F4FEA816141EA921104EBCC044FEAD5
:10684000D1374FEA826206FB07FC42EA90124FEA18
:1068500080604FEA1C4C0CFB0BF7D21B03FB0CF7C0
:1068600061EB07010CFB0EF7B0EB074072EB174230
:106870000CFB08F734BFA2EB0742B2EB074261EB17
:1068800017414FEA8C554FEA910704EB9C2406FB15
:1068900007FC4FEA1C4C0CFB0BF7B0EBC74072EB4C
:1068A000573203FB0CF734BFA2EBC742B2EBC7422F
:1068B00061EB57310CFB0EF7B0EBC70072EB577270
:1068C0000CFB08F734BFA2EBC702B2EBC70261EBC7
:1068D000577115EB4C254FEA816141EA92114FEA5D
:1068E00082624FEAD13742EA901206FB07FC44F17C
:1068F00000044FEA80604FEA1C4C0CFB0BF7D21BE4
:1069000003FB0CF761EB07010CFB0EF7B0EB074044
:1069100072EB17420CFB08F734BFA2EB0742B2EB55
:10692000074261EB174115EB1C154FEA813141EA33
:1069300092414FEA823242EA90424FEA80304FEA77
:106940000C7644F1000448EA03434EEA0B484FF04A
:10695000000EB2EB080C71EB030724BF6246394608
:106960004EEB0E0E4FF0000B0018524149414BEB1D
:106970000B0BB2EB080C71EB03077BF1000B24BF90
:10698000624639464EEB0E0E4FF0000B0018524196
:1069900049414BEB0B0BB2EB080C71EB03077BF19E
:1069A000000B24BF624639464EEB0E0E51EA020739
:1069B00018BF46F0010616EB0E7655F1000254F1B1
:1069C000000103D5BDE88901BDE80088BDE8890163
:1069D000BDE80048B619524141EB0101A3F10103A2
:1069E000704780807F7E7D7C7B7A7978777676753C
:1069F0007473727171706F6E6E6D6C6C6B6A6A69B4
:106A00006868676666656464636362616160605F4D
:106A10005F5E5E5D5D5C5C5B5B5A5A5959585857C6
:106A2000575656555555545453535252525151502E
:106A300050504F4F4F4E4E4D4D4D4C4C4C4B4B4B81
:106A40004A4A4A49494948484847474747464646C7
:106A50004545454444444443434343424242424102
:106A60004141002B9C4630D477002BD01CB54FEA17
:106A7000370703B44FF010004FF01001BAF1000FC8
:106A800006D0BCF1000FDCBF40F0080040F0080168
:106A90004FF000000FBCBDE810400BF1010BBBF143
:106AA000010F08BF5FEA170722BF12F1010211F1BF
:106AB00001014FF0004143F1000300F0004043EAC0
:106AC00000007047F9D35708D0E746EA064613F1AD
:106AD000400F4FEA16461FDD13F1200FDFBF1643AC
:106AE0000A46002120335B42BED0C3F1200746EAAC
:106AF000064602FA07F74FEA164646EA0706C3F1CA
:106B0000200722FA03F201FA07F721FA03F14FF006
:106B1000000342EA0702A7E746EA020646EA0646FB
:106B20004FEA164646EA0106BCBF46EA0646360C60
:106B30004FF000034FF000024FF0000194E72DE901
:106B4000804C9A46934670B491E8380007C831EA01
:106B5000400C48BF34EA430C03D5FFF7E6FDFFF7CE
:106B600080FFF0BCBDE8008C2DE9804C9A4693462E
:106B700070B491E8380007C810F0804F08BF13F0D8
:106B8000804F03D100F005F8FFF76BFFF0BCBDE8C4
:106B9000008C20F07F4780EA030023F07F4C07EB56
:106BA0000C03A3F57C5300F00040A3F1FE0392F028
:106BB000000F00F0B38095F0000F00F077802DE912
:106BC00001494FEA11404FEA144621EA004800FB10
:106BD00006FC24EA064708FB06F607FB08F800FB5C
:106BE00007F718EB06484CEB164C4FEA124B18EB24
:106BF00007484FEA15464CEB174022EA0B4E0BFBB9
:106C000006FC25EA06470EFB06F607FB0EFE0BFB0D
:106C100007F71EEB064E4CEB164C4FF000061EEB32
:106C2000074E4CEB174B18EB0B0840F1000018EB2C
:106C30000E0B58EB000840F100008F1A4FF00001D6
:106C40003CBFC943661B14BFB5EB040C00213CBF1D
:106C5000C943F61B4FEA17444EEA8E0E27EA044555
:106C60004FEA1C4704FB07622CEA074C05FB07F7B9
:106C70000CFB05F604FB0CFC16EB074642EB174237
:106C800016EB0C4642EB1C421BEB060658EB0202CD
:106C9000414146EA9E0601D5BDE80189B619524137
:106CA00041EB0101A3F10103BDE801894FEA14455D
:106CB0004FEA114724EA054621EA074C05FB07F491
:106CC00006FB07F70CFB06F105FB0CFC11EB07417B
:106CD00044EB17444FEA124711EB0C4144EB1C44C0
:106CE00022EA074C05FB07F206FB07F70CFB06F64A
:106CF00005FB0CFC16EB074642EB174216EB0C4665
:106D000042EB1C456A1854F1000148BF7047B619A0
:106D1000524141EB0101A3F10103704795F0000FCF
:106D200037D04FEA11424FEA144721EA024624EADB
:106D3000074C02FB07F106FB07F70CFB06F402FB0E
:106D40000CFC14EB074441EB17414FEA154714EBD9
:106D50000C4441EB1C4125EA074C02FB07F506FBFE
:106D600007F70CFB06F602FB0CFC16EB074645EB9F
:106D7000174516EB0C4645EB1C42121951F1000168
:106D800048BF7047B619524141EB0101A3F101031D
:106D900070474FEA14454FEA114724EA054621EAB5
:106DA000074C05FB07F106FB07F70CFB06F24FF05B
:106DB000000605FB0CFC12EB074241EB174112EBFE
:106DC0000C4251EB1C4148BF7047921841EB010146
:106DD000A3F1010370470000044903480860BFF3B2
:106DE0004F8FBFF36F8F70470050000808ED00E031
:106DF000FEE700000A48016889070DD502214160BD
:106E00000848016811F4C05FFBD101680906FCD491
:106E100005494FF480500860044800F04ABC000067
:106E20000000024008380040180400487C000020A0
:106E30000948016889060CD5416841F0200141608C
:106E4000C16921F00101C1610448016841F04001BC
:106E50000160034800F02DBC0000024000380140F2
:106E60009C020020014800F024BC0000FC0200202D
:106E7000014800F01EBC00005C0300200D490268C0
:106E80008A4201D20C4901E00B492031D2B21423CD
:106E9000083AB2FBF3F2436C02F01F0223F0030343
:106EA0001944816404498031C16401219140016524
:106EB0007047000008040240000802400179074AB8
:106EC00002EB81024265054A4432491E826501F0A7
:106ED0001F0201219140C16570470000FC0802407B
:106EE000FEB53D4C05462146207ACA8801280DD0C2
:106EF0006179684600F0AAF801229DF8010000219E
:106F0000F0B101283AD0022843D04AE00121002004
:106F1000237C04E001EB81014900401CC0B28342A4
:106F2000F8D832230DB1501802E0501A00E0C01A10
:106F30009842FCDA00E018440028FCDBE08047E0DF
:106F40009DF80230207C012B08D1637A012B02D0FE
:106F5000022B02D002E0001D00E0083000230AE00E
:106F60000A26A2FB067E01FB06E14FF0000C02FBA5
:106F70000C113A465B1C8342F2DB12E00020237CBA
:106F800004E0090141EA12711201401C8342F8DC5D
:106F900007E00020237C02E092184941401C834214
:106FA000FADCE068C31715B180184B4102E0801A83
:106FB00063EB01030299CA17091A9A4101DA019891
:106FC00005E00199CA17411A934100DA0298E0607E
:106FD000BDE8FE4000F01EBAB00A0020174A08B50E
:106FE0001170507016484FF4805303601548816843
:106FF00021F0010181600F2141600221C16081689F
:1070000041F001018160104902689207FCD50868CF
:1070100010F4C05FFBD108680006FCD4002002E039
:107020009DF80000401C8DF800009DF800000F281E
:10703000F6D303481038036008BD00001500002097
:10704000280400480000024008380040F0B500263F
:10705000124C66F3070366F30F23654266F317438A
:1070600051EA020C4FF0010703D10D4C67F31743AF
:10707000654211B1012908D00DE0012A0BD167F357
:107080000F2334464FF6FF7505E022B9022161F364
:107090000F2334460F2580E83800F0BDF1D8FFFFFC
:1070A000006CCA882DE9F0472D4E00273246B17F8B
:1070B000108C92F82220401C521C4FF0190A4FF0FD
:1070C000010980B2D4B24FF01508182591B10129F9
:1070D00032D13084B0F5967F2ED3378486F82240A3
:1070E000062C2BD90220B07786F80890BDE8F0472F
:1070F00000F090B9308496281ED3378486F8224059
:10710000112205211648FEF7DEF9002C14D0404666
:1071100086F80480022C00D3F570032C00D3B070E5
:10712000042C01D386F801A0052C05D3357086F810
:107130001E9086F822703784BDE8F087E00706D0FD
:10714000BDE8F047112205210548FEF7BCB986F8D5
:107150000480F57086F8028086F801A03570EBE7B0
:10716000B00A002010B524211148FEF7B4F91148E7
:10717000016841F20202114301600E490E480831D4
:1071800001610E4941610B48001F016841F0400157
:107190000160074900200872887781F8220008847E
:1071A00003480749243001604AF6CD31416010BDE3
:1071B000B00A002004380040000002401500002002
:1071C000D20296492DE9FE435E4804685E4E5FEAAE
:1071D000C46C4FF00107B37E307A7179F2884FF0BA
:1071E000000501D401240CE05FEA846C01D4022480
:1071F00007E05FEA446C01D4032402E0240655D47E
:107200000424A34205D0B582F576B476F582FA233C
:107210003383B38A4FF47A785B1C9BB2B382042C1D
:1072200024D143453BD3F37E002B38D1464BF77630
:10723000243303F1C80C012802D002280CD013E03B
:107240000220307229B15CF82200F060757235744A
:107250000AE053F82200F8E73B48C06809B34CF84D
:10726000220000F073F8377200F0D4F8B08A40457D
:1072700015D3022C01D0032C11D1F08A401C80B20E
:10728000F082318B88420AD3F582022C0CD0002088
:10729000FFF726FE308B1E2801D90F383083BDE85A
:1072A000FE8343F82200DCE70120F1E7002BF6D053
:1072B000F47E14BBB48A142C27D3012B06D0022BE6
:1072C00011D0032B11D0042B1FD112E0022806D0BD
:1072D00039B100207071F58000F09CF815E037722C
:1072E000FAE70120F6E7012000E00020FFF7F8FDB3
:1072F0000BE0012802D002280AD006E0307C401CB6
:10730000C0B23074022800D93574B576B582C6E7AC
:107310006846FFF79BFE9DF8010018B99DF8020032
:10732000012807D0307C401CC0B230740328D3D968
:107330003574D1E7707A401CC0B270720228CBD984
:107340007572C9E710040048B00A002070470000B9
:107350002DE9FE43284E307AD8B1FFF733FF274F8F
:107360003878305CFE2817D025490C5C708A4FF0C5
:107370000008401C80B27082B0F5C87F01D3A6F827
:107380001280307A30B3FF25012813D0022805D0AF
:1073900011E0FFF787FEE2E7FE24E7E7F288717964
:1073A0006846FFF753FE9DF8010018B99DF80200EA
:1073B000012800D0357C3878A84204D1718AC829C8
:1073C00001D204F07F04317A032903D1022801D1CC
:1073D00004F07F040A483978401F415C2046FFF7DB
:1073E000FDFD3878401CC0B23870052801D387F8FD
:1073F0000080BDE8FE830000B00A002014000020D9
:10740000C9A90008024988830320087200F002B865
:10741000B00A00203EB55D4C207A002857D01122DA
:1074200005212046FEF74FF8207A0A25032811D0BF
:10743000012816D0E28861796846FFF707FE9DF8BB
:107440000100E168012832D0022841D000294BDA3E
:1074500048424AE0152020711720E070A070A08BF0
:1074600019E06079002806D04FF00D00207105D199
:107470004FF00A0004E04FF01400F7E74FF014005B
:10748000E070E0884FF06401B0FBF1F1B1FBF5F280
:1074900005FB1211A170B0FBF5F1B1FBF5F205FB94
:1074A00012116170B0FBF5F105FB11006CE04FF0BB
:1074B000120020714FF000004FEA800241FA02F200
:1074C00002F00F02225400F101000428F4DB3EBD5B
:1074D0000B202071002041FA00F202F00102225438
:1074E000401C0428F7DB3EBD08469DF80220C2B1CF
:1074F000617A41B3012935D0FE2121712449B0FBC5
:10750000F1F070B3B0FBF5F105FB110121700A2811
:10751000E9D3B0FBF5F0B0FBF5F105FB11006070AD
:107520003EBD002901DA102100E011212171002166
:10753000B0FBF5F205FB1202B0FBF5F06254491CFA
:107540000429F5DB3EBD162121710021B0FBF5F2C7
:1075500005FB1202B0FBF5F06254491C0429F5DB6F
:107560003EBD11E01021217142F21071B0FBF1F12A
:107570000020B1FBF5F205FB1212B1FBF5F122542C
:10758000401C0428F5DBEBE72070E9E7B00A002097
:1075900000E1F50570470068016821F00401016011
:1075A0007047102000F044B910B5202000F040F9D9
:1075B000402000F03DF9BDE81040802000F038B9CF
:1075C0000068016841F004010160704772B6FEE78F
:1075D00010B590F8252000210123022A03D00421B0
:1075E000C163012122E00268146824F00E041460D3
:1075F000826C146824F4807414600268146824F0A7
:107600000104146090F84420046C02F01F0203FA95
:1076100002F26260D0E913245460426D32B1146802
:1076200024F480741460D0E91624546080F8253066
:10763000002280F82420084610BD70B590F825106F
:10764000002401222346022907D00421C16380F8C7
:10765000252080F82430012429E001680D6825F0F8
:107660000E050D6001680D6825F001050D60816C47
:107670000D6825F480750D6090F84410154601F0F2
:107680001F018A40016C4A60D0E913124A60416DC3
:1076900031B10A6822F480720A60D0E916124A6099
:1076A00080F8255080F82430816B01B1884720464E
:1076B00070BDF0B4016C0B6801680A6890F8444032
:1076C000042504F01F0405FA04F61E4211D05607E3
:1076D0000FD50A68920603D40A6822F004020A60F1
:1076E00090F8441001F01F018D40016C4D60016B5A
:1076F0001DE0022606FA04F71F424FF0000C4FF07F
:10770000010518D0970716D50A68920605D40A68AD
:1077100022F00A020A6080F8255090F8441001F027
:107720001F018E40016C4E6080F824C0C16A0029A0
:107730001AD0F0BC08470826A6401E4214D01207F3
:1077400012D50A6822F00E020A6090F84410026C0A
:1077500001F01F0105FA01F15160C56380F8255061
:1077600080F824C0416BE2E7F0BC704770B50400BC
:107770000CD02B4A20681421904209D2294A024495
:10778000B2FBF1F18900616427490AE0012070BD74
:10779000234A52420244B2FBF1F18900616420495C
:1077A00008392164022184F82510016847F6F07237
:1077B0009143D4E902231A43D4E904352B431A43F5
:1077C000A3691A43E3691A43236A1A430A4302600E
:1077D0002046FFF753FBA0680025B0F5804F00D18D
:1077E0006560A16C20790860D4E91301416060688C
:1077F000401E032808D82046FFF760FB606D056037
:10780000D4E91601416002E06565A565E565E563BB
:10781000012084F8250084F82450002070BD000069
:1078200008040240F8FFFDBF00000240704700005E
:10783000044910B50A68024202D00860FFF7F6FF5B
:1078400010BD0000140401402DE9F84FDFF88891C5
:107850000022A9F1040B03274FF00F0C09F1040AD1
:10786000ABF1040EB1E0012595402B4073D00C79AB
:1078700004F00304012C01D0022C15D186685400B9
:1078800007FA04F826EA0806D1F80C8008FA04F88A
:1078900048EA0608C0F808804468AC430D79C5F38F
:1078A00000159540254345600C79E443A40708D0B2
:1078B000C568540007FA04F6B5438E68A6402E4307
:1078C000C6600C7904F00304022C11D1D40800EB3B
:1078D0008406356A5407E40E0CFA04F825EA080514
:1078E000D1F8108008FA04F848EA0508C6F82080A4
:1078F0000568540007FA04F6B5430E7906F003064E
:10790000A6402E4306604C6814F4403F5CD0334CD4
:10791000256E45F001052566246E22F0030504F06E
:10792000010400942E4C05EB0408D8F80850940785
:10793000260F0CFA06F4A543B0F1904F04D0294C61
:10794000A04203D1012417E0002415E0264CA042F8
:1079500002D1022410E037E0244CA04201D10324DC
:107960000AE0234CA04201D1042405E0214CA042AE
:1079700001D1052400E00624B4402C43C8F8084097
:10798000D9F800404D464E689C43F60200D51C4392
:107990002C60DAF8004055464E689C43B60200D58C
:1079A0001C432C60DBF800405D464E689C43B603E8
:1079B00000D51C432C60DEF8004075464E689C43A1
:1079C000F60300D51C432C60521C0B6833FA02F4FA
:1079D0007FF449AFBDE8F88F080401400010024071
:1079E000000001400004004800080048000C004866
:1079F00000100048001400480069084000D0012031
:107A000070470AB1816170478162704701488068A0
:107A10007047000004000020024881684268114459
:107A2000816070470400002010B50024032000F09E
:107A300073F80F2000F008F808B1012401E000F00D
:107A400025F8204610BD000070B50E4E05460024F6
:107A5000706898B14FF47A71B1FBF0F00A49096887
:107A6000B1FBF0F000F05AFE40B9102D06D2002212
:107A70002946501E00F030F8356000E00124204611
:107A800070BD000004000020100000200A4882B0F1
:107A9000016E41F001010166016E01F001010091EA
:107AA000816D41F080518165806D00F080500090C3
:107AB00002B000F0A1B8000000100240002809DB6D
:107AC00000F01F02012191404009800000F1E020F8
:107AD000C0F8001170470000F0B40E4B1B68C3F3F0
:107AE0000223C3F10704042C00D904241D1D072D13
:107AF00001D2002300E0DB1E012606FA04F56D1E0C
:107B00000D409D409E40761E164045EA0601F0BCA1
:107B100002F082BE0CED00E0064A00F0070110689A
:107B20004FF6FF03184040EA012003490843106064
:107B3000704700000CED00E00000FA052B492C4BCB
:107B40000A6832214A432B4940B1B0F5007F0868EA
:107B500029D020F4C06040F480602CE00868C0F3B5
:107B60004120022804D051F8800F20F4807022E0D8
:107B7000D1F8800020F48070C1F88000086820F4FB
:107B8000C06040F400700860B2FBF3F0401C00E0FD
:107B9000401E4A69520501D50028F9D148694005BF
:107BA0000AD503207047C0F34120022806D051F8BF
:107BB000800F40F48070086000207047D1F880008A
:107BC00040F48070C1F88000086820F4C06040F480
:107BD00000700860B2FBF3F0401C00E0401E4A69F0
:107BE0005205DBD50028F9D1D8E7000010000020AD
:107BF00040420F00007000400248816841F480411B
:107C000081607047007000400248016841F4807153
:107C100001607047007000402DE9F84F04460026CF
:107C20000068BB4D374600035DD5A86D4FF00009D5
:107C3000C00009D4A86D40F08050A865A86D4FF031
:107C4000010900F080500090DFF8C8A2DAF80010B7
:107C500041F48071CAF80010FFF7D8FE804607E0B3
:107C6000FFF7D4FEA0EB0800022801D9032632E07A
:107C7000DAF80000C005F3D56EBBD5F8900010F41B
:107C8000407014D0E16C814211D0D5F89000D5F845
:107C9000901020F4407041F48031C5F89010D5F870
:107CA000901021F48031C5F89010C5F89000C007FD
:107CB0007ED0FFF7ABFE804641F2883A05E0FFF741
:107CC000A5FEA0EB08015145D0D8D5F8900080075B
:107CD000F5D5002E6CD03746B9F1000F03D0A86D52
:107CE00020F08050A8652078C00707D0D5F888001C
:107CF000616820F003000843C5F8880020788007F9
:107D000007D5D5F88800A16820F00C000843C5F815
:107D100088002078400707D5D5F88800E16820F072
:107D200030000843C5F888002078000707D5D5F84B
:107D30008800216920F0C0000843C5F88800207839
:107D4000C00607D5D5F88800616920F44070084363
:107D5000C5F888002078800607D5D5F88800A16985
:107D600020F440600843C5F888002078400607D515
:107D7000D5F88800E16920F440500843C5F8880030
:107D80002078000607D5D5F88800216A20F4404005
:107D90000843C5F888002088C00507D5D5F88800B5
:107DA000616A20F440300843C5F88800208800E06C
:107DB00019E0800507D5D5F88800A16A20F4402095
:107DC0000843C5F888002088400519D5D5F88800F3
:107DD000E16A20F440100843C5F88800E06AB0F575
:107DE000801F09D00CE0D5F89000E16C20F44070C1
:107DF0000843C5F890006FE7E86840F48010E86039
:107E0000208800050FD5D5F88800216B20F44000AC
:107E10000843C5F88800206BB0F5800F03D1E868EF
:107E200040F48010E8602088C0040FD5D5F88800A1
:107E3000616B20F040700843C5F88800606BB0F1BA
:107E4000807F03D1E86840F48010E86020888104D6
:107E50004FF000600ED5D5F88810A26B21F040617C
:107E60001143C5F88810A16B814203D1E96841F440
:107E70008011E960218849040ED5D5F88810E26B9D
:107E800021F040611143C5F88810E16B814203D1B4
:107E9000E86840F48010E860208800040FD5D5F829
:107EA0008800216C20F040500843C5F88800206C01
:107EB000B0F1805F03D1E86840F48030E86020686A
:107EC000C0030FD5D5F88800616C20F0404008430E
:107ED000C5F88800606CB0F1804F03D1E86840F4C9
:107EE0008030E860206840030FD5D5F89C00A16C75
:107EF00020F440100843C5F89C00A06CB0F5001FAA
:107F000003D1E86840F48010E8603846BDE8F88F97
:107F100000100240007000402DE9F0470D460400BB
:107F20004FF0000725D0DFF8A091D9F8000000F04D
:107F30000F00A8420CD2D9F8001021F00F012943FC
:107F4000C9F80010D9F8000000F00F00A84210D1C5
:107F500021685E4EC80741F2883A52D06068DFF867
:107F60007081032808D00228306826D040050028F8
:107F700025DB0120BDE8F08730688001F9D5F06885
:107F8000F068544BC0F30310401CB3FBF0F0F268F0
:107F9000C2F306225043F268C2F34162521C5200FF
:107FA000B0FBF2F0404515D9B06810F0F00F0AD0E0
:107FB00088070FD5A06830B10CE08003D7E700F048
:107FC000B5F8404506D9B06820F0F00040F08000D8
:107FD000B0608027B068616820F003000843B0609B
:107FE000FFF714FD804605E0FFF710FDA0EB080148
:107FF00051453BD8B068616800F00C00B0EB810FD0
:10800000F2D12068810714D5400703D5B06840F449
:10801000E060B0602078000705D5B06820F46050BB
:1080200040F4E060B060B068A16820F0F000084360
:1080300004E0802F03D1B06820F0F000B060D9F8E0
:108040000010484601F00F01A94217D90168C8463F
:1080500021F00F0129430160FFF7D8FC0746D14604
:1080600006E0FFF7D3FCC11B494501D9032081E796
:10807000D8F8000000F00F00A842F2D120784007A5
:1080800005D5B068E16820F4E0600843B06020786E
:10809000000706D5B068216920F4605040EAC100AD
:1080A000B06000F043F8B1680B4AC1F30311515CB2
:1080B00001F01F01C8400949086009480068BDE88F
:1080C000F047FFF7C1BC0000002002400010024052
:1080D00000B4C4040024F4007AA9000810000020B1
:1080E000040000200548064900688968054AC1F374
:1080F0000221515C01F01F01C840704710000020B0
:10810000001002408AA900080548064900688968ED
:10811000054AC1F3C221515C01F01F01C8407047FC
:1081200010000020001002408AA90008134A90683D
:10813000C0F38101124801290AD09168C1F381017D
:10814000022905D09168C1F38101032901D00020E3
:108150007047D16801F00303D168C1F30311491CD2
:10816000B0FBF1F0D168C1F306214843D168C1F3F7
:108170004161491C4900B0FBF1F07047001002401A
:108180000024F4002DE9F843040078D02078F54D60
:10819000C00745D0A868E96800F00C0001F00301B1
:1081A0000C2802D0082817D001E0032914D06068F9
:1081B000B0F5803F17D0B0F5A02F286817D020F475
:1081C00080302860286820F4802028606068D8B15A
:1081D000FFF71CFC064613E02868800320D5606882
:1081E0000028D2D01CE0286840F48030EDE740F44D
:1081F00080202860F7E7FFF709FC801B64286ED811
:1082000028688003F7D50BE0FFF700FC064604E082
:10821000FFF7FCFB801B6428F1D828688003F7D4A3
:10822000207880074BD5A868E96800F00C0001F0C1
:1082300003010C2802D004280DD001E002290AD045
:10824000E068002828682BD040F480702860FFF791
:10825000DDFB064619E02868400502D5E0680028E5
:1082600093D06868217C20F0FE4040EA016068609D
:10827000BD480068FFF7E8FB002800D11FE06DE172
:10828000FFF7C4FB801B0228B9D828684005F7D542
:108290006868217C20F0FE4040EA016068600EE0E2
:1082A00020F480702860FFF7B1FB064604E0FFF77A
:1082B000ADFB801B0228A2D828684005F7D420789F
:1082C000000728D560690028D5F8940012D040F046
:1082D0000100C5F89400FFF799FB064605E08FE022
:1082E000FFF794FB801B022889D8D5F894008007FB
:1082F000F6D510E020F00100C5F89400FFF786FBEA
:10830000064604E0FFF782FB801B022878D8D5F8E8
:1083100094008007F6D42078400761D5A86D002727
:10832000C00008D4A86D40F08050A865A86D012752
:1083300000F0805000908D480168C90511D4016893
:10834000804641F480710160FFF760FB064604E05F
:10835000FFF75CFB801B022852D8D8F80000C0054C
:10836000F6D5A068012815D00528D5F8900016D0BC
:1083700020F00100C5F89000D5F8900020F004002E
:10838000C5F89000A06841F28838B8B1FFF73EFB0D
:1083900006460EE0D5F8900040F00100F0E740F00E
:1083A0000400C5F89000F5E7FFF730FB811B41455D
:1083B00026D8D5F890008007F6D50CE0FFF726FB0D
:1083C000064604E0FFF722FB811B414518D8D5F88B
:1083D00090008007F6D41FB1A86D20F08050A865EA
:1083E0002078800628D5A0690028D5F8980012D0FA
:1083F00040F00100C5F89800FFF708FB064605E0CD
:1084000072E0FFF703FB801B02286DD8D5F89800B7
:108410008007F6D510E020F00100C5F89800FFF7BE
:10842000F5FA064604E0FFF7F1FA801B02285BD854
:10843000D5F898008007F6D4E069E8B3A968C1F3DD
:10844000810103295BD00228286820F08070286011
:1084500003D0FFF7DBFA044649E0FFF7D7FA0646F8
:1084600004E0FFF7D3FA801B02283DD8286880017A
:10847000F7D4F4E908016FF00F0202EB0111084391
:10848000218A5204490802EB4151A26841EA0221C3
:108490000843217D4FF07E42490802EB41610843C9
:1084A000217B40EAC160E968314A11400843E86035
:1084B000286840F0807000E052E02860E86840F0F2
:1084C0008070E860FFF7A2FA044604E0FFF79EFA26
:1084D000001B022808D828688001F7D540E0FFF784
:1084E00095FA001B022802D90320BDE8F88328680A
:1084F0008001F4D4E8681F490840E86030E00128B2
:10850000F3D0E868226A00F00301914226D1616A43
:1085100000F0F0020901103991421FD1A26A00F463
:10852000FE41B1EB022F19D194F82C2000F07841D4
:10853000B1EBC26F12D1218E00F4C0024908490587
:10854000A1F50011914209D194F8341000F0C060F7
:1085500049084906A1F10071814201D00120C4E718
:108560000020C2E70010024004000020007000401C
:108570000C809F01FCFFEEFE70B5040009D0606A1C
:10858000002540B125616561A56294F85D0040B1A8
:108590000CE0012070BD6068B0F5827FF4D0E56129
:1085A000F2E784F85C50204600F05CF8022084F882
:1085B0005D002068016821F040010160E0684FF42F
:1085C000E062904201D9002101E04FF48051B0F502
:1085D000706F02D0904200D0A562A088228900F47A
:1085E000827002F404421043227C02F00202104323
:1085F000227D02F001021043228B02F4007210432C
:10860000227F02F03802104394F8202002F080020A
:108610001043228D02F40052104322681060A069BA
:10862000042202EA104094F8242001F4805102F060
:108630001002104394F8342002F008021043A2897B
:1086400002F4706210430843216848602068C169E1
:1086500021F40061C1612566012084F85D000020DD
:1086600070BD00002DE9F04186B006461421684631
:10867000FCF731FF24493068884241D12349886D95
:1086800040F480408865886D00F480400590C86C97
:1086900040F00200C864C86C022700F00200059098
:1086A0004FF42040CDE90007002502950320052462
:1086B000CDE90304DFF8588069464046FFF7C4F867
:1086C00078030090CDE90175CDE903546946404631
:1086D000FFF7BAF8104C0F4820600D2060601020A2
:1086E000C4E902058020C4E90405A561E5612046CE
:1086F0002562FFF73BF808B1FEF768FF7465A662D4
:1087000006B0BDE8F08100000038004000100240D3
:1087100000040048080002407C00002010B5401E04
:10872000B0F1807F01D3012010BD4FF0E0246061E3
:108730000F21601702F070F80020A061072020616F
:10874000002010BD704770477047704770477047F2
:10875000F0B590F83C20012A40D0012580F83C502B
:10876000022280F83D2003685A689C681C4E1D4F09
:10877000DFF874C0B34203D0BB4201D0634504D1DB
:1087800022F4700E4A6842EA0E02DFF860E002EA64
:108790000E02D1F800E04EEA020EC3F804E00268CF
:1087A000B2420FD0B2F1804F0CD0114B9A4209D097
:1087B000104B9A4206D0BA4204D00F4B9A4201D0D5
:1087C000624504D1896824F080031943916080F8E0
:1087D0003D50002180F83C100846F0BD0220F0BD5D
:1087E000002C014000340140005001408FFFFFFD8C
:1087F000000400400008004000400140704710B5F0
:10880000040003D094F83D0010B107E0012010BD32
:10881000002084F83C00204600F022F8022084F872
:108820003D00211D206801F0BBFA012084F84800BA
:1088300084F83E0084F83F0084F8400084F841004A
:1088400084F8420084F8430084F8440084F845002A
:1088500084F8460084F8470084F83D00002010BDED
:1088600008B50068144A154990420ED1086E40F4CC
:1088700000600866086E002200F400600090114657
:108880001920FFF729F9192010E00D4A904211D163
:10889000886D40F010008865886D002200F010009F
:1088A000009011463620FFF717F93620BDE8084042
:1088B000FFF704B908BD0000002C01400010024081
:1088C0000010004090F83D10012901D001207047B0
:1088D000022180F83D100168CA6842F00102CA60B6
:1088E00000681149884211D0B0F1804F0ED00F4975
:1088F00088420BD00E49884208D00E49884205D0E4
:108900000D49884202D00D49884207D181680C4A3E
:108910001140062906D0B1F5803F03D0016841F02F
:108920000101016000207047002C0140000400405C
:108930000008004000340140004001400050014068
:108940000700010070B5044690F83C00002501289E
:1089500015D0012684F83C60022084F83D00206890
:108960008268374B1A4022F47F4282600868B0F573
:10897000805F28D010DC10F00F0F03D022E04FF002
:10898000020070BD4FEA2012082A1BD2DFE802F075
:10899000535353534B3941222A4BC21A98424AD05F
:1089A0000ADCB0F5005F20D0B0F1101F43D0A0F575
:1089B0008011203906D13EE0102A3CD0202A3AD03E
:1089C000402A38D0012584F83D60002084F83C001E
:1089D000284670BDCB68D1E90121206801F04AFA30
:1089E0002068816841F0770109E0CB68D1E9012175
:1089F000206801F03FFA2068816841F4804181607D
:108A0000E1E7CA684968206801F048FA5021206807
:108A100006E0CA684968206801F051FA60212068C0
:108A200001F032FACFE7CA684968206801F036FAE7
:108A300040212068F4E7226801461046F0E7000074
:108A400088FFCEFF3000100070472DE9F04104464A
:108A50000068C66805694FF00007A90713D5B1077C
:108A600011D5F91E016101202077206880698007F7
:108A7000204602D0FFF7E8FF04E000F0B7F82046F8
:108A800000F0B5F82777680716D5700714D5216868
:108A90006FF004000861022020772068806910F4DC
:108AA000407F204602D0FFF7CFFF04E000F09EF8A1
:108AB000204600F09CF82777280715D5300713D5F6
:108AC00021686FF008000861042020772068C069E1
:108AD0008007204602D0FFF7B7FF04E000F086F8D9
:108AE000204600F084F82777E80616D5F00614D55E
:108AF00021686FF010000861082020772068C069A5
:108B000010F4407F204602D0FFF79EFF04E000F003
:108B10006DF8204600F06BF82777E80708D0F007DB
:108B200006D021686FF001000861204600F060F86F
:108B3000280601D4A80408D5300606D521686FF4AC
:108B4000025008612046FFF7FEFDE80508D5300613
:108B500006D521686FF4807008612046FFF7F2FDAA
:108B6000680608D5700606D521686FF040000861D8
:108B7000204600F03EF8A80608D5B00606D52168C4
:108B80006FF0200008612046FFF7DEFDE80208D5FF
:108B9000F00206D521686FF4801008612046FFF7C7
:108BA000D5FDA80208D5B00206D521686FF40010E3
:108BB00008612046FFF7C9FD680208D5700206D596
:108BC00021686FF4800008612046FFF7C0FD28028D
:108BD0000AD5300208D521686FF4000008612046EC
:108BE000BDE8F041FFF70ABEBDE8F081704770476D
:108BF0007047704790F88410012918D0012180F83F
:108C000084102421C0F8881001680A680B6823F0DA
:108C100001030B6022F000510022426603681960D4
:108C20002021C0F8881080F8842010467047022068
:108C300070477047704770B5044690F8840001286B
:108C40001DD0012084F884002420C4F88800206806
:108C50000568026822F0010202602068826822F042
:108C600060620A438260204601F03CF9206805609A
:108C70002020C4F88800002084F8840070BD022001
:108C800070BD70B5044690F8840001281DD0012005
:108C900084F884002420C4F88800206805680268ED
:108CA00022F0010202602068826822F060420A43DA
:108CB0008260204601F016F9206805602020C4F883
:108CC0008800002084F8840070BD022070BD7047C9
:108CD000704770472DE9F04103680446D869196868
:108CE0009A6840F60F0528424FF000054FF0020643
:108CF0000AD187067ED501F0200702F0805C57EA92
:108D00000C0777D0616F3AE1B24FDFF8CCC2174061
:108D100001EA0C0C57EA0C0C6CD05FEAC07C0CD05A
:108D20005FEAC15C09D54FF0010CC3F820C0D4F84C
:108D3000903043F00103C4F89030830709D5D3077E
:108D400007D023681E62D4F8903043F00403C4F8BF
:108D5000903043070AD5D30708D02668042333622E
:108D6000D4F8903043F00203C4F8903003070CD5D8
:108D700001F020033B4308D0266808233362D4F86F
:108D8000903043F00803C4F8903003050BD54B0135
:108D900009D526684FF400633362D4F8903043F06D
:108DA0002003C4F89030D4F89030002B3DD08006DA
:108DB00009D501F0200002F08051084303D0616F13
:108DC00009B120468847D4F890002168896849068F
:108DD00002D410F0280F2AD0204601F069F920684B
:108DE000806840061ED52068083050E8001F21F03A
:108DF000400100E021E040E80012002AF3D1D4F85D
:108E0000800078B175498163D4F88000FEF715FCC5
:108E100000280AD0D4F88000816B00E02046BDE82D
:108E2000F04108472046FFF754FFBDE8F081204697
:108E3000FFF74FFFC4F89050F7E7D4F86CC0202735
:108E4000BCF1010F7ED15FEAC06C7BD55FEAC16CDB
:108E500078D51020186220688068400645D5D4F87F
:108E60008010086840680004000CDED0B4F85C2074
:108E70008242DAD9A4F85E000868006880062CD423
:108E8000206850E8001F21F4807140E80012002A99
:108E9000F6D12068083050E8001F21F0010140E8B9
:108EA0000012002AF5D12068083050E8001F21F098
:108EB000400140E80012002AF5D1C4F88C70E56644
:108EC000206850E8001F21F0100140E80012002A3D
:108ED000F6D1D4F88000FEF77BFB2667B4F85C007F
:108EE000B4F85E10401A81B230E0B4F85C00B4F817
:108EF0005E10401A81B2B4F85E00002895D00029B7
:108F000093D0206850E8002F22F4907240E80023AC
:108F1000002BF6D12F4BDB432068083050E8002FA0
:108F20001A4040E8002CBCF1000FF5D1C4F88C7059
:108F3000E5666567206850E8002F22F0100240E8DF
:108F4000002300E006E0002BF4D126672046FFF75F
:108F500070FE6AE7C60209D5560207D54FF48010A5
:108F600018622046BDE8F041FFF7B2BE03060AD5FD
:108F700001F0800302F40002134304D0A16F002922
:108F80007FF44CAF51E7420611D54A060FD5204673
:108F9000016851E8002F22F0400241E80023002B35
:108FA000F6D1C0F88870856700F02AF93DE7020223
:108FB00006D54A0004D52046BDE8F041FFF787BE3C
:108FC000C001C6D50029C4DA2046BDE8F041FFF74C
:108FD00031BE000001000010200100049DA0000827
:108FE00010B5040003D0D4F8880010B107E00120C8
:108FF00010BD002084F88400204600F027F82420CB
:10900000C4F888002068016821F001010160A06AAD
:1090100010B1204600F088FF204601F073F80128C7
:10902000E6D02068416821F4904141602068816861
:1090300021F02A0181602068016841F0010101608E
:109040002046BDE8104000F0D3BF00002DE9F047F6
:109050009AB00446142114A8FCF73DFA5021684642
:10906000FCF739FA5F4920685F4D022700264FF070
:1090700007084FF0100A4FF08009884250D10120B4
:10908000CDE900066846FEF7C7FD08B1FEF79EFA77
:10909000286E40F480402866286E00F480401990C5
:1090A000E86C40F00100E864E86C16AA00F00100EA
:1090B00019904FF4C060CDE9140782E8C00114A9EB
:1090C0004FF09040FEF7C0FB494D48482860C5E985
:1090D00003696E611920AE61C5E9010A4FF4405081
:1090E000C5E907602846FEF741FB08B1FEF76EFAB6
:1090F000E567002211462520AC62FEF7EDFC252035
:10910000FEF7DCFC3B490868026842F0100202608E
:109110000868016841F0200101601AB0BDE8F087DD
:1091200035498842F9D10420009003966846FEF73D
:1091300073FD08B1FEF74AFAA86D40F48020A865D7
:10914000A86D00F480201990E86C40F00400E864F9
:10915000E86C14A900F0040019904FF44060CDE9C8
:1091600014070320CDE91660CDF860802348FEF790
:109170006BFB1F4D1D486035283028601C20C5E959
:109180000106C5E903696E614FF40058AE61C5E997
:1091900007684F462846FEF7E9FA08B1FEF716FAC7
:1091A000C4F88050AC62124D1048C0353C30286085
:1091B000C5E903676E611D20AE61C5E9010AC5E915
:1091C00007682846FEF7D2FA08B1FEF7FFF9E5670F
:1091D000002211462720AC62FEF77EFC2720FEF716
:1091E0006DFC9AE700380140001002401C0002406C
:1091F0009C02002074010020004800400008004844
:109200007047FEE7114C08B5A06D40F08050A06596
:10921000A06D00F080500090FEF7F6FCA16DA06DEF
:1092200040F00100A0650143A16509494AF2A5503B
:109230000860BFF34F8F07480168074A01F4E061F7
:1092400011430160BFF34F8F00BFFDE700100240E4
:10925000002500400CED00E00400FA05194808B5AF
:10926000816C41F004018164816C01F00401009182
:10927000816C41F001018164806C002200F00100EA
:10928000009011460B20FEF727FC0B20FEF716FC82
:10929000002211460C20FEF71FFC0C20FEF70EFCEE
:1092A000002211460E20FEF717FC0E20FEF706FCEA
:1092B000002211460F20FEF70FFCBDE808400F20EA
:1092C000FEF7FCBB001002402DE9F04186B01421EE
:1092D0006846FCF700F93B48C16C41F02001C164CD
:1092E000C16C01F020010591C16C41F00101C16424
:1092F000C16C01F001010591C16C41F00201C16432
:10930000C16C01F002010591C16C41F00401C1641E
:10931000C06C4FF0904700F004000590002240F62A
:10932000FF113846FEF76DFBDFF89C80002241F20A
:1093300008014046FEF765FB40F6FF00009001255E
:109340000024CDE90154694638460394FEF77CFABF
:109350002803CDE900050320CDE9024069464046D7
:10936000FEF772FA28020226CDE90005CDE9024691
:1093700069463846FEF768FA0820CDE90005CDE9D0
:10938000024669464046FEF75FFAF02000904FF42F
:109390000410CDE9010469464046FEF755FA002263
:1093A00011460A20FEF798FB0A20FEF787FB0022F1
:1093B00011461720FEF790FB1720FEF77FFB06B043
:1093C000BDE8F0810010024000040048124810B5CA
:1093D000104901604FF48271416000214FF4E06256
:1093E000C0E902124FF400720161C0E905122022A7
:1093F000C0E9072107224162C0E90A12016308217E
:109400004163FFF7B9F8002803D0BDE81040FEF72C
:10941000DDB810BD003800401800002010B588B03D
:109420000024184800940194029403940494059431
:1094300013490694C0E900144FF42651C0E90241D3
:10944000046144618461FFF7DAF908B1FEF7BEF800
:109450004FF48050009069460A48FFF773FA08B14C
:10946000FEF7B4F80494059404A906480694FFF79F
:109470006FF9002801D0FEF7A9F808B010BD000070
:10948000002C0140DC0000203EB500240F48009471
:1094900001940D4902940160A921C0E9011440F230
:1094A000E7318461C160FFF7AAF908B1FEF78EF8D1
:1094B0000094694605480294FFF74AF9002801D054
:1094C000FEF784F83EBD0000001000402801002097
:1094D0001A4810B5184901604FF4614141604FF4DA
:1094E0008051816000214FF4C062C0E903120C2258
:1094F000C0E90521C161016241628162FFF770FD2F
:1095000008B1FEF763F800210C48FFF7BAFB08B179
:10951000FEF75CF800210948FFF78DFB08B1FEF764
:1095200055F80648FFF766FB002803D0BDE8104059
:10953000FEF74CB810BD0000003801407401002057
:10954000174810B515490160164941600021816036
:109550000C22C160C0E904128161C16101624162F3
:109560008162FFF73DFD08B1FEF730F800210C489D
:10957000FFF787FB08B1FEF729F800210848FFF73D
:109580005AFB08B1FEF722F80548FFF733FB002825
:1095900003D0BDE81040FEF719B810BD00480040E8
:1095A00008020020A0252600FEE700002DE9F0417A
:1095B0000E464900184FCA1CD4B297F87621174DB1
:1095C0002A7097F877216A70A97000220FE081183D
:1095D0003A290AD207EB4101B1F8743205EB420196
:1095E0004FEA132C81F803C00B71521C92B2B242A5
:1095F000EDD32146094800F015FB2855000A29192A
:109600004870C5F80452A41C85F80842BDE8F04132
:10961000034800F075BF0000C8070020BC0300200D
:10962000C00500202DE9F0410E464900174FCA1C25
:10963000D4B297F87621164D2A7004226A70A97068
:1096400000220FE081183A290AD207EB4101B1F854
:10965000FE3005EB42014FEA132C81F803C00B7179
:10966000521C92B2B242EDD32146094800F0DAFA18
:109670002855000A29194870C5F80452A41C85F819
:109680000842BDE8F041034800F03ABFC807002097
:10969000BC030020C005002008480146D1F8002185
:1096A000D1F8041102604160C0F80402082180F87A
:1096B000081200F5017000F023BF0000BC03002079
:1096C000154810B590F87611144C217090F8771168
:1096D000617090F87811A17090F87911E17090F8AC
:1096E0007C11217190F87D0160710621204600F007
:1096F00099FAA0710621204600F094FA000AE07160
:10970000C4F80442082084F8080204F50170BDE89A
:10971000104000F0F5BE0000C8070020BC03002088
:1097200010B51A48FDF737FF194991F8002119487B
:1097300080F8762191F8011180F8771190F8761170
:10974000032904D0BDE810401048FDF739BF90F858
:10975000770103280AD004280CD006280ED0102840
:1097600010D0BDE81040052000F03ABABDE8104026
:1097700000F012B8BDE8104000F07CB8BDE8104021
:1097800000F0F8B8BDE8104000F088B9740100207E
:10979000BC030020C807002010B5164CB4F8000226
:1097A000082801D0032020E000F028F894F80611E2
:1097B000114890F86722914205D194F8071190F86A
:1097C0006822914201D001200FE0B0F87A1190F8A0
:1097D000662211443A2907D890F86612B0F87A0147
:1097E000BDE81040FFF7E2BE0220BDE8104000F0E7
:1097F000F7B90000BC030020C807002030B51A48A4
:1098000090F80211194C84F8781190F8031184F83B
:10981000791194F8791194F8782141EA0221A4F899
:109820007A1190F8041184F87C1190F8050184F8FD
:109830007D0194F87D0194F87C1140EA012084F8C0
:10984000660294F866021D280DD2094806210546D5
:1098500000F0E8F984F867020621284600F0E2F9F2
:10986000000A84F8680230BDBC030020C80700204D
:10987000BC04002070B5234CB4F80002082801D0C5
:1098800003203BE000F042F894F806011E4D95F8E5
:109890006712884205D194F8070195F8681288424A
:1098A00001D001202AE0B5F87A0195F86612084443
:1098B0003A2822D8002414E095F8660220443A2879
:1098C0000DD2B5F87A11601C0844C0B200F0DAF984
:1098D000B5F87A11214405EB4101A1F8FE00641CA2
:1098E000A4B295F86602A042E6D895F86612B5F8DB
:1098F0007A01BDE87040FFF795BE0220BDE87040D8
:1099000000F06EB9BC030020C8070020164810B54F
:1099100090F80211154C84F8781190F8031184F82E
:10992000791194F8791194F8782141EA0221A4F888
:109930007A1190F8041184F87C1190F8050184F8EC
:109940007D0194F87D0194F87C1140EA012084F8AF
:1099500066020621064804F2492400F063F9A07764
:10996000000AE07710BD0000BC030020C8070020FB
:10997000BC04002010B52A4CB4F80002082801D01D
:10998000032049E000F050F894F80601254991F8C9
:109990006722904205D194F8070191F8682290421D
:1099A00001D0012038E0B1F87A01052823D006DC87
:1099B00005280CD2DFE800F01C1F1F1F1F0006281F
:1099C00019D0072817D0082815D0FF2820D0B1F8C3
:1099D0007A01401C3A281ED8B1F8F201B1F87A2178
:1099E00001EB4201A1F87402BDE81040FFF754BE3C
:1099F00000F033F9F8E7B1F8F2010028B1F87A0184
:109A0000C0B202D000F06AF9EEE700F053F9EBE7DC
:109A100000F02DF9E8E70220BDE8104000F0E0B8C2
:109A2000BC030020C807002030B5194890F8021187
:109A3000184C84F8781190F8031184F8791194F88F
:109A4000791194F8782141EA0221A4F87A1190F86A
:109A5000041184F87E1190F8050184F8B80194F897
:109A6000B80194F87E1140EA0120A4F8F2010A48F6
:109A70000621054604F5BC7400F0D4F884F8EF0024
:109A80000621284600F0CEF8000A84F8F00030BD28
:109A9000BC030020C8070020BC040020204910B5EA
:109AA00091F80601B1F800220930824236D1014412
:109AB00011F8FE2F4978801E42EA0124C1B21948EC
:109AC00000F0B0F8A04201D0012023E000F02EF811
:109AD000154991F87D0191F87C2140EA0222B1F804
:109AE0007A0110443A2814D800200CE001EB40031E
:109AF000B3F8F231B1F87A41044401EB4404A4F81C
:109B00007432401C80B29042F0D3BDE81040FFF7A1
:109B1000D7BD0220BDE8104000F062B80320F9E78D
:109B2000BC030020BC040020C807002070B5294DEC
:109B300095F80201284C84F8780195F8030184F81F
:109B4000790194F8790194F8781140EA0120A4F899
:109B50007A0195F8040184F87C0195F8050184F8F0
:109B60007D0194F87D0194F87C1140EA012395F879
:109B7000060184F866021D2B2BD2002016E005EBAF
:109B8000400292F80761211881F87E6192F808215D
:109B900081F8B82191F8B82191F87E1142EA0121AB
:109BA00004EB4002A2F8F211401C80B29842E6D3C6
:109BB000072000EB43050948E9B2064600F032F8F9
:109BC00084F86702E9B2304600F02CF8000A84F805
:109BD000680270BDBC030020C8070020BC04002040
:109BE0000E4910B591F876210D4C227091F877113D
:109BF00041F080016170A0700321204600F012F84E
:109C0000E070000A2071C4F80442052084F80802BC
:109C100004F50170BDE8104000F072BCC8070020D8
:109C2000BC03002030B503464FF6FF704AF2010432
:109C30000DE013F8012B50400022C50702D084EA42
:109C4000500000E04008521CD2B2082AF5D3491E49
:109C5000C9B2EED230BDFEE7704710B501242046F0
:109C600000F028F8641CE4B2082CF8D910BD10B537
:109C70000124204600F032F8641CE4B2082CF8D924
:109C800010BD000010B5411E07290ED80849084A2A
:109C900001EB4001103202EB800031F8021C50F859
:109CA000040CFDF7A9FE012800D0002010BD000023
:109CB00094A90008411E07290DD80749064A01EB5F
:109CC0004001103202EB800031F8021C50F8040C05
:109CD0000022FDF796BE704794A90008411E07298F
:109CE0000DD80749064A01EB4001103202EB800013
:109CF00031F8021C50F8040C0122FDF782BE7047B7
:109D000094A900087047FDF787BE10B594B03821BC
:109D10006846FBF7E0FB14210EA8FBF7DCFB0020F4
:109D2000FDF70CFF012000900004032404210190A2
:109D3000CDE9084102205521CDE90A1007900C9089
:109D40000D906846FEF71EFA08B172B6FEE70F20C6
:109D5000CDE90E04002010901190129004210EA85D
:109D6000FEF7DAF8002801D072B6FEE714B010BD95
:109D70000248016841F470010160704788ED00E01D
:109D80000148FEF762BE0000DC00002010B5FDF7C0
:109D9000DFFABDE810400148FEF757BE2801002059
:109DA0002DE9F04702682B4D2B4E2C4F2C4B2D4CA0
:109DB0004FF0804AA84209D0504507D0B04205D0A4
:109DC000B84203D0984201D0A04204D122F0700CD6
:109DD0004A6842EA0C02DFF890C0DFF89080DFF8B2
:109DE0009090A8420FD050450DD0B0420BD0B84251
:109DF00009D0984207D0604505D0404503D048457A
:109E000001D0A04203D122F44076CA6832434E69A1
:109E100022F08002324302608A68C2620A6882626B
:109E2000A84209D0984207D0604505D0404503D0EC
:109E3000484501D0A04201D1096901630121416176
:109E40000169C90703D0016921F001010161BDE881
:109E5000F0870000002C0140000400400008004092
:109E600000340140005001400040014000440140E6
:109E70000048014010B5846842EA032224F47F447C
:109E80000A432243826010BD8268034B1A400A4392
:109E900042F00701816070478FFFCFFF10B5046A61
:109EA000036A23F001030362836923F0F00343EAAA
:109EB000021324F00A020A438361026210BD10B546
:109EC000036A046A24F010040462846923F0A00386
:109ED00024F4704444EA023243EA011182610162CF
:109EE00010BD000030B5416EB9B10268916892684A
:109EF000C1F342610B4C520FA35CDD0004F1080377
:109F00009A5CB5FBF2F2A0F86A20625C595CD20060
:109F1000B2FBF1F1A0F8681030BD0121A0F86A1081
:109F2000F8E700006AA9000890F82810090706D58C
:109F300001684A68836B22F400421A434A6090F831
:109F40002810C90706D001684A68C36A22F40032A3
:109F50001A434A6090F82810890706D501684A68B4
:109F6000036B22F480321A434A6090F828104907A4
:109F700006D501684A68436B22F480221A434A607E
:109F800090F82810C90606D501688A68C36B22F4C8
:109F900080521A438A6090F82810890606D5016815
:109FA0008A68036C22F400521A438A6090F82810E1
:109FB000490611D501684A68436C22F480121A439D
:109FC0004A60416CB1F5801F06D101684A68836C14
:109FD00022F4C0021A434A6090F82810090606D5F8
:109FE00001684A68C06C22F4002202434A6070474C
:109FF0002DE9F84300250446C0F89050FDF706FD12
:10A000008046206800684FF0200600076FF07E470A
:10A0100013D54346002231042046009700F0BEF9D4
:10A0200058B1206850E8001F21F0800140E800127C
:10A03000002AF6D1C4F8886021E020680068400753
:10A0400022D5434600224FF480012046009700F0BD
:10A05000A5F9C8B1206850E8001F21F4907140E8CC
:10A060000012002AF6D12068083050E8001F21F0C5
:10A07000010140E80012002AF5D1C4F88C6084F890
:10A0800084500320BDE8F883C4F88860C4F88C606D
:10A0900044F86C5F656025760020F3E710B5806AB0
:10A0A0000021A0F85E10A0F85610FEF712FE10BDB9
:10A0B00010B5016851E8002F22F4907241E80023A6
:10A0C000002BF6D10E4B0168083151E8002F1A40E1
:10A0D00041E80024002CF6D1C16E012908D10168A5
:10A0E00051E8002F22F0100241E80023002BF6D1A6
:10A0F0002021C0F88C100021C166416710BD00000E
:10A10000FEFFFFEF2DE9F041044600682269A168D7
:10A11000E66911436269002532431143934B02689B
:10A12000934E32400A43026020684168E26821F49D
:10A130004051114341602168A069994201D0226ACF
:10A1400010438A688B4E324002438A602068C16A9D
:10A15000626A21F00F011143C16287492268874872
:10A160008A420DD1D0F8880010F0030006D00128F3
:10A1700067D0022854D0032851D164E001204FE079
:10A180007F498A420BD1D0F8880010F00C0047D0EC
:10A19000042845D0082852D00C2840D153E07949F2
:10A1A0008A420BD1D0F8880010F0300038D0102847
:10A1B00047D0202843D0302831D144E072498A4228
:10A1C0000BD1D0F8880010F0C00029D0402838D03A
:10A1D000802834D0C02822D135E06C498A420ED183
:10A1E000D0F8880010F440701AD0B0F5807F28D0E5
:10A1F000B0F5007F23D0B0F5407F10D123E09A4224
:10A200000DD1D0F8880010F4406009D0B0F5806F0F
:10A2100017D0B0F5006F12D0B0F5406F13D01020FA
:10A220005B495C4E00274FF4004C9A423BD160B131
:10A23000022813D004280BD0082872D10DE0022088
:10A24000EEE70420ECE70820EAE7FDF74BFF01E02A
:10A25000FDF76CFF010001D17CE06146606A36F8D1
:10A2600010206668B1FBF2F006EB4603834270D81B
:10A27000B0EB063F6DD8002308461946FBF772F88D
:10A28000090241EA10610202700810187941324651
:10A290000023FBF767F8404AA0F54071914258D877
:10A2A0002168C86056E0E2694FF6EF7862452CD12C
:10A2B00009284ED2DFE800F00508114D0D4D4D4D37
:10A2C0001000FDF70FFF01E0FDF71EFF010004D1B4
:10A2D00040E0FDF72BFFF9E76146606A36F81000B1
:10A2E000B1FBF0F04100606801EB5001B1FBF0F010
:10A2F000A0F1100141452CD84FF6F0710140C0F398
:10A30000420001432068C16024E0092821D2DFE82F
:10A3100000F0050912200E2020201100FDF7E2FEBA
:10A3200002E016E0FDF7F0FE010004D112E0FDF7B7
:10A33000FDFEF9E76146606A36F81000B1FBF0F106
:10A34000606801EB5001B1FBF0F0A0F11001414554
:10A350000AD901250120A4F86A0024F8680F2846CC
:10A36000E7602761BDE8F08180B299E70080004096
:10A37000F369FFCFFFF4FF110038014000100240E5
:10A380000044004000480040004C004000500040A5
:10A390000024F40052A90008FFFC0F002DE9F0474B
:10A3A0001F4690460D4604464FF00009089E32E0D5
:10A3B000701C30D0FDF72AFBC01BB04218D8BEB1CC
:10A3C00020680168490726D5802D24D0402D22D051
:10A3D000C169C94309070DD4082505622046FFF766
:10A3E00067FEC4F8905084F884900120BDE8F0879F
:10A3F0000320FBE7C069C04300050CD421684FF47B
:10A40000006008622046FFF753FE2020C4F8900049
:10A4100084F88490ECE72068C06935EA000004D035
:10A4200000204045C4D00020E0E70120F9E700000B
:10A4300070B52B4801682B4C89064FF0000511D5EB
:10A44000B4F80002FF2801D9A4F8005224480830CB
:10A450000168B4F800022218401CA4F8000282F837
:10A46000001135E001684A061F4912D540200860F6
:10A470001B481C38016821F0480101601B48FDF7AA
:10A480009FF800224FF480714FF09040FDF7B9FA29
:10A490001EE00068C0061BD510200860B4F800025A
:10A4A00002280DD3B4F800120E48FF30085C0A28C9
:10A4B00006D1B4F800120B48FE30085C0D280CD011
:10A4C000B4F80002042801D3FFF72AF9A4F80052D7
:10A4D000BDE870400548FEF7FDBB00F05BF8F5E70E
:10A4E0001C380140BC0300202038014074010020CA
:10A4F0000148FEF7EFBB000008020020FEE7000065
:10A5000010B50446012211024FF09040FDF779FA90
:10A510000B48016841F0080101600A49C86920F050
:10A520000100C861702048602068886204482830B3
:10A53000486220790862C86940F00100C86110BD16
:10A5400000380140000002400FB4104810B5016A05
:10A550000029FCD103AB4FF400710D48029AFAF7C1
:10A5600079FF0B48A0F50374C4F80402FAF78CFFD6
:10A5700084F8080204F50170FFF7C2FF4FF0904025
:10A580004169C905FCD410BC5DF814FB0000024011
:10A59000C805002010B50948FCF7FDFF0848002158
:10A5A000B0F8003200F1FE029954B0F80032521CAB
:10A5B0009954012180F8021210BD0000740100209E
:10A5C000BC0300202DE9F04F4A4885B045A18346E1
:10A5D000FAF7A8FF002828D047A15846FAF7A2FFAB
:10A5E000002865D047A15846FAF79CFF00286AD09A
:10A5F00048A15846FAF796FF002867D04AA1584666
:10A60000FAF790FF002863D04AA15846FAF78AFF6C
:10A61000002860D04B48FCF7D3FF05B05846BDE892
:10A62000F04F4FF48071FAF756BF0820FFF72AFB6E
:10A6300008B145A000E045A080460720FFF722FBB7
:10A6400008B141A700E041A70620FFF71BFB08B1B6
:10A650003DA600E03DA60520FFF714FB08B13AA592
:10A6600000E03AA50420FFF70DFB08B136A400E096
:10A6700036A40320FFF706FB08B133A000E033A0A7
:10A6800082460220FFF7FEFA08B12FA000E02FA0BB
:10A6900081460120FFF7F6FA08B12BA100E02BA1BB
:10A6A0008DE8F00153464A4629A0FFF74DFFB4E775
:10A6B00035A0FFF749FF39A0FFF746FF3AA0FFF7A3
:10A6C00043FF40A00AE0FEF79DFDA6E742A005E09B
:10A6D000FFF7CDFA01E0FFF7C0FA41A0FFF734FF22
:10A6E0009BE70000426F617264205374617475735C
:10A6F00000000000BC040020426F61726420496EBB
:10A70000666F00004669726D7761726520557064EE
:10A71000617465004669726D776172652076657255
:10A7200073696F6E0000000052656C617920416CA6
:10A730006C4F6E0052656C617920416C6C4F66669F
:10A7400000000000740100204F4E00004F464600FC
:10A7500052656C61793A204B313A2573204B323A7D
:10A760002573204B333A2573204B343A2573204B05
:10A77000353A2573204B363A2573204B373A2573EB
:10A78000204B383A25730A004D43553A2053544D17
:10A79000333247343931434355360A0046573A205D
:10A7A00056322E300A00000048573A20456E636F3B
:10A7B0006465722046435420426F617264205631B2
:10A7C0002E300A004B312D4B38202D3E2050413089
:10A7D0002D5041370A00000056322E300D0A00007D
:10A7E0004F4B0D0A0000000003B40198410000988F
:10A7F00050EAC12018BF04204A0D18BF40F00100E4
:10A8000040F2FF72B2EB515F08BF40F00200012836
:10A8100008BF052002B070470907090E002804DBB5
:10A8200000F1E02080F80014704700F00F0000F104
:10A83000E02080F8141D704730380A2801D201202A
:10A840007047002070470000FDF7EEF8FFF75DFA53
:10A85000FCF7C2FAFEF738FDFEF700FDFEF738FE02
:10A86000FEF7B4FDFEF7DAFDFEF76AFEFEF70CFE1A
:10A8700000F020F8FFF7F1F9FCF774FC0A48FEF746
:10A8800021F80A4D0A4C002695F8020218B185F805
:10A890000262FFF797FE20680028F5D001202660AD
:10A8A000FCF7B0FDF0E7000028010020BC03002009
:10A8B000000000200A48016841F080010160094859
:10A8C000C16941F00201C16105480838016841F0E1
:10A8D00030010160002281154FF09040FDF791B8E2
:10A8E000083801400000024010B500290AD008785D
:10A8F000002807D005487844FAF714FE002801D054
:10A90000002010BD0248784410BD00000A0200007B
:10A910000202000010B500290AD00878002807D0EC
:10A9200005487844FAF7FEFD002801D0002010BD4C
:10A930000248784410BD0000FA010000F201000056
:10A940004FF04070E1EE100A7047FBF782BAFBF758
:10A95000B7BB010002000400060008000A000C005A
:10A9600010002000400080000001010101030701E8
:10A9700000000804020408010101000000000000BA
:10A98000000001020304060708090000000001029C
:10A990000304000001000200040008001000200071
:10A9A000400080000000004800000048000000480F
:10A9B0000000004800000048000000480000004877
:10A9C000000000480102040810C0F9A4B099928266
:10A9D000F880908883C6A1868EBFFF89C78C86F7D2
:10A9E000AF879200000000000000000030313233D9
:10A9F00034353637383941424344454640305800B3
:10AA000030313233343536373839616263646566E4
:10AA10004030780004000008000000000000000240
:10AA200000010000103031323334353637383961A7
:10AA3000626364656678700030313233343536379E
:10AA40003839414243444546585000000240000016
:10AA5000000000A00000000005400000000000C849
:10AA6000000000000C4000000000409C00000000BE
:10AA7000194000000020BCBE00000000344000006F
:10AA8000BFC91B8E00000004B5400000504BCFD062
:10AA90006607E2CF010000006C4100003E8251AA2F
:10AAA000DFEEA73401000000D9420000DCB5A0E2CF
:10AAB0003A301F97FFFFFFFFB4450000FD25A0C8F7
:10AAC000E9A3C14FFFFFFFFFFF3F00000000008030
:10AAD00000000000FF3F00000000008000000000B8
