:020000040800F2
:10500000F0120020255300085FA10008F396000865
:10501000999A0008F16D000845AA000800000000F8
:105020000000000000000000000000000DA20008C9
:10503000297600080000000061A100084DA20008C8
:105040003F5300083F5300083F5300083F530008F8
:105050003F5300083F5300083F5300083F530008E8
:105060003F5300083F53000837760008F56D0008ED
:10507000316E00083F530008656E0008716E00082D
:105080003F5300083F5300083F5300083F530008B8
:105090003F5300083F5300083F5300083D76000887
:1050A0003F530008C9A200083F5300083F530008BF
:1050B0003F5300083F5300083F5300083F53000888
:1050C0003F5300083F5300083F5300083F53000878
:1050D0003F53000879A900083F53000839AA000887
:1050E0003F5300083F5300083F5300083F53000858
:1050F0003F5300083F5300083F5300083F53000848
:10510000000000003F530008000000003F5300086B
:105110003F5300083F530008D5A200083F53000842
:105120003F5300083F5300083F5300083F53000817
:105130003F53000800000000000000003F5300083B
:105140003F5300083F53000800000000000000002B
:10515000000000000000000000000000000000004F
:105160000000000000000000000000003F530008A5
:105170003F5300083F5300083F5300083F530008C7
:105180003F5300083F5300080000000000000000EB
:1051900000000000000000003F5300083F530008DB
:1051A00000000000000000003F5300083F530008CB
:1051B0003F5300083F5300083F5300083F53000887
:1051C0003F5300083F5300083F5300083F53000877
:1051D0003F5300083F53000800F002F800F092F837
:1051E0000AA090E8000C82448344AAF10107DA4542
:1051F00001D100F087F8AFF2090EBAE80F0013F002
:10520000010F18BFFB1A43F001031847705E00003E
:10521000905E0000103A24BF78C878C1FAD85207CF
:1052200024BF30C830C144BF04680C607047000020
:105230000023002400250026103A28BF78C1FBD89F
:10524000520728BF30C148BF0B6070476E2900F07D
:105250004B82702900F09583662905F04286652906
:1052600005F03F86672905F03C86612905F03B86FD
:1052700003681B0A28BF41F08001692900F0F8810A
:10528000642900F0F581752900F0F2816F2900F0A2
:105290002283782900F06183E92900F0BD82E429A6
:1052A00000F0BA82F52900F0B782EF2900F01F83E1
:1052B000F82900F060830368DB0928BF41F0800112
:1052C000632901F08580732901F08A80E32901F0C8
:1052D0009580F32901F09A80002070471FB505F0F2
:1052E000FBFD01F0E5F804000020002105F0DEFDE3
:1052F000401C60600020002105F0C2FDE0601FBD81
:1053000010B510BD01F0A6F81146FFF7E7FF05F054
:105310005DFD01F083F903B4FFF7F2FF03BC01F078
:105320008BF900000948804709480047FEE7FEE77F
:10533000FEE7FEE7FEE7FEE7FEE7FEE7FEE7FEE745
:1053400004480549054A064B70470000B9A2000809
:10535000D9510008F00C0020F0120020F00E0020BF
:10536000F00E002053EA020C00F069802DE9F04BAA
:105370004FF00006002B1FBFB3FA83F503FA05F4C4
:1053800024FA05F65E4012BF1643B2FA82F502FA1D
:1053900005F4C5F120051EBF22FA05FC44EA0C0401
:1053A000203556EA044C4FEA144418BF641C4FF0F1
:1053B00000084FF00009904271EB030C39D300292B
:1053C00019BFB1FA81F701FA07F6B0FA80F700FACF
:1053D00007F6C7F120071EBF20FA07FC46EA0C06B5
:1053E0002037B6FBF4FCA7EB0507103F07F01F0BB7
:1053F000CBF120060CFA0BFB2CFA06F644BFB346A1
:105400000026202FA4BF5E464FF0000B5BEA060C7F
:1054100008BF4FF0010B19EB0B09ABFB027C48EB0B
:105420000608C01B06FB02CC0BFB03CC71EB0C0186
:10543000C1E70B46024641464846BDE8F08B13B52E
:105440004FF000004FF00001AFF30080BDE81C40BA
:10545000704700007CB51D4616460C00009001D038
:105460002044401E074B7B442A4669460190304643
:1054700000F053F905461CB10020694600F060F9C0
:1054800028467CBDE102000010B5431C02E010F884
:10549000011B71B18107FAD14FF0013202C88C1A99
:1054A0008C4314EAC211F9D0C01A0A0603D0C01EF8
:1054B00010BDC01A10BD0A0401D0801E10BD090223
:1054C000FCD0401E10BD02F0FF0343EA032242EA73
:1054D000024200F027BB4FF0000200B5134694468D
:1054E0009646203922BFA0E80C50A0E80C50B1F13C
:1054F0002001BFF4F7AF090728BFA0E80C5048BF50
:105500000CC05DF804EB890028BF40F8042B08BFED
:10551000704748BF20F8022B11F0804F18BF00F8E9
:10552000012B70474FF0013C50F8042B51F8043B1D
:105530009A4221D1A2EB0C03934313EACC1317D167
:1055400050F8042B51F8043B9A4215D1A2EB0C03FE
:10555000934313EACC130BD150F8042B51F8043BBE
:105560009A4209D1A2EB0C03934313EACC13DBD08C
:105570004FF00000704700BFD01A01BAB1FA81F1B4
:1055800001F0180122FA01F0CB40C1F12001DBB299
:10559000C0B2C01A2CFA01F3D11A914311EAC31117
:1055A000E6D1704770477047704770B5044685690B
:1055B0000068C10601D5302600E02026C00707D0CC
:1055C00070BDD4E9012130469047206A401C20621A
:1055D0006D1EF6D570BD70B5044685690078C007AC
:1055E00007D170BDD4E9012120209047206A401CDA
:1055F00020626D1EF6D570BD09684A0501D540B21E
:105600007047C905FCD500B2704709684A0501D545
:10561000C0B27047C905FCD580B2704770B50C4662
:105620000546012A05D02878800600D5EA690023BE
:1056300002E0012305E05B1C934202D2E05C0028FB
:10564000F9D1A869E618C01AA861286A1844286226
:105650002846FFF7AAFF04E0D5E9012114F8010B61
:105660009047B442F8D32846FFF7B5FF70BD00005D
:105670002DE9F0410646002410687529314616A52B
:1056800010D0FFF7B9FF002802DA404213A507E067
:1056900031688A0701D512A502E0490704D511A592
:1056A000012401E0FFF7B1FF00210A2206F12407DF
:1056B00009E0B0FBF2FCB0FBF2F302FB1C0030305F
:1056C00078541846491C0028F3D123462A46304610
:1056D000BDE8F04100F08BBA000000002D00000092
:1056E0002B0000002000000011680268006A5305CA
:1056F00001D508700AE0D30501D5088006E013063D
:1057000003D5C217C1E9000200E00860012070471C
:1057100001694A1C02610878704700B58FB0CDE975
:1057200001310021059105497944CDE90310114665
:10573000684600F031F90FB000BD0000E5FFFFFF43
:105740000A6802F8010B0A607047D1E900239A4207
:1057500002D2531C0B601070704700002DE9FF5FF0
:1057600015468A460446DFF8AC80F8440027D8E99D
:1057700000103E46CDE9001010E03AF816106A46D7
:1057800002A800F047FE411C07D02178890603D506
:10579000E269391891420DD80744761C20788006BA
:1057A00002D5E069B84205DDAE42E6DB3AF8160004
:1057B0000028E2D1A069C01BA0612046FFF7F5FEDA
:1057C000D8E90010CDE90010002017E03AF81810D1
:1057D0006A4602A800F01EFEB0F1FF3F81460BD0E2
:1057E00000250DF1080B05E0D4E901211BF80500A7
:1057F00090476D1C4D45F7D308F10100B04280463B
:10580000E4DB206A384420622046FFF7E4FEBDE86E
:10581000FF9F0000125800002DE9F0418046D21D84
:1058200022F007020025D2E90002F52915A614D0BE
:10583000011E72F1000106DA0023D0EB030063EBD6
:10584000020211A608E0D8F800108B0701D50FA6B8
:1058500002E0490701D50EA601251146002408F1F2
:10586000240704E000F07EF930323A55641C50EA17
:105870000102F7D12B46324621464046BDE8F041B1
:1058800000F0B5B9000000002D0000002B00000062
:105890002000000030B4002100F1240408E002F0F0
:1058A0000705D208303542EA4372DB086554491CCB
:1058B00052EA0305F3D10468002310A2250707D597
:1058C000A40600D421B1C46901230DA2641EC461E1
:1058D00030BC00F08CB910B5044621461068FFF7C3
:1058E00094FE02462046BDE810400023D2E7D21DB8
:1058F00022F00701D1E90023CCE7000000000000FE
:1059000030000000F0B40D460188090502D5214C95
:105910007C4402E01F4C7C440E34002100F124063C
:1059200008E002F00F071209E75D42EA03721B0963
:105930007754491C52EA0307F3D102780023120777
:1059400004D5702D06D009B1022311342246F0BCD3
:1059500000F04DB901231034F8E770B504460D4648
:1059600021461068FFF751FE024629462046BDE851
:1059700070400023C6E7D21D22F00703D3E90023BD
:10598000C0E70368126843F0200303600823C36183
:105990000023B7E7745600002DE9F05F89460446FE
:1059A0004FF0000ADFF874B1FB44C0F820A0204695
:1059B000E1688847002874D0252806D0D4E9012161
:1059C0009047206A401C2062F1E700265F4620468F
:1059D000E16888472028054607DB312D05D2781974
:1059E00010F8200C08B10643F1E7B00701D526F006
:1059F0000406C4F81CA00027C4F818A02A2D09D05A
:105A0000284605F0BDF938B304EB8708303DC8F8E7
:105A1000185019E059F8041B204604EB87029161E5
:105A2000E1688847012F054618D1E069002820DA8F
:105A300026F020061DE0D8F8180000EB800005EBEA
:105A400040003038C8F818002046E168884705460D
:105A500005F096F90028EED1012F0AD02E2D08D19D
:105A60002046E16888477F1C0546022F46F0200645
:105A7000C4DBA069002803DA404246F00106A061B9
:105A8000F00701D026F010066C2D0BD0682D09D040
:105A90004C2D39D06A2D35D0742D35D07A2D33D098
:105AA00016E038E0E1682F4620468847B8420546B0
:105AB00009D16C2F26D04FF48060E1680643204660
:105AC0008847054604E06C2F1AD04FF480700643D7
:105AD0000DB3A5F14100192802D8203546F400661F
:105AE0004A462946204626604E46FFF7AFFB80B166
:105AF00001280BD0F61D26F0070000F1080956E733
:105B00004020E4E78020D8E70020D6E706F104092A
:105B10004DE7284652E7206ABDE8F09F0456000092
:105B20004FF000020429C0F0128010F0030C3FF483
:105B3000D4ACCCF1040CBCF1020F18BF00F8012B5F
:105B4000A8BF20F8022BA1EB0C01FFF7C6BC5FEA4F
:105B5000C17C24BF00F8012B00F8012B48BF00F8DE
:105B6000012B704730B5B0F10A024FEA900E71F187
:105B700000034EEA817EB0EB0E0061EB91014FEA2B
:105B8000101E4EEA017E10EB0E0041EB11114FEAA0
:105B9000102E4EEA016E10EB0E0041EB11214FEA80
:105BA000104E4EEA014E10EB0E0041EB1141401831
:105BB00041F100014FEAD00040EA41704FEAD101C3
:105BC00010EB80054FEA810444EA907444EB010431
:105BD0006D1944EB0404521BA3414FF0000348BF6E
:105BE0000A3200D530BD401C41F1000130BD2DE925
:105BF000F0470D4699469246044600F12408016894
:105C0000880604D5E06921F01001216000E0012040
:105C1000A84201DD471B00E00027A1697A1902EBC9
:105C20000900081AA0612078C00602D42046FFF7B8
:105C3000BCFC002608E0D4E901211AF806009047D0
:105C4000206A401C761C20624E45F4DB2078C0069A
:105C50000AD52046FFF7A9FC06E0D4E9012130204F
:105C60009047206A401C2062381EA7F10107F4DC2F
:105C700007E0D4E9012118F805009047206A401C8C
:105C80002062281EA5F10105F3DC2046FFF7A3FCE6
:105C90002078000602D50220BDE8F0870120FBE74E
:105CA00070472DE9FF4F0C461E464FF0FF378BB073
:105CB000D2E90001DDF860800A908A46C1F30A55F6
:105CC00005B93D46002108464FF00000BAF1000F2B
:105CD00000F4400005DA00EB80004FF4400101EAD7
:105CE00050004FEA9059B9F1010F00DDB9460A980A
:105CF00050EA4A000ED044F61050A5F2FF35454355
:105D00002F14B8F1000F1ED07542291E1EDDC9F1F7
:105D100000021CE0B8F1010F4FF0000001D030216B
:105D200003E0F24305E02154401CB042FBDB304667
:105D30000022002121540B99C1F80880C1E90020FC
:105D40000FB0BDE8F08FBD1B6D1CDEE74A4600DAE0
:105D5000694206A800F0F0FB06AB93E8070003AB2E
:105D600083E8070050460A9900F06DFC8DE80700B3
:105D7000A0F500501F3800900398002D0ADD42F274
:105D80001F014A460844002303A90390684600F017
:105D9000D6FE09E0A0F500504A461F38002303A9AB
:105DA0000390684600F0E0FE8DE807000004000C58
:105DB00003D04FF0FF30410800E01046B8F1000F6B
:105DC00003D00022009215461EE0751E05D4FFF791
:105DD000C9FE303262556D1EF9D5B3460122084323
:105DE00002D000227F1C04E02078302801D100225C
:105DF0007F1E002A099784D01DE0112D07DAFFF7D6
:105E0000B1FE303262556D1C50EA0102F5D10843F3
:105E100002D00098C8B10EE00021681E05E0235CA6
:105E2000625C63542254401E491C8142F7DBAB463E
:105E3000A81B401E0990002004F80B000B98099A3B
:105E4000C0F80880C0E9002B7AE711264FF000085F
:105E500057E72DE9F04F88460446D21D22F007018E
:105E600091B0D1E90001CDE90A0104F061FF0246D9
:105E70000B98C00F01D02D2007E02068810701D5C5
:105E80002B2002E0202101EAC000032A099001D062
:105E9000072A05DB03464146204600F00DFB0BE1D7
:105EA0002078800601D5E06900E00620B8F1650F92
:105EB000814606D0B8F1660F18D0B8F1670F70D1DF
:105EC00031E00020B9F1110F009001DB112301E056
:105ED00009F101030AAA01A90CA8FFF7E2FEDDE916
:105EE0000C70002609F10105834647E001204B466E
:105EF00000904FF000470AAA01A90CA8FFF7D1FEB5
:105F0000DDE90DB00C995D46002610B909F10100DC
:105F10000D18B9EB050003D4C0F1FF3609F10105F6
:105F2000A5EB09002BE0B9F1010F01DA4FF00109EF
:105F30000020B9F1110F0090484601DD112300E067
:105F400003460AAA01A90CA8FFF7ABFEDDE90C7015
:105F50004D4600268346207800070AD4AB4500DA78
:105F60005D4601A8012D04DD411911F8011C3029FD
:105F700007D04F4502DA17F1040F04DA01208246F8
:105F80000FE06D1EEEE7002F02DCED1B3E4403E048
:105F9000781CA84200DD7D1CB81B00F1010A4FF0FF
:105FA00000472078000703D4AA4501DB4FF0FF3AF1
:105FB0000021B7F1004F0DF143088DF8431024D0B4
:105FC00002202B23002F01DA7F422D230A21021EFB
:105FD000A0F1010000DC5FB197FBF1FC97FBF1F24F
:105FE00001FB1C7C17460CF1300C08F801CDEEE7E4
:105FF000A8F1010003702188090501D5452100E0C1
:106000006521A0F1010800F8011C09980FA9A1EB76
:106010000807FF1D00B10120411901EBEA70A169D9
:106020003844081A401EA0612078C00602D42046D9
:10603000FFF7BBFA099828B1D4E901219047206AFB
:10604000401C20622078C00622D52046FFF7ADFA1A
:106050001EE0002E04DBB34502DD01A8805D00E0F8
:106060003020D4E901219047206A401C2062761C30
:10607000AAF101005FEA000A0AD100F019FAC0682B
:106080000168405CD4E901219047206A401C2062ED
:10609000281EA5F10105DCDC07E0D4E9012118F890
:1060A000010B9047206A401C2062381EA7F10107AF
:1060B000F3DC2046FFF78FFA032011B041E6000021
:1060C0002DE9F04F04460D46D21D22F0070089B09D
:1060D000D0E900974846394604F02AFE0246F80FF8
:1060E00001D02D2307E02068810701D52B2302E092
:1060F000202101EAC0038DF820300BB1012000E01F
:106100000020032A824601D0072A04DB29462046C4
:1061100000F0D2F93FE12078800601D40D2500E09F
:10612000E569C7F30A560D2D49DA00214FEA175BDE
:1061300008464FF00000002F00F4400007DA00EBA3
:1061400080004FF4400100EBD07001EA600081153F
:10615000012901DD4FF0FF3100224FEA850CBCF12F
:10616000180F06D31346ACF118004FF08052C2400E
:1061700003E04FF4801323FA0CF30CF10C0CBCF188
:10618000200F04D3ACF1200C09FA0CF001E007FA5F
:106190000CF000294FF0004801DD18B90FE00ED1D6
:1061A00040450CD319EB02095F4121B9404502D1AA
:1061B0009F4329EA0209BBEB175F00D0761C2088B9
:1061C000000502D57B48784402E07A4878441938C3
:1061D00008AA302302F80A30037C0AF10101002EDC
:1061E0000AF1020A53546A4602DC4FF0300101E022
:1061F0004FF031014FF001088DF8001002D0A6F2E7
:10620000FF3603E059EA470100D06B4E002D02DC57
:106210002178090704D54FF002082E218DF80110CE
:10622000C44600210BE0C7F303433F01C35C491C94
:106230006D1E02F80830052908F1010801DA002D69
:10624000F1DC00210CE000EB1973491C1B786D1E7A
:10625000082902F808304FEA091908F1010801DAA3
:10626000002DF0DC21688B0602D516E0A8F10108AC
:10627000E04505DD02EB080313F8013C302BF5D0B7
:10628000B8F1000F09DD02EB080313F8013C2E2BD7
:1062900003D1090701D4A8F10108002D05DD3E2135
:1062A00002F808106D1E08F10108407C002E02F86B
:1062B000080008F1010804DA2D20764202F80800EF
:1062C00002E02B2002F808000A214FF47A7086427F
:1062D00008F101080BDB96FBF0F3303302F80830CD
:1062E00096FBF0F308F1010800FB136601E0642E51
:1062F0000CDB642096FBF0F3303302F8083096FB99
:10630000F0F308F1010800FB136601E00A2E06DB3A
:1063100096FBF1F0303002F8080008F1010896FB16
:10632000F1F001FB1060303002F80800A16908F1BB
:10633000010808EB050202EB0A00081AA0612078A8
:10634000C00602D42046FFF730F9216A08AE01EBFF
:106350000A00206204E0D4E9012116F8010B9047FD
:10636000BAF1010AF7D22078C00602D52046FFF71D
:106370001CF96E4609E016F8010B3E280FD0D4E94F
:1063800001219047206A401C2062B8F10108F2D236
:106390002046FFF720F909B00320BDE8F08F206AFE
:1063A0002844206203E0D4E90121302090476D1E8B
:1063B000EBD3F8E70A4E000002FCFFFF10B543697B
:1063C00013B1AFF3008001E0FFF728F9012010BD01
:1063D000127800F124010A7000224A700122EDE7D0
:1063E00011684FF0FF32E9E710B5436913B1AFF31D
:1063F000008001E0FFF7B2F9012010BD128800F122
:10640000240182840022C2840122EDE711684FF04A
:10641000FF32E9E770B516460C46054600F040F835
:10642000036893F80101012806D0FF2C0FD8185DEE
:1064300068B101202C7070BDD3F8070132462146A7
:1064400003F2071303442846BDE8704018474FF095
:10645000FF3070BD754600F0EBF8AE4605006946AA
:10646000534620F00700854618B020B5FEF768FFB8
:10647000BDE820404FF000064FF000074FF0000845
:106480004FF0000B21F00701AC46ACE8C009ACE8C6
:10649000C009ACE8C009ACE8C0098D4670470000EF
:1064A00010B500F005F8001D10BD00BF014A000046
:1064B00000487047AC0C00202DE9F0411F4604460F
:1064C00003260168072A01F4006004DB08B116A561
:1064D00005E016A503E008B115A500E015A521F01B
:1064E00010002060A069C01EA0610FB1401EA06115
:1064F0002046FFF75AF84FB1D4E9012138469047BA
:10650000206A401C2062C01C206206E0206AFAE774
:10651000D4E9012115F8010B9047761EF8D22046E8
:10652000FFF759F8BDE8F0814E414E006E616E00F4
:10653000494E4600696E66002DE9F04781461646D1
:106540008AB0354878440DC88DE80D00324878444B
:10655000801C03AC0DC884E80D0041F69B30084454
:10656000372190FBF1F290FBF1F5A5F1800501FBDD
:1065700012041B3C02D56442012000E00020DFF839
:1065800098A080460027FA44AAF1BE0A0EE0E00770
:106590000AD03246684607EB470101230AEB810126
:1065A00000F0E2FA8DE8070064107F1C002CEED1A9
:1065B000194F7F44AE3F19E0E80715D007EB0410F0
:1065C0000DF1180A90E80E008AE80E00C068F0424B
:1065D00001D1981908903246012306A903A800F0BA
:1065E000C3FA03AB83E807006D10641C002DE3D1F0
:1065F0004FF0010332466946B8F1000F03A802D0FC
:1066000000F09DFA01E000F0AFFAC9E90001C9F815
:1066100008200AB0BDE8F0871C4B000010B5044606
:10662000AFF300802046BDE81040FEF774BE0000C6
:10663000004870478C0C002001491820ABBEFEE7D3
:106640002600020070475FEA400C08BF91F0000F7F
:106650004FEA8C234FEAC12243EA51514FEA1C50C2
:1066600018BF00F5F0404FEA300018BF41F000417C
:106670005FEA6C5C00F02980BCF1FF3F08BF40F08E
:1066800080407047130C06BF12044FF0100C4FF0FF
:10669000000C130E04BF12020CF1080C130F04BF00
:1066A00012010CF1040C930F04BF92000CF1020CC8
:1066B000D30F04BF52000CF1010C11464FF0000241
:1066C000A0F11F00A0EB0C00704711F0004F08BFB5
:1066D000704731F000413FF4D5AF0B0C06BF090401
:1066E0004FF0100C4FF0000C0B0E04BF09020CF120
:1066F000080C0B0F04BF09010CF1040C8B0F04BF35
:1067000089000CF1020CCB0F04BF49000CF1010C05
:10671000CCF12003A0EB0C0022FA03F302FA0CF2F6
:1067200041EA030100F10100704720F07F4C80EA4C
:10673000030023F07F47ACEB070303F57C5300F025
:10674000004003F1FF032DE980494FEA154B09B4DE
:106750004FEA144325EA0B4E24EA03480FF20426BD
:1067600006EB132749083E785FEA320203FB06670F
:10677000C7F5000707FB06F64FEA54374FEAD6463F
:1067800006F1020607FB066CCCF1005C4FEA1C47E1
:106790002CEA074C07FB06F40CFB06F504EB154648
:1067A0004FEA961634BF00204FF000404FEAD13731
:1067B00006FB07FC4FEA1C4C0CFB0BF7D21B03FB40
:1067C0000CF761EB07010CFB0EF7B0EB074072EB27
:1067D00017420CFB08F734BFA2EB0742B2EB0742AB
:1067E00061EB17414FEA0C444FEA910706FB07FCA7
:1067F0004FEA1C4C0CFB0BF7B0EBC74072EB573267
:1068000003FB0CF734BFA2EBC742B2EBC74261EB0C
:1068100057310CFB0EF7B0EBC70072EB57720CFB55
:1068200008F734BFA2EBC702B2EBC70261EB5771A6
:10683000039F4FEA816141EA921104EBCC044FEAD5
:10684000D1374FEA826206FB07FC42EA90124FEA18
:1068500080604FEA1C4C0CFB0BF7D21B03FB0CF7C0
:1068600061EB07010CFB0EF7B0EB074072EB174230
:106870000CFB08F734BFA2EB0742B2EB074261EB17
:1068800017414FEA8C554FEA910704EB9C2406FB15
:1068900007FC4FEA1C4C0CFB0BF7B0EBC74072EB4C
:1068A000573203FB0CF734BFA2EBC742B2EBC7422F
:1068B00061EB57310CFB0EF7B0EBC70072EB577270
:1068C0000CFB08F734BFA2EBC702B2EBC70261EBC7
:1068D000577115EB4C254FEA816141EA92114FEA5D
:1068E00082624FEAD13742EA901206FB07FC44F17C
:1068F00000044FEA80604FEA1C4C0CFB0BF7D21BE4
:1069000003FB0CF761EB07010CFB0EF7B0EB074044
:1069100072EB17420CFB08F734BFA2EB0742B2EB55
:10692000074261EB174115EB1C154FEA813141EA33
:1069300092414FEA823242EA90424FEA80304FEA77
:106940000C7644F1000448EA03434EEA0B484FF04A
:10695000000EB2EB080C71EB030724BF6246394608
:106960004EEB0E0E4FF0000B0018524149414BEB1D
:106970000B0BB2EB080C71EB03077BF1000B24BF90
:10698000624639464EEB0E0E4FF0000B0018524196
:1069900049414BEB0B0BB2EB080C71EB03077BF19E
:1069A000000B24BF624639464EEB0E0E51EA020739
:1069B00018BF46F0010616EB0E7655F1000254F1B1
:1069C000000103D5BDE88901BDE80088BDE8890163
:1069D000BDE80048B619524141EB0101A3F10103A2
:1069E000704780807F7E7D7C7B7A7978777676753C
:1069F0007473727171706F6E6E6D6C6C6B6A6A69B4
:106A00006868676666656464636362616160605F4D
:106A10005F5E5E5D5D5C5C5B5B5A5A5959585857C6
:106A2000575656555555545453535252525151502E
:106A300050504F4F4F4E4E4D4D4D4C4C4C4B4B4B81
:106A40004A4A4A49494948484847474747464646C7
:106A50004545454444444443434343424242424102
:106A60004141002B9C4630D477002BD01CB54FEA17
:106A7000370703B44FF010004FF01001BAF1000FC8
:106A800006D0BCF1000FDCBF40F0080040F0080168
:106A90004FF000000FBCBDE810400BF1010BBBF143
:106AA000010F08BF5FEA170722BF12F1010211F1BF
:106AB00001014FF0004143F1000300F0004043EAC0
:106AC00000007047F9D35708D0E746EA064613F1AD
:106AD000400F4FEA16461FDD13F1200FDFBF1643AC
:106AE0000A46002120335B42BED0C3F1200746EAAC
:106AF000064602FA07F74FEA164646EA0706C3F1CA
:106B0000200722FA03F201FA07F721FA03F14FF006
:106B1000000342EA0702A7E746EA020646EA0646FB
:106B20004FEA164646EA0106BCBF46EA0646360C60
:106B30004FF000034FF000024FF0000194E72DE901
:106B4000804C9A46934670B491E8380007C831EA01
:106B5000400C48BF34EA430C03D5FFF7E6FDFFF7CE
:106B600080FFF0BCBDE8008C2DE9804C9A4693462E
:106B700070B491E8380007C810F0804F08BF13F0D8
:106B8000804F03D100F005F8FFF76BFFF0BCBDE8C4
:106B9000008C20F07F4780EA030023F07F4C07EB56
:106BA0000C03A3F57C5300F00040A3F1FE0392F028
:106BB000000F00F0B38095F0000F00F077802DE912
:106BC00001494FEA11404FEA144621EA004800FB10
:106BD00006FC24EA064708FB06F607FB08F800FB5C
:106BE00007F718EB06484CEB164C4FEA124B18EB24
:106BF00007484FEA15464CEB174022EA0B4E0BFBB9
:106C000006FC25EA06470EFB06F607FB0EFE0BFB0D
:106C100007F71EEB064E4CEB164C4FF000061EEB32
:106C2000074E4CEB174B18EB0B0840F1000018EB2C
:106C30000E0B58EB000840F100008F1A4FF00001D6
:106C40003CBFC943661B14BFB5EB040C00213CBF1D
:106C5000C943F61B4FEA17444EEA8E0E27EA044555
:106C60004FEA1C4704FB07622CEA074C05FB07F7B9
:106C70000CFB05F604FB0CFC16EB074642EB174237
:106C800016EB0C4642EB1C421BEB060658EB0202CD
:106C9000414146EA9E0601D5BDE80189B619524137
:106CA00041EB0101A3F10103BDE801894FEA14455D
:106CB0004FEA114724EA054621EA074C05FB07F491
:106CC00006FB07F70CFB06F105FB0CFC11EB07417B
:106CD00044EB17444FEA124711EB0C4144EB1C44C0
:106CE00022EA074C05FB07F206FB07F70CFB06F64A
:106CF00005FB0CFC16EB074642EB174216EB0C4665
:106D000042EB1C456A1854F1000148BF7047B619A0
:106D1000524141EB0101A3F10103704795F0000FCF
:106D200037D04FEA11424FEA144721EA024624EADB
:106D3000074C02FB07F106FB07F70CFB06F402FB0E
:106D40000CFC14EB074441EB17414FEA154714EBD9
:106D50000C4441EB1C4125EA074C02FB07F506FBFE
:106D600007F70CFB06F602FB0CFC16EB074645EB9F
:106D7000174516EB0C4645EB1C42121951F1000168
:106D800048BF7047B619524141EB0101A3F101031D
:106D900070474FEA14454FEA114724EA054621EAB5
:106DA000074C05FB07F106FB07F70CFB06F24FF05B
:106DB000000605FB0CFC12EB074241EB174112EBFE
:106DC0000C4251EB1C4148BF7047921841EB010146
:106DD000A3F1010370470000044903480860BFF3B2
:106DE0004F8FBFF36F8F70470050000808ED00E031
:106DF000FEE700000A48016889070DD502214160BD
:106E00000848016811F4C05FFBD101680906FCD491
:106E100005494FF480500860044800F0D5BD0000DB
:106E2000000002400838004018040048A00000207C
:106E30000948016889060CD5416841F0200141608C
:106E4000C16921F00101C1610448016841F04001BC
:106E50000160034800F0B8BD000002400038014066
:106E6000C0020020014800F0AFBD00002003002058
:106E7000014800F0A9BD0000800300200D49026810
:106E80008A4201D20C4901E00B492031D2B21423CD
:106E9000083AB2FBF3F2436C02F01F0223F0030343
:106EA0001944816404498031C16401219140016524
:106EB0007047000008040240000802400179074AB8
:106EC00002EB81024265054A4432491E826501F0A7
:106ED0001F0201219140C16570470000FC0802407B
:106EE000FEB53F4C05462146207ACA8801280FD0BE
:106EF0006179012972D0684600F0ACF801229DF852
:106F000001000021F0B101283AD0022843D04AE024
:106F100001210020237C04E001EB81014900401C99
:106F2000C0B28342F8D832230DB1501802E0501A93
:106F300000E0C01A9842FCDA00E018440028FCDBAC
:106F4000E08047E09DF80230207C012B08D1637A75
:106F5000012B02D0022B02D002E0001D00E008301D
:106F600000230AE00A26A2FB067E01FB06E14FF0A1
:106F7000000C02FB0C113A465B1C8342F2DB12E070
:106F80000020237C04E0090141EA12711201401C37
:106F90008342F8DC07E00020237C02E0921849419C
:106FA000401C8342FADCE068C31715B180184B41DE
:106FB00002E0801A63EB01030299CA17091A9A4189
:106FC00001DA019805E00199CA17411A934100DAE4
:106FD0000298E060BDE8FE4000F066BAFEBD000029
:106FE000D40A0020174A08B51170507016484FF4A3
:106FF000805303601548816821F0010181600F21F1
:1070000041600221C160816841F001018160104945
:1070100002689207FCD5086810F4C05FFBD10868CD
:107020000006FCD4002002E09DF80000401C8DF812
:1070300000009DF800000F28F6D3034810380360C5
:1070400008BD00003900002028040048000002406C
:1070500008380040F0B50026134C66F3070366F3CA
:107060000F23654266F3174351EA020C4FF0010704
:1070700003D10E4C67F31743654211B1012908D0C3
:107080000EE0012A0CD167F30F2334464FF6FF754B
:1070900006E02AB967F31743344664F30F230F253C
:1070A00080E83800F0BD0000F1D8FFFF006CCA880E
:1070B00070B5174DA87F002829D1288C401C80B2BC
:1070C0002884962823D300262E8495F824001122A4
:1070D000401CC4B285F8244005212846FEF7F3F988
:1070E000002C14D0152118202971022C00D3E8702F
:1070F000032C00D3A970042C01D319216970052C2D
:1071000005D328700120A87785F824602E8470BDEF
:10711000D40A002010B528210E48FEF7DCF90E48ED
:10712000016841F20202114301600B490B4808312A
:1071300001610B4941610848001F016841F04001AD
:107140000160044900200872887781F824000884CF
:1071500010BD0000D40A00200438004000000240A6
:10716000390000202DE9FE4F81480068814940F335
:10717000801440F3001840F3401740F3C01000F1B2
:10718000010B91F81BC08E8A087A0025641C4FF011
:1071900001097F1C08F1010810D07CB103287DD1C2
:1071A000761CB0B28882322878D3BCF1000F7DD132
:1071B00081F81B9081F808908D8316E08A464FF085
:1071C000020E10B98A7F012A08D06A4AB8F1000F6E
:1071D000937E5179D2880CD0012414E0B8F1000FCD
:1071E00064D081F81EE08AF80890BDE8FE4F00F0F8
:1071F0005BB90FB1022406E00CB1032403E0BBF13C
:10720000000F5AD004245646A34205D0B582F57625
:10721000B476F582FA233383B38A4FF47A785B1C11
:107220009BB2B382042C23D1434521D3F37EFBB917
:10723000504B86F81B90283303F1C807012802D071
:1072400002280CD012E086F808E029B157F8220095
:10725000F0607572357409E053F82200F8E745488C
:10726000C06829B347F8220000F086F800F01CF946
:10727000307A03281AD0B08A404517D3022C01D0A7
:10728000032C13D1F08A401C80B2F082318B8842EB
:107290000CD3F582022C0ED0002000E006E0FFF7B0
:1072A0001FFE308B1E2801D90F383083BDE8FE8FBA
:1072B00043F82200D8E70120EFE75446002BF5D031
:1072C000BCF1000F2CD1142E2AD3032828D0012B77
:1072D00006D0022B12D0032B12D0042B20D113E0A6
:1072E000022806D041B100206071E58000F0DCF892
:1072F00016E084F80890F9E70120F5E7012000E0A6
:107300000020FFF7EDFD0BE0012802D002280AD093
:1073100006E0207C401CC0B22074022800D92574ED
:10732000A576A582C2E76846FFF794FE607901283A
:107330009DF8010001D038B10AE00028D6D19DF8AF
:10734000020001280CD0D1E79DF80200012807D0E7
:10735000207C401CC0B220740328C7D92574C5E71F
:10736000607A401CC0B260720228BFD96572BDE766
:1073700010040048D40A0020084810B50421017206
:107380000021418400F090F80A2000F0DBFB034864
:107390003221BDE81040283000F04CBAD40A002059
:1073A0002DE9FE43394E307A20B9FFF781FEB07FD8
:1073B000012801D1FFF7D6FE354F3978705CFE28E1
:1073C00005D0344A145C307A032802D005E0FE244C
:1073D000F9E7022901D104F07F04718A4FF0000817
:1073E000891C89B27182B1F5C87F01D3A6F81280D9
:1073F000042814D1708C401C80B27084B0F5966F54
:1074000005D3A6F822800120307200F04DF8718C6F
:107410004FF49670B1FBF0F0C00700D1FF24307A32
:1074200018B3032805D0FF25012815D0022805D060
:1074300013E0708AC82818D3FF2416E07179012957
:107440000BD0F2886846FFF705FE9DF8010018B9D9
:107450009DF80200012800D0357C3878A84204D17C
:10746000708AC82801D204F07F040A483978401F86
:10747000415C2046FFF7B6FD3878401CC0B238703A
:10748000052801D387F80080BDE8FE83D40A0020D8
:107490003800002061AF0008024988830320087289
:1074A00000F002B8D40A00203EB55D4C207A0028D6
:1074B00057D0112205212046FEF705F8207A0A252B
:1074C000032811D0012816D0E28861796846FFF7B9
:1074D000C1FD9DF80100E168012832D0022841D0A9
:1074E00000294BDA48424AE0152020711720E0704D
:1074F000A070A08B19E06079002806D04FF00D0035
:10750000207105D14FF00A0004E04FF01400F7E7B6
:107510004FF01400E070E0884FF06401B0FBF1F12F
:10752000B1FBF5F205FB1211A170B0FBF5F1B1FB57
:10753000F5F205FB12116170B0FBF5F105FB1100CE
:107540006CE04FF0120020714FF000004FEA800213
:1075500041FA02F202F00F02225400F10100042865
:10756000F4DB3EBD0B202071002041FA00F202F056
:1075700001022254401C0428F7DB3EBD08469DF85A
:107580000220C2B1617A41B3012935D0FE212171B7
:107590002449B0FBF1F070B3B0FBF5F105FB11012C
:1075A00021700A28E9D3B0FBF5F0B0FBF5F105FB3B
:1075B000110060703EBD002901DA102100E01121A8
:1075C00021710021B0FBF5F205FB1202B0FBF5F0D2
:1075D0006254491C0429F5DB3EBD162121710021AE
:1075E000B0FBF5F205FB1202B0FBF5F06254491C4A
:1075F0000429F5DB3EBD11E01021217142F210712A
:10760000B0FBF1F10020B1FBF5F205FB1212B1FB6A
:10761000F5F12254401C0428F5DBEBE72070E9E784
:10762000D40A002000E1F50570470068016821F0E8
:10763000040101607047102000F072BB10B52020DB
:1076400000F06EFB402000F06BFBBDE81040802096
:1076500000F066BB0068016841F0040101607047FA
:1076600072B6FEE7144A107F1449012801D003289E
:107670000FD10B6823F400730B600B6843F40063B5
:107680000B600B6823F400630B600B6843F400731A
:107690000B60022801D003280BD1086840F4805009
:1076A0000860086820F480500860086840F4806032
:1076B000086000201077704714000020002002406E
:1076C000C107054803D0416941F0040141614169A6
:1076D00041F48031416170470020024006494A6907
:1076E00060F3CA024A61486940F002004861486993
:1076F00040F480304861704700200240054910B5D1
:107700004C6944F001044C610260BFF36F8F436029
:1077100010BD000000200240094B10B55C694022FA
:1077200044F480245C61EFF3108372B610C9521EDA
:1077300010C012F0FF02F9D183F3108810BD0000D1
:107740000020024070B5064600F0D8FB0446124DFA
:1077500006E000F0D3FB001BB04201D9032070BD4E
:107760002869C003F5D428694CF2FA3108400CD0DE
:107770000A494A6802434A60810F01D0A969A96198
:10778000810000D02861012070BD2869C00701D0A8
:1077900001202861002070BD00200240140000205C
:1077A00010B50B460168B1F15A3F01D0012010BD60
:1077B0000021001D05E050F8214043F82140491CFC
:1077C00089B29142F7D350F822401146184602F090
:1077D0001FFD844201D1002010BD022010BD00B564
:1077E00085B00021A0F1006004910091C00A012140
:1077F000CDE90110039104A9684600F0AFF905B086
:1078000000BD000070B50C460A4605460146074813
:10781000FFF7C6FF002807D0224629460448FFF795
:10782000BFFF002800D0012070BD000000F0030859
:1078300000F8030870B50D46064600F05BFA0B4CE5
:107840002046FFF7CCFF2A463146204600F012F8CA
:10785000074C2046FFF7C3FF2A463146204600F07A
:1078600009F8BDE8704000F0E5B9000000F0030839
:1078700000F803082DE9F0478846074616461146EA
:10788000404602F0C5FC05464FF0FF3916B1D8F866
:10789000003000E04B464FF05A323946002000F0ED
:1078A000D7F9012410E058F82420601CB04203D21C
:1078B00008EB8400436801E02B4600253946002090
:1078C00000F0C6F9A41CA4B20837B442EBD3B4420A
:1078D00007D12A464B463946BDE8F047002000F064
:1078E000B7B9BDE8F08710B590F825200021012335
:1078F000022A03D00421C163012122E00268146836
:1079000024F00E041460826C146824F480741460F3
:107910000268146824F00104146090F84420046C98
:1079200002F01F0203FA02F26260D0E913245460ED
:10793000426D32B1146824F480741460D0E91624C6
:10794000546080F82530002280F82420084610BDBD
:1079500070B590F82510002401222346022907D093
:107960000421C16380F8252080F82430012429E017
:1079700001680D6825F00E050D6001680D6825F0A1
:1079800001050D60816C0D6825F480750D6090F81F
:107990004410154601F01F018A40016C4A60D0E98D
:1079A00013124A60416D31B10A6822F480720A6094
:1079B000D0E916124A6080F8255080F82430816B97
:1079C00001B18847204670BDF0B4016C0B680168B6
:1079D0000A6890F84440042504F01F0405FA04F6F0
:1079E0001E4211D056070FD50A68920603D40A68C2
:1079F00022F004020A6090F8441001F01F018D404B
:107A0000016C4D60016B1DE0022606FA04F71F426F
:107A10004FF0000C4FF0010518D0970716D50A68F3
:107A2000920605D40A6822F00A020A6080F82550FE
:107A300090F8441001F01F018E40016C4E6080F8F8
:107A400024C0C16A00291AD0F0BC08470826A64005
:107A50001E4214D0120712D50A6822F00E020A60E4
:107A600090F84410026C01F01F0105FA01F1516019
:107A7000C56380F8255080F824C0416BE2E7F0BC74
:107A80007047000070B504000CD02B4A2068142108
:107A9000904209D2294A0244B2FBF1F189006164A3
:107AA00027490AE0012070BD234A52420244B2FB3A
:107AB000F1F189006164204908392164022184F8C8
:107AC0002510016847F6F0729143D4E902231A4366
:107AD000D4E904352B431A43A3691A43E3691A43D3
:107AE000236A1A430A4302602046FFF7C7F9A068D9
:107AF0000025B0F5804F00D16560A16C2079086049
:107B0000D4E9130141606068401E032808D820466C
:107B1000FFF7D4F9606D0560D4E91601416002E019
:107B20006565A565E565E563012084F8250084F8B1
:107B30002450002070BD000008040240F8FFFDBF83
:107B40000000024030B504464FF47A7502E0284642
:107B500003F01EF9641EFAD230BD00002DE9F05F7B
:107B6000044632488946017801290CD00125804617
:107B700005704FF47A7B5846FFF7E4FD06004FF09E
:107B8000000A03D04EE00220BDE8F09F5146404677
:107B9000C8F804A0264F3A6892050AD53968490505
:107BA00005D5396821F480613960032109E0057742
:107BB00008E03A68520504D5396821F480613960DB
:107BC000022101772068012807D04FF0FF31C9F862
:107BD000001040F2FA7BA5681DE06068FFF770FDB9
:107BE0005846FFF7AFFD0646786920F0040078613B
:107BF00016E028466168FFF771FD4FF47A70FFF7D1
:107C0000A1FD0600786920EA0B00786102D0C9F86E
:107C1000005005E06D1CD4E902010844A842E8D8F0
:107C2000FFF720FD88F800A03046ADE714000020E3
:107C300000200240054901204A6942F000424A61A1
:107C40004969002900DA0020704700000020024046
:107C50002DE9FF5F254F05460024387891469B4665
:107C6000012809D0012038704FF47A70FFF76AFDBF
:107C70000600A24604D035E0022004B0BDE8F09F23
:107C80005046C7F804A0DFF86880D8F8001049050E
:107C900006D5D8F8001021F48061C8F80010022041
:107CA000387725B1012D09D0022D07D00DE04A46C5
:107CB0005B460198FFF722FD012406E04946019842
:107CC000FFF72AFD022D00D16C044FF47A70FFF704
:107CD00039FD064624B1D8F81410A143C8F8141091
:107CE000FFF7C0FC87F800A03046C6E7140000206C
:107CF00000200240064900204A69002A07DA054AA6
:107D00008A60054A8A604969002900DA01207047C3
:107D10000020024023016745AB89EFCD704700008A
:107D2000044910B50A68024202D00860FFF7F6FF66
:107D300010BD0000140401402DE9F84FDFF88891D0
:107D40000022A9F1040B03274FF00F0C09F1040ADC
:107D5000ABF1040EB1E0012595402B4073D00C79B6
:107D600004F00304012C01D0022C15D186685400C4
:107D700007FA04F826EA0806D1F80C8008FA04F895
:107D800048EA0608C0F808804468AC430D79C5F39A
:107D900000159540254345600C79E443A40708D0BD
:107DA000C568540007FA04F6B5438E68A6402E4312
:107DB000C6600C7904F00304022C11D1D40800EB46
:107DC0008406356A5407E40E0CFA04F825EA08051F
:107DD000D1F8108008FA04F848EA0508C6F82080AF
:107DE0000568540007FA04F6B5430E7906F0030659
:107DF000A6402E4306604C6814F4403F5CD0334CE0
:107E0000256E45F001052566246E22F0030504F079
:107E1000010400942E4C05EB0408D8F80850940790
:107E2000260F0CFA06F4A543B0F1904F04D0294C6C
:107E3000A04203D1012417E0002415E0264CA04203
:107E400002D1022410E037E0244CA04201D10324E7
:107E50000AE0234CA04201D1042405E0214CA042B9
:107E600001D1052400E00624B4402C43C8F80840A2
:107E7000D9F800404D464E689C43F60200D51C439D
:107E80002C60DAF8004055464E689C43B60200D597
:107E90001C432C60DBF800405D464E689C43B603F3
:107EA00000D51C432C60DEF8004075464E689C43AC
:107EB000F60300D51C432C60521C0B6833FA02F405
:107EC0007FF449AFBDE8F88F08040140001002407C
:107ED000000001400004004800080048000C004871
:107EE00000100048001400480069084000D001203C
:107EF00070470AB1816170478162704701488068AC
:107F00007047000008000020024881684268114460
:107F1000816070470800002010B50024032000F0A5
:107F200073F80F2000F008F808B1012401E000F018
:107F300025F8204610BD000070B50E4E0546002401
:107F4000706898B14FF47A71B1FBF0F00A49096892
:107F5000B1FBF0F000F05AFE40B9102D06D200221D
:107F60002946501E00F030F8356000E0012420461C
:107F700070BD000008000020340000200A4882B0D4
:107F8000016E41F001010166016E01F001010091F5
:107F9000816D41F080518165806D00F080500090CE
:107FA00002B000F0A1B8000000100240002809DB78
:107FB00000F01F02012191404009800000F1E02003
:107FC000C0F8001170470000F0B40E4B1B68C3F3FB
:107FD0000223C3F10704042C00D904241D1D072D1E
:107FE00001D2002300E0DB1E012606FA04F56D1E17
:107FF0000D409D409E40761E164045EA0601F0BCAD
:1080000002F0AEBE0CED00E0064A00F00701106879
:108010004FF6FF03184040EA01200349084310606F
:10802000704700000CED00E00000FA052B492C4BD6
:108030000A6832214A432B4940B1B0F5007F0868F5
:1080400029D020F4C06040F480602CE00868C0F3C0
:108050004120022804D051F8800F20F4807022E0E3
:10806000D1F8800020F48070C1F88000086820F406
:10807000C06040F400700860B2FBF3F0401C00E008
:10808000401E4A69520501D50028F9D148694005CA
:108090000AD503207047C0F34120022806D051F8CA
:1080A000800F40F48070086000207047D1F8800095
:1080B00040F48070C1F88000086820F4C06040F48B
:1080C00000700860B2FBF3F0401C00E0401E4A69FB
:1080D0005205DBD50028F9D1D8E700003400002094
:1080E00040420F00007000400248816841F4804126
:1080F00081607047007000400248016841F480715F
:1081000001607047007000402DE9F84F04460026DA
:108110000068BB4D374600035DD5A86D4FF00009E0
:10812000C00009D4A86D40F08050A865A86D4FF03C
:10813000010900F080500090DFF8C8A2DAF80010C2
:1081400041F48071CAF80010FFF7D8FE804607E0BE
:10815000FFF7D4FEA0EB0800022801D9032632E085
:10816000DAF80000C005F3D56EBBD5F8900010F426
:10817000407014D0E16C814211D0D5F89000D5F850
:10818000901020F4407041F48031C5F89010D5F87B
:10819000901021F48031C5F89010C5F89000C00708
:1081A0007ED0FFF7ABFE804641F2883A05E0FFF74C
:1081B000A5FEA0EB08015145D0D8D5F89000800766
:1081C000F5D5002E6CD03746B9F1000F03D0A86D5D
:1081D00020F08050A8652078C00707D0D5F8880027
:1081E000616820F003000843C5F888002078800704
:1081F00007D5D5F88800A16820F00C000843C5F821
:1082000088002078400707D5D5F88800E16820F07D
:1082100030000843C5F888002078000707D5D5F856
:108220008800216920F0C0000843C5F88800207844
:10823000C00607D5D5F88800616920F4407008436E
:10824000C5F888002078800607D5D5F88800A16990
:1082500020F440600843C5F888002078400607D520
:10826000D5F88800E16920F440500843C5F888003B
:108270002078000607D5D5F88800216A20F4404010
:108280000843C5F888002088C00507D5D5F88800C0
:10829000616A20F440300843C5F88800208800E077
:1082A00019E0800507D5D5F88800A16A20F44020A0
:1082B0000843C5F888002088400519D5D5F88800FE
:1082C000E16A20F440100843C5F88800E06AB0F580
:1082D000801F09D00CE0D5F89000E16C20F44070CC
:1082E0000843C5F890006FE7E86840F48010E86044
:1082F000208800050FD5D5F88800216B20F44000B8
:108300000843C5F88800206BB0F5800F03D1E868FA
:1083100040F48010E8602088C0040FD5D5F88800AC
:10832000616B20F040700843C5F88800606BB0F1C5
:10833000807F03D1E86840F48010E86020888104E1
:108340004FF000600ED5D5F88810A26B21F0406187
:108350001143C5F88810A16B814203D1E96841F44B
:108360008011E960218849040ED5D5F88810E26BA8
:1083700021F040611143C5F88810E16B814203D1BF
:10838000E86840F48010E860208800040FD5D5F834
:108390008800216C20F040500843C5F88800206C0C
:1083A000B0F1805F03D1E86840F48030E860206875
:1083B000C0030FD5D5F88800616C20F04040084319
:1083C000C5F88800606CB0F1804F03D1E86840F4D4
:1083D0008030E860206840030FD5D5F89C00A16C80
:1083E00020F440100843C5F89C00A06CB0F5001FB5
:1083F00003D1E86840F48010E8603846BDE8F88FA3
:1084000000100240007000402DE9F0470D460400C6
:108410004FF0000725D0DFF8A091D9F8000000F058
:108420000F00A8420CD2D9F8001021F00F01294307
:10843000C9F80010D9F8000000F00F00A84210D1D0
:1084400021685E4EC80741F2883A52D06068DFF872
:108450007081032808D00228306826D04005002803
:1084600025DB0120BDE8F08730688001F9D5F06890
:10847000F068544BC0F30310401CB3FBF0F0F268FB
:10848000C2F306225043F268C2F34162521C52000A
:10849000B0FBF2F0404515D9B06810F0F00F0AD0EB
:1084A00088070FD5A06830B10CE08003D7E700F053
:1084B000B5F8404506D9B06820F0F00040F08000E3
:1084C000B0608027B068616820F003000843B060A6
:1084D000FFF714FD804605E0FFF710FDA0EB080153
:1084E00051453BD8B068616800F00C00B0EB810FDB
:1084F000F2D12068810714D5400703D5B06840F455
:10850000E060B0602078000705D5B06820F46050C6
:1085100040F4E060B060B068A16820F0F00008436B
:1085200004E0802F03D1B06820F0F000B060D9F8EB
:108530000010484601F00F01A94217D90168C8464A
:1085400021F00F0129430160FFF7D8FC0746D1460F
:1085500006E0FFF7D3FCC11B494501D9032081E7A1
:10856000D8F8000000F00F00A842F2D120784007B0
:1085700005D5B068E16820F4E0600843B060207879
:10858000000706D5B068216920F4605040EAC100B8
:10859000B06000F043F8B1680B4AC1F30311515CBD
:1085A00001F01F01C8400949086009480068BDE89A
:1085B000F047FFF7C1BC000000200240001002405D
:1085C00000B4C4040024F40012AF000834000020FA
:1085D000080000200548064900688968054AC1F37B
:1085E0000221515C01F01F01C84070473400002097
:1085F0000010024022AF000805480649006889685B
:10860000054AC1F3C221515C01F01F01C840704707
:10861000340000200010024022AF0008134A906886
:10862000C0F38101124801290AD09168C1F3810188
:10863000022905D09168C1F38101032901D00020EE
:108640007047D16801F00303D168C1F30311491CDD
:10865000B0FBF1F0D168C1F306214843D168C1F302
:108660004161491C4900B0FBF1F070470010024025
:108670000024F4002DE9F843040078D02078F54D6B
:10868000C00745D0A868E96800F00C0001F00301BC
:108690000C2802D0082817D001E0032914D0606804
:1086A000B0F5803F17D0B0F5A02F286817D020F480
:1086B00080302860286820F4802028606068D8B165
:1086C000FFF71CFC064613E02868800320D560688D
:1086D0000028D2D01CE0286840F48030EDE740F458
:1086E00080202860F7E7FFF709FC801B64286ED81C
:1086F00028688003F7D50BE0FFF700FC064604E08E
:10870000FFF7FCFB801B6428F1D828688003F7D4AE
:10871000207880074BD5A868E96800F00C0001F0CC
:1087200003010C2802D004280DD001E002290AD050
:10873000E068002828682BD040F480702860FFF79C
:10874000DDFB064619E02868400502D5E0680028F0
:1087500093D06868217C20F0FE4040EA01606860A8
:10876000BD480068FFF7E8FB002800D11FE06DE17D
:10877000FFF7C4FB801B0228B9D828684005F7D54D
:108780006868217C20F0FE4040EA016068600EE0ED
:1087900020F480702860FFF7B1FB064604E0FFF785
:1087A000ADFB801B0228A2D828684005F7D42078AA
:1087B000000728D560690028D5F8940012D040F051
:1087C0000100C5F89400FFF799FB064605E08FE02D
:1087D000FFF794FB801B022889D8D5F89400800706
:1087E000F6D510E020F00100C5F89400FFF786FBF5
:1087F000064604E0FFF782FB801B022878D8D5F8F4
:1088000094008007F6D42078400761D5A86D002732
:10881000C00008D4A86D40F08050A865A86D01275D
:1088200000F0805000908D480168C90511D401689E
:10883000804641F480710160FFF760FB064604E06A
:10884000FFF75CFB801B022852D8D8F80000C00557
:10885000F6D5A068012815D00528D5F8900016D0C7
:1088600020F00100C5F89000D5F8900020F0040039
:10887000C5F89000A06841F28838B8B1FFF73EFB18
:1088800006460EE0D5F8900040F00100F0E740F019
:108890000400C5F89000F5E7FFF730FB811B414568
:1088A00026D8D5F890008007F6D50CE0FFF726FB18
:1088B000064604E0FFF722FB811B414518D8D5F896
:1088C00090008007F6D41FB1A86D20F08050A865F5
:1088D0002078800628D5A0690028D5F8980012D005
:1088E00040F00100C5F89800FFF708FB064605E0D8
:1088F00072E0FFF703FB801B02286DD8D5F89800C3
:108900008007F6D510E020F00100C5F89800FFF7C9
:10891000F5FA064604E0FFF7F1FA801B02285BD85F
:10892000D5F898008007F6D4E069E8B3A968C1F3E8
:10893000810103295BD00228286820F0807028601C
:1089400003D0FFF7DBFA044649E0FFF7D7FA064603
:1089500004E0FFF7D3FA801B02283DD82868800185
:10896000F7D4F4E908016FF00F0202EB011108439C
:10897000218A5204490802EB4151A26841EA0221CE
:108980000843217D4FF07E42490802EB41610843D4
:10899000217B40EAC160E968314A11400843E86040
:1089A000286840F0807000E052E02860E86840F0FD
:1089B0008070E860FFF7A2FA044604E0FFF79EFA31
:1089C000001B022808D828688001F7D540E0FFF78F
:1089D00095FA001B022802D90320BDE8F883286815
:1089E0008001F4D4E8681F490840E86030E00128BD
:1089F000F3D0E868226A00F00301914226D1616A4F
:108A000000F0F0020901103991421FD1A26A00F46E
:108A1000FE41B1EB022F19D194F82C2000F07841DF
:108A2000B1EBC26F12D1218E00F4C0024908490592
:108A3000A1F50011914209D194F8341000F0C06002
:108A400049084906A1F10071814201D00120C4E723
:108A50000020C2E700100240080000200070004023
:108A60000C809F01FCFFEEFE70B5040009D0606A27
:108A7000002540B125616561A56294F85D0040B1B3
:108A80000CE0012070BD6068B0F5827FF4D0E56134
:108A9000F2E784F85C50204600F05CF8022084F88D
:108AA0005D002068016821F040010160E0684FF43A
:108AB000E062904201D9002101E04FF48051B0F50D
:108AC000706F02D0904200D0A562A088228900F485
:108AD000827002F404421043227C02F0020210432E
:108AE000227D02F001021043228B02F40072104337
:108AF000227F02F03802104394F8202002F0800216
:108B00001043228D02F40052104322681060A069C5
:108B1000042202EA104094F8242001F4805102F06B
:108B20001002104394F8342002F008021043A28986
:108B300002F4706210430843216848602068C169EC
:108B400021F40061C1612566012084F85D000020E8
:108B500070BD00002DE9F04186B00646142168463C
:108B6000FCF7B9FC24493068884241D12349886D1B
:108B700040F480408865886D00F480400590C86CA2
:108B800040F00200C864C86C022700F002000590A3
:108B90004FF42040CDE9000700250295032005246D
:108BA000CDE90304DFF8588069464046FFF7C4F872
:108BB00078030090CDE90175CDE90354694640463C
:108BC000FFF7BAF8104C0F4820600D2060601020AD
:108BD000C4E902058020C4E90405A561E5612046D9
:108BE0002562FEF74FFF08B1FEF73AFD7465A662F5
:108BF00006B0BDE8F08100000038004000100240DF
:108C00000004004808000240A000002010B5401EEB
:108C1000B0F1807F01D3012010BD4FF0E0246061EE
:108C20000F21601702F09CF80020A061072020614E
:108C3000002010BD704770477047704770477047FD
:108C4000F0B590F83C20012A40D0012580F83C5036
:108C5000022280F83D2003685A689C681C4E1D4F14
:108C6000DFF874C0B34203D0BB4201D0634504D1E6
:108C700022F4700E4A6842EA0E02DFF860E002EA6F
:108C80000E02D1F800E04EEA020EC3F804E00268DA
:108C9000B2420FD0B2F1804F0CD0114B9A4209D0A2
:108CA000104B9A4206D0BA4204D00F4B9A4201D0E0
:108CB000624504D1896824F080031943916080F8EB
:108CC0003D50002180F83C100846F0BD0220F0BD68
:108CD000002C014000340140005001408FFFFFFD97
:108CE000000400400008004000400140704710B5FB
:108CF000040003D094F83D0010B107E0012010BD3E
:108D0000002084F83C00204600F022F8022084F87D
:108D10003D00211D206801F0E7FA012084F8480099
:108D200084F83E0084F83F0084F8400084F8410055
:108D300084F8420084F8430084F8440084F8450035
:108D400084F8460084F8470084F83D00002010BDF8
:108D500008B50068144A154990420ED1086E40F4D7
:108D600000600866086E002200F400600090114662
:108D70001920FFF729F9192010E00D4A904211D16E
:108D8000886D40F010008865886D002200F01000AA
:108D9000009011463620FFF717F93620BDE808404D
:108DA000FFF704B908BD0000002C0140001002408C
:108DB0000010004090F83D10012901D001207047BB
:108DC000022180F83D100168CA6842F00102CA60C1
:108DD00000681149884211D0B0F1804F0ED00F4980
:108DE00088420BD00E49884208D00E49884205D0EF
:108DF0000D49884202D00D49884207D181680C4A4A
:108E00001140062906D0B1F5803F03D0016841F03A
:108E10000101016000207047002C01400004004067
:108E20000008004000340140004001400050014073
:108E30000700010070B5044690F83C0000250128A9
:108E400015D0012684F83C60022084F83D0020689B
:108E50008268374B1A4022F47F4282600868B0F57E
:108E6000805F28D010DC10F00F0F03D022E04FF00D
:108E7000020070BD4FEA2012082A1BD2DFE802F080
:108E8000535353534B3941222A4BC21A98424AD06A
:108E90000ADCB0F5005F20D0B0F1101F43D0A0F580
:108EA0008011203906D13EE0102A3CD0202A3AD049
:108EB000402A38D0012584F83D60002084F83C0029
:108EC000284670BDCB68D1E90121206801F076FA0F
:108ED0002068816841F0770109E0CB68D1E9012180
:108EE000206801F06BFA2068816841F4804181605C
:108EF000E1E7CA684968206801F074FA50212068E7
:108F000006E0CA684968206801F07DFA602120689F
:108F100001F05EFACFE7CA684968206801F062FA9A
:108F200040212068F4E7226801461046F0E700007F
:108F300088FFCEFF3000100070472DE9F041044655
:108F40000068C66805694FF00007A90713D5B10787
:108F500011D5F91E01610120207720688069800702
:108F6000204602D0FFF7E8FF04E000F0B7F8204603
:108F700000F0B5F82777680716D5700714D5216873
:108F80006FF004000861022020772068806910F4E7
:108F9000407F204602D0FFF7CFFF04E000F09EF8AC
:108FA000204600F09CF82777280715D5300713D501
:108FB00021686FF008000861042020772068C069EC
:108FC0008007204602D0FFF7B7FF04E000F086F8E4
:108FD000204600F084F82777E80616D5F00614D569
:108FE00021686FF010000861082020772068C069B0
:108FF00010F4407F204602D0FFF79EFF04E000F00F
:109000006DF8204600F06BF82777E80708D0F007E6
:1090100006D021686FF001000861204600F060F87A
:10902000280601D4A80408D5300606D521686FF4B7
:10903000025008612046FFF7FEFDE80508D530061E
:1090400006D521686FF4807008612046FFF7F2FDB5
:10905000680608D5700606D521686FF040000861E3
:10906000204600F03EF8A80608D5B00606D52168CF
:109070006FF0200008612046FFF7DEFDE80208D50A
:10908000F00206D521686FF4801008612046FFF7D2
:10909000D5FDA80208D5B00206D521686FF40010EE
:1090A00008612046FFF7C9FD680208D5700206D5A1
:1090B00021686FF4800008612046FFF7C0FD280298
:1090C0000AD5300208D521686FF4000008612046F7
:1090D000BDE8F041FFF70ABEBDE8F0817047704778
:1090E0007047704790F88410012918D0012180F84A
:1090F00084102421C0F8881001680A680B6823F0E6
:1091000001030B6022F000510022426603681960DF
:109110002021C0F8881080F8842010467047022073
:1091200070477047704770B5044690F88400012876
:109130001DD0012084F884002420C4F88800206811
:109140000568026822F0010202602068826822F04D
:1091500060620A438260204601F068F92068056079
:109160002020C4F88800002084F8840070BD02200C
:1091700070BD70B5044690F8840001281DD0012010
:1091800084F884002420C4F88800206805680268F8
:1091900022F0010202602068826822F060420A43E5
:1091A0008260204601F042F9206805602020C4F862
:1091B0008800002084F8840070BD022070BD7047D4
:1091C000704770472DE9F04103680446D869196873
:1091D0009A6840F60F0528424FF000054FF002064E
:1091E0000AD187067ED501F0200702F0805C57EA9D
:1091F0000C0777D0616F3AE1B24FDFF8CCC217406D
:1092000001EA0C0C57EA0C0C6CD05FEAC07C0CD065
:109210005FEAC15C09D54FF0010CC3F820C0D4F857
:10922000903043F00103C4F89030830709D5D30789
:1092300007D023681E62D4F8903043F00403C4F8CA
:10924000903043070AD5D30708D026680423336239
:10925000D4F8903043F00203C4F8903003070CD5E3
:1092600001F020033B4308D0266808233362D4F87A
:10927000903043F00803C4F8903003050BD54B0140
:1092800009D526684FF400633362D4F8903043F078
:109290002003C4F89030D4F89030002B3DD08006E5
:1092A00009D501F0200002F08051084303D0616F1E
:1092B00009B120468847D4F890002168896849069A
:1092C00002D410F0280F2AD0204601F095F920682A
:1092D000806840061ED52068083050E8001F21F045
:1092E000400100E021E040E80012002AF3D1D4F868
:1092F000800078B175498163D4F88000FEF728FBBF
:1093000000280AD0D4F88000816B00E02046BDE838
:10931000F04108472046FFF754FFBDE8F0812046A2
:10932000FFF74FFFC4F89050F7E7D4F86CC0202740
:10933000BCF1010F7ED15FEAC06C7BD55FEAC16CE6
:1093400078D51020186220688068400645D5D4F88A
:109350008010086840680004000CDED0B4F85C207F
:109360008242DAD9A4F85E000868006880062CD42E
:10937000206850E8001F21F4807140E80012002AA4
:10938000F6D12068083050E8001F21F0010140E8C4
:109390000012002AF5D12068083050E8001F21F0A3
:1093A000400140E80012002AF5D1C4F88C70E5664F
:1093B000206850E8001F21F0100140E80012002A48
:1093C000F6D1D4F88000FEF78EFA2667B4F85C0078
:1093D000B4F85E10401A81B230E0B4F85C00B4F822
:1093E0005E10401A81B2B4F85E00002895D00029C2
:1093F00093D0206850E8002F22F4907240E80023B8
:10940000002BF6D12F4BDB432068083050E8002FAB
:109410001A4040E8002CBCF1000FF5D1C4F88C7064
:10942000E5666567206850E8002F22F0100240E8EA
:10943000002300E006E0002BF4D126672046FFF76A
:1094400070FE6AE7C60209D5560207D54FF48010B0
:1094500018622046BDE8F041FFF7B2BE03060AD508
:1094600001F0800302F40002134304D0A16F00292D
:109470007FF44CAF51E7420611D54A060FD520467E
:10948000016851E8002F22F0400241E80023002B40
:10949000F6D1C0F88870856700F02AF93DE702022E
:1094A00006D54A0004D52046BDE8F041FFF787BE47
:1094B000C001C6D50029C4DA2046BDE8F041FFF757
:1094C00031BE00000100001020010004E5A50008E5
:1094D00010B5040003D0D4F8880010B107E00120D3
:1094E00010BD002084F88400204600F027F82420D6
:1094F000C4F888002068016821F001010160A06AB9
:1095000010B1204600F0B4FF204601F09FF801287A
:10951000E6D02068416821F490414160206881686C
:1095200021F02A0181602068016841F00101016099
:109530002046BDE8104000F0FFBF00002DE9F047D5
:109540009AB00446142114A8FBF7C5FF50216846C1
:10955000FBF7C1FF5F4920685F4D022700264FF0EF
:1095600007084FF0100A4FF08009884250D10120BF
:10957000CDE900066846FEF7C7FD08B1FEF770F8B2
:10958000286E40F480402866286E00F480401990D0
:10959000E86C40F00100E864E86C16AA00F00100F5
:1095A00019904FF4C060CDE9140782E8C00114A9F6
:1095B0004FF09040FEF7C0FB494D48482860C5E990
:1095C00003696E611920AE61C5E9010A4FF440508C
:1095D000C5E907602846FEF755FA08B1FEF740F8DE
:1095E000E567002211462520AC62FEF7EDFC252040
:1095F000FEF7DCFC3B490868026842F0100202609A
:109600000868016841F0200101601AB0BDE8F087E8
:1096100035498842F9D10420009003966846FEF748
:1096200073FD08B1FEF71CF8A86D40F48020A86512
:10963000A86D00F480201990E86C40F00400E86404
:10964000E86C14A900F0040019904FF44060CDE9D3
:1096500014070320CDE91660CDF860802348FEF79B
:109660006BFB1F4D1D486035283028601C20C5E964
:109670000106C5E903696E614FF40058AE61C5E9A2
:1096800007684F462846FEF7FDF908B1FDF7E8FFE9
:10969000C4F88050AC62124D1048C0353C30286090
:1096A000C5E903676E611D20AE61C5E9010AC5E920
:1096B00007682846FEF7E6F908B1FDF7D1FFE56730
:1096C000002211462720AC62FEF77EFC2720FEF721
:1096D0006DFC9AE700380140001002401C00024077
:1096E000C002002098010020004800400008004807
:1096F0007047FEE7114C08B5A06D40F08050A065A2
:10970000A06D00F080500090FEF7F6FCA16DA06DFA
:1097100040F00100A0650143A16509494AF2A55046
:109720000860BFF34F8F07480168074A01F4E06102
:1097300011430160BFF34F8F00BFFDE700100240EF
:10974000002500400CED00E00400FA05194808B5BA
:10975000816C41F004018164816C01F0040100918D
:10976000816C41F001018164806C002200F00100F5
:10977000009011460B20FEF727FC0B20FEF716FC8D
:10978000002211460C20FEF71FFC0C20FEF70EFCF9
:10979000002211460E20FEF717FC0E20FEF706FCF5
:1097A000002211460F20FEF70FFCBDE808400F20F5
:1097B000FEF7FCBB001002402DE9F04186B01421F9
:1097C0006846FBF788FE3B48C16C41F02001C1644C
:1097D000C16C01F020010591C16C41F00101C1642F
:1097E000C16C01F001010591C16C41F00201C1643D
:1097F000C16C01F002010591C16C41F00401C1642A
:10980000C06C4FF0904700F004000590002240F635
:10981000FF113846FEF76DFBDFF89C80002241F215
:1098200008014046FEF765FB40F6FF000090012569
:109830000024CDE90154694638460394FEF77CFACA
:109840002803CDE900050320CDE9024069464046E2
:10985000FEF772FA28020226CDE90005CDE902469C
:1098600069463846FEF768FA0820CDE90005CDE9DB
:10987000024669464046FEF75FFAF02000904FF43A
:109880000410CDE9010469464046FEF755FA00226E
:1098900011460A20FEF798FB0A20FEF787FB0022FC
:1098A00011461720FEF790FB1720FEF77FFB06B04E
:1098B000BDE8F0810010024000040048124810B5D5
:1098C000104901604FF48271416000214FF4E06261
:1098D000C0E902124FF400720161C0E905122022B2
:1098E000C0E9072107224162C0E90A120163082189
:1098F0004163FFF7B9F8002803D0BDE81040FDF739
:10990000AFBE10BD003800403C00002010B588B04C
:10991000002418480094019402940394049405943C
:1099200013490694C0E900144FF42651C0E90241DE
:10993000046144618461FFF7DAF908B1FDF790FE34
:109940004FF48050009069460A48FFF773FA08B157
:10995000FDF786FE0494059404A906480694FFF7D3
:109960006FF9002801D0FDF77BFE08B010BD0000A4
:10997000002C0140000100203EB500240F48009457
:1099800001940D4902940160A921C0E9011440F23B
:10999000E7318461C160FFF7AAF908B1FDF760FE05
:1099A0000094694605480294FFF74AF9002801D05F
:1099B000FDF756FE3EBD0000001000404C010020A7
:1099C0001A4810B5184901604FF4614141604FF4E5
:1099D0008051816000214FF4C062C0E903120C2263
:1099E000C0E90521C161016241628162FFF770FD3A
:1099F00008B1FDF735FE00210C48FFF7BAFB08B1AE
:109A0000FDF72EFE00210948FFF78DFB08B1FDF799
:109A100027FE0648FFF766FB002803D0BDE810408C
:109A2000FDF71EBE10BD0000003801409801002067
:109A3000174810B515490160164941600021816041
:109A40000C22C160C0E904128161C16101624162FE
:109A50008162FFF73DFD08B1FDF702FE00210C48D1
:109A6000FFF787FB08B1FDF7FBFD00210848FFF772
:109A70005AFB08B1FDF7F4FD0548FFF733FB00285A
:109A800003D0BDE81040FDF7EBBD10BD004800401D
:109A90002C020020A0252600FEE700002DE9F04161
:109AA0000E464900184FCA1CD4B297F87621174DBC
:109AB0002A7097F877216A70A97000220FE0811848
:109AC0003A290AD207EB4101B1F8743205EB4201A1
:109AD0004FEA132C81F803C00B71521C92B2B242B0
:109AE000EDD32146094800F021FB2855000A291929
:109AF0004870C5F80452A41C85F80842BDE8F0413E
:109B0000034800F0A1BF0000EC070020E0030020A4
:109B1000E40500202DE9F0410E464900174FCA1C0C
:109B2000D4B297F87621164D2A7004226A70A97073
:109B300000220FE081183A290AD207EB4101B1F85F
:109B4000FE3005EB42014FEA132C81F803C00B7184
:109B5000521C92B2B242EDD32146094800F0E6FA17
:109B60002855000A29194870C5F80452A41C85F824
:109B70000842BDE8F041034800F066BFEC07002052
:109B8000E0030020E405002008480146D1F8002148
:109B9000D1F8041102604160C0F80402082180F885
:109BA000081200F5017000F04FBF0000E003002034
:109BB000154810B590F87611144C217090F8771173
:109BC000617090F87811A17090F87911E17090F8B7
:109BD0007C11217190F87D0160710621204600F012
:109BE000A5FAA0710621204600F0A0FA000AE07153
:109BF000C4F80442082084F8080204F50170BDE8A6
:109C0000104000F021BF0000EC070020E00300201E
:109C100010B51A48FDF709FD194991F800211948B6
:109C200080F8762191F8011180F8771190F876117B
:109C3000032904D0BDE810401048FDF70BBD90F893
:109C4000770103280AD004280CD006280ED010284B
:109C500010D0BDE81040052000F046BABDE8104025
:109C600000F012B8BDE8104000F07CB8BDE810402C
:109C700000F0F8B8BDE8104000F094B99801002059
:109C8000E0030020EC07002010B5164CB4F80002E9
:109C9000082801D0032020E000F028F894F80611ED
:109CA000114890F86722914205D194F8071190F875
:109CB0006822914201D001200FE0B0F87A1190F8AB
:109CC000662211443A2907D890F86612B0F87A0152
:109CD000BDE81040FFF7E2BE0220BDE8104000F0F2
:109CE00003BA0000E0030020EC07002030B51A485A
:109CF00090F80211194C84F8781190F8031184F847
:109D0000791194F8791194F8782141EA0221A4F8A4
:109D10007A1190F8041184F87C1190F8050184F808
:109D20007D0194F87D0194F87C1140EA012084F8CB
:109D3000660294F866021D280DD2094806210546E0
:109D400000F0F4F984F867020621284600F0EEF9E5
:109D5000000A84F8680230BDE0030020EC07002010
:109D6000E004002070B5234CB4F80002082801D0AC
:109D700003203BE000F042F894F806011E4D95F8F0
:109D80006712884205D194F8070195F86812884255
:109D900001D001202AE0B5F87A0195F8661208444E
:109DA0003A2822D8002414E095F8660220443A2884
:109DB0000DD2B5F87A11601C0844C0B200F0E6F983
:109DC000B5F87A11214405EB4101A1F8FE00641CAD
:109DD000A4B295F86602A042E6D895F86612B5F8E6
:109DE0007A01BDE87040FFF795BE0220BDE87040E3
:109DF00000F07AB9E0030020EC070020164810B507
:109E000090F80211154C84F8781190F8031184F839
:109E1000791194F8791194F8782141EA0221A4F893
:109E20007A1190F8041184F87C1190F8050184F8F7
:109E30007D0194F87D0194F87C1140EA012084F8BA
:109E400066020621064804F2492400F06FF9A07763
:109E5000000AE07710BD0000E0030020EC070020BE
:109E6000E004002010B5304CB4F80002082801D0FE
:109E7000032054E000F05CF894F806012B4991F8B7
:109E80006722904205D194F8070191F86822904228
:109E900001D0012043E0B1F87A01052827D006DC83
:109EA000052810D2DFE800F0202323232300082810
:109EB0001DD004DC06281AD0072804D117E0092891
:109EC00022D0FF2827D0B1F87A01401C3A2825D8A3
:109ED000B1F8F201B1F87A2101EB4201A1F8740264
:109EE000BDE81040FFF750BE00F03BF9F8E7B1F8CD
:109EF000F2010028B1F87A01C0B202D000F072F984
:109F0000EEE700F05BF9EBE70122D1024FF0904061
:109F1000FDF7EFFFE4E700F02EF9E1E70220BDE8EE
:109F2000104000F0E1B80000E0030020EC07002042
:109F300030B5194890F80211184C84F8781190F84F
:109F4000031184F8791194F8791194F8782141EA91
:109F50000221A4F87A1190F8041184F87E1190F887
:109F6000050184F8B80194F8B80194F87E1140EA2C
:109F70000120A4F8F2010A480621054604F5BC7444
:109F800000F0D4F884F8EF000621284600F0CEF85F
:109F9000000A84F8F00030BDE0030020EC07002048
:109FA000E0040020204910B591F80601B1F8002224
:109FB0000930824236D1014411F8FE2F4978801EC3
:109FC00042EA0124C1B2194800F0B0F8A04201D021
:109FD000012023E000F02EF8154991F87D0191F859
:109FE0007C2140EA0222B1F87A0110443A2814D8C0
:109FF00000200CE001EB4003B3F8F231B1F87A41F4
:10A00000044401EB4404A4F87432401C80B2904232
:10A01000F0D3BDE81040FFF7CBBD0220BDE81040F3
:10A0200000F062B80320F9E7E0030020E00400201C
:10A03000EC07002070B5294D95F80201284C84F8F2
:10A04000780195F8030184F8790194F8790194F87E
:10A05000781140EA0120A4F87A0195F8040184F807
:10A060007C0195F8050184F87D0194F87D0194F850
:10A070007C1140EA012395F8060184F866021D2B45
:10A080002BD2002016E005EB400292F80761211860
:10A0900081F87E6192F8082181F8B82191F8B82101
:10A0A00091F87E1142EA012104EB4002A2F8F2117C
:10A0B000401C80B29842E6D3072000EB43050948D4
:10A0C000E9B2064600F032F884F86702E9B2304699
:10A0D00000F02CF8000A84F8680270BDE00300204C
:10A0E000EC070020E00400200E4910B591F876211D
:10A0F0000D4C227091F8771141F080016170A070D1
:10A100000321204600F012F8E070000A2071C4F824
:10A110000442052084F8080204F50170BDE81040EF
:10A1200000F092BCEC070020E003002030B50346AD
:10A130004FF6FF704AF201040DE013F8012B504076
:10A140000022C50702D084EA500000E04008521CFB
:10A15000D2B2082AF5D3491EC9B2EED230BDFEE70D
:10A16000704710B50124204600F028F8641CE4B2C2
:10A17000082CF8D910BD10B50124204600F032F8A3
:10A18000641CE4B2082CF8D910BD000010B5411EC3
:10A1900007290ED80849084A01EB4001103202EBAA
:10A1A000800031F8021C50F8040CFDF79DFE0128D8
:10A1B00000D0002010BD00002CAF0008411E072970
:10A1C0000DD80749064A01EB4001103202EB80002E
:10A1D00031F8021C50F8040C0022FDF78ABE7047CB
:10A1E0002CAF0008411E07290DD80749064A01EB8C
:10A1F0004001103202EB800031F8021C50F8040CD0
:10A200000122FDF776BE70472CAF000870470000B2
:10A21000F0B506464FF0FF3000240B4D10E056F825
:10A220002430002290EA030F02D585EA400000E0C6
:10A230004000521C5B00D2B2202AF3D3641CA4B2AB
:10A240008C42ECD3F0BD0000B71DC104FDF75CBE2D
:10A2500010B594B038216846FBF73DF914210EA8DB
:10A26000FBF739F90020FDF7E1FE01200090000422
:10A27000032404210190CDE9084102205521CDE9B4
:10A280000A1007900C900D906846FEF7F3F908B19C
:10A2900072B6FEE70F20CDE90E0400201090119059
:10A2A000129004210EA8FEF7AFF8002801D072B674
:10A2B000FEE714B010BD00000248016841F47001CF
:10A2C0000160704788ED00E00148FEF736BE0000EF
:10A2D0000001002010B5FDF763F8BDE8104001480B
:10A2E000FEF72BBE4C0100202DE9F04702682B4DF4
:10A2F0002B4E2C4F2C4B2D4C4FF0804AA84209D0AE
:10A30000504507D0B04205D0B84203D0984201D0A2
:10A31000A04204D122F0700C4A6842EA0C02DFF835
:10A3200090C0DFF89080DFF89090A8420FD05045A1
:10A330000DD0B0420BD0B84209D0984207D060454A
:10A3400005D0404503D0484501D0A04203D122F4B6
:10A350004076CA6832434E6922F08002324302607E
:10A360008A68C2620A688262A84209D0984207D00D
:10A37000604505D0404503D0484501D0A04201D1F9
:10A3800009690163012141610169C90703D00169BC
:10A3900021F001010161BDE8F0870000002C0140BF
:10A3A000000400400008004000340140005001401B
:10A3B00000400140004401400048014010B584685D
:10A3C00042EA032224F47F440A432243826010BD00
:10A3D0008268034B1A400A4342F0070181607047CC
:10A3E0008FFFCFFF10B5046A036A23F001030362F5
:10A3F000836923F0F00343EA021324F00A020A43BC
:10A400008361026210BD10B5036A046A24F010046F
:10A410000462846923F0A00324F4704444EA023205
:10A4200043EA01118261016210BD000030B5416E46
:10A43000B9B1026891689268C1F342610B4C520F46
:10A44000A35CDD0004F108039A5CB5FBF2F2A0F80E
:10A450006A20625C595CD200B2FBF1F1A0F868108E
:10A4600030BD0121A0F86A10F8E7000002AF000833
:10A4700090F82810090706D501684A68836B22F412
:10A4800000421A434A6090F82810C90706D00168B4
:10A490004A68C36A22F400321A434A6090F82810CE
:10A4A000890706D501684A68036B22F480321A4393
:10A4B0004A6090F82810490706D501684A68436B3E
:10A4C00022F480221A434A6090F82810C90606D563
:10A4D00001688A68C36B22F480521A438A6090F83C
:10A4E0002810890606D501688A68036C22F4005298
:10A4F0001A438A6090F82810490611D501684A6805
:10A50000436C22F480121A434A60416CB1F5801FFB
:10A5100006D101684A68836C22F4C0021A434A607B
:10A5200090F82810090606D501684A68C06C22F424
:10A53000002202434A6070472DE9F8430025044693
:10A54000C0F89050FDF7DAFC8046206800684FF0B4
:10A55000200600076FF07E4713D5434600223104E2
:10A560002046009700F0BEF958B1206850E8001F5F
:10A5700021F0800140E80012002AF6D1C4F888607A
:10A5800021E020680068400722D5434600224FF4AE
:10A5900080012046009700F0A5F9C8B1206850E876
:10A5A000001F21F4907140E80012002AF6D12068C3
:10A5B000083050E8001F21F0010140E80012002A95
:10A5C000F5D1C4F88C6084F884500320BDE8F8838A
:10A5D000C4F88860C4F88C6044F86C5F65602576C8
:10A5E0000020F3E710B5806A0021A0F85E10A0F803
:10A5F0005610FEF7E6FD10BD10B5016851E8002FBA
:10A6000022F4907241E80023002BF6D10E4B016832
:10A61000083151E8002F1A4041E80024002CF6D1FF
:10A62000C16E012908D1016851E8002F22F0100203
:10A6300041E80023002BF6D12021C0F88C10002126
:10A64000C166416710BD0000FEFFFFEF2DE9F0413C
:10A65000044600682269A168E66911436269002521
:10A6600032431143934B0268934E32400A430260D7
:10A6700020684168E26821F440511143416021683B
:10A68000A069994201D0226A10438A688B4E3240F9
:10A6900002438A602068C16A626A21F00F01114397
:10A6A000C1628749226887488A420DD1D0F8880064
:10A6B00010F0030006D0012867D0022854D00328E8
:10A6C00051D164E001204FE07F498A420BD1D0F89C
:10A6D000880010F00C0047D0042845D0082852D03C
:10A6E0000C2840D153E079498A420BD1D0F8880038
:10A6F00010F0300038D0102847D0202843D0302820
:10A7000031D144E072498A420BD1D0F8880010F070
:10A71000C00029D0402838D0802834D0C02822D189
:10A7200035E06C498A420ED1D0F8880010F44070B0
:10A730001AD0B0F5807F28D0B0F5007F23D0B0F5D7
:10A74000407F10D123E09A420DD1D0F8880010F458
:10A75000406009D0B0F5806F17D0B0F5006F12D00F
:10A76000B0F5406F13D010205B495C4E00274FF4CA
:10A77000004C9A423BD160B1022813D004280BD080
:10A78000082872D10DE00220EEE70420ECE7082053
:10A79000EAE7FDF71FFF01E0FDF740FF010001D1EF
:10A7A0007CE06146606A36F810206668B1FBF2F022
:10A7B00006EB4603834270D8B0EB063F6DD800230A
:10A7C00008461946FAF7CEFD090241EA1061020275
:10A7D00070081018794132460023FAF7C3FD404A49
:10A7E000A0F54071914258D82168C86056E0E269EE
:10A7F0004FF6EF7862452CD109284ED2DFE800F001
:10A800000508114D0D4D4D4D1000FDF7E3FE01E023
:10A81000FDF7F2FE010004D140E0FDF7FFFEF9E78D
:10A820006146606A36F81000B1FBF0F041006068E4
:10A8300001EB5001B1FBF0F0A0F1100141452CD823
:10A840004FF6F0710140C0F3420001432068C1603F
:10A8500024E0092821D2DFE800F0050912200E20AB
:10A8600020201100FDF7B6FE02E016E0FDF7C4FE61
:10A87000010004D112E0FDF7D1FEF9E76146606AFC
:10A8800036F81000B1FBF0F1606801EB5001B1FB4C
:10A89000F0F0A0F1100141450AD901250120A4F8EA
:10A8A0006A0024F8680F2846E7602761BDE8F08158
:10A8B00080B299E700800040F369FFCFFFF4FF11F9
:10A8C00000380140001002400044004000480040B1
:10A8D000004C0040005000400024F400EAAE0008A4
:10A8E000FFFC0F002DE9F0471F4690460D46044639
:10A8F0004FF00009089E32E0701C30D0FDF7FEFAE0
:10A90000C01BB04218D8BEB120680168490726D5DF
:10A91000802D24D0402D22D0C169C94309070DD410
:10A92000082505622046FFF767FEC4F8905084F8BA
:10A9300084900120BDE8F0870320FBE7C069C04395
:10A9400000050CD421684FF4006008622046FFF730
:10A9500053FE2020C4F8900084F88490ECE720682F
:10A96000C06935EA000004D000204045C4D0002072
:10A97000E0E70120F9E7000070B52B4801682B4C97
:10A9800089064FF0000511D5B4F80002FF2801D95F
:10A99000A4F80052244808300168B4F800022218D4
:10A9A000401CA4F8000282F8001135E001684A0654
:10A9B0001F4912D5402008601B481C38016821F04F
:10A9C000480101601B48FCF745FE00224FF48071EE
:10A9D0004FF09040FDF78DFA1EE00068C0061BD5D1
:10A9E00010200860B4F8000202280DD3B4F8001259
:10A9F0000E48FF30085C0A2806D1B4F800120B4854
:10AA0000FE30085C0D280CD0B4F80002042801D3F5
:10AA1000FFF7FEF8A4F80052BDE870400548FEF7C5
:10AA2000D1BB00F05BF8F5E71C380140E0030020E3
:10AA300020380140980100200148FEF7C3BB000008
:10AA40002C020020FEE7000010B50446012211028E
:10AA50004FF09040FDF74DFA0B48016841F00801B6
:10AA600001600A49C86920F00100C861702048608F
:10AA70002068886204482830486220790862C869E2
:10AA800040F00100C86110BD0038014000000240E4
:10AA90000FB4104810B5016A0029FCD103AB4FF484
:10AAA00000710D48029AFAF7D5FC0B48A0F5037423
:10AAB000C4F80402FAF7E8FC84F8080204F501700F
:10AAC000FFF7C2FF4FF090404169C905FCD410BCAC
:10AAD0005DF814FB00000240EC05002010B50948A9
